:020000040800F2
:1000000000000824613C00081D3700081F37000865
:1000100021370008233700082537000800000000BA
:100020000000000000000000000000000160010866
:100030002737000800000000A160010805610108E1
:10004000B13C0008B13C0008B13C0008B13C0008DC
:10005000B13C0008B13C0008B13C0008B13C0008CC
:10006000B13C0008B13C0008B13C00082937000849
:100070003937000849370008B13C0008B13C000896
:10008000B13C0008B13C0008B13C0008B13C00089C
:10009000B13C0008B13C0008B13C0008B13C00088C
:1000A000B13C000859370008B13C0008B13C0008D9
:1000B000B13C0008B13C0008B13C0008B13C00086C
:1000C000B13C0008B13C0008B13C0008B13C00085C
:1000D000B13C0008F5200008B13C0008B13C000824
:1000E000B13C0008B13C000800000000B13C000831
:1000F000B13C0008B13C0008B13C0008B13C00082C
:10010000B13C000869370008B13C0008B13C000868
:10011000B13C0008B13C0008B13C0008B13C00080B
:10012000B13C0008B13C0008B13C0008B13C0008FB
:10013000B13C0008B13C0008B13C0008B13C0008EB
:1001400000000000000000000000000000000000AF
:10015000B13C0008B13C0008B13C0008B13C0008CB
:10016000B13C0008B13C0008B13C0008B13C0008BB
:10017000B13C0008B13C0008B13C000800000000A0
:10018000B13C0008B13C0008B13C0008B13C00089B
:10019000B13C0008B13C0008B13C0008B13C00088B
:1001A000B13C0008B13C0008B13C0008B13C00087B
:1001B00079370008B13C0008B13C0008B13C0008A8
:1001C000B13C0008B13C0008B13C0008B13C00085B
:1001D000B13C000889370008B13C0008B13C000878
:1001E000B13C0008B13C0008B13C0008B13C00083B
:1001F000B13C0008B13C0008B13C0008B13C00082B
:10020000B13C0008B13C0008B13C0008B13C00081A
:10021000B13C0008B13C0008B13C0008B13C00080A
:10022000B13C0008B13C000899370008000000000C
:10023000B13C0008B13C000800000000B13C0008DF
:10024000B13C0008B13C0008B13C0008B13C0008DA
:10025000B13C0008B13C0008B13C0008B13C0008CA
:10026000B13C0008B13C0008B13C0008B13C0008BA
:10027000B13C0008B13C0008B13C0008000000009F
:10028000B13C0008B13C0008B13C0008000000008F
:0802900000000000B13C000871
:1002C00010B5054C237833B9044B13B10448AFF390
:1002D00000800123237010BD200B002400000000CB
:1002E000D434020808B5034B1BB103490348AFF3EC
:1002F000008008BD00000000240B0024D434020854
:10030000BFF34F8F0C480D490860BFF34F8FBFF309
:100310006F8FFEE772B60A4801680422114301603C
:10032000084801681143016030BF0748016881F344
:1003300008884068004700000400FA050CED00E062
:1003400010ED00E0084402580098F01F81F00041D1
:1003500002E000BF83F0004330B54FEA41044FEAAA
:10036000430594EA050F08BF90EA020F1FBF54EA45
:10037000000C55EA020C7FEA645C7FEA655C00F0E1
:10038000E2804FEA5454D4EB5555B8BF6D420CDDB2
:100390002C4480EA020281EA030382EA000083EA35
:1003A000010180EA020281EA0303362D88BF30BDD5
:1003B00011F0004F4FEA01314FF4801C4CEA11312B
:1003C00002D0404261EB410113F0004F4FEA03338A
:1003D0004CEA133302D0524263EB430394EA050F15
:1003E00000F0A780A4F10104D5F1200E0DDB02FA84
:1003F0000EFC22FA05F2801841F1000103FA0EF218
:10040000801843FA05F359410EE0A5F120050EF1DD
:10041000200E012A03FA0EFC28BF4CF0020C43FA0E
:1004200005F3C01851EBE37101F0004507D54FF01B
:10043000000EDCF1000C7EEB00006EEB0101B1F56B
:10044000801F1BD3B1F5001F0CD349085FEA3000B1
:100450004FEA3C0C04F101044FEA445212F5800FBC
:1004600080F09A80BCF1004F08BF5FEA500C50F159
:10047000000041EB045141EA050130BD5FEA4C0C3C
:10048000404141EB0101013C28BFB1F5801FE9D299
:1004900091F0000F04BF01460020B1FA81F308BFBC
:1004A0002033A3F10B03B3F120020CDA0C3208DD88
:1004B00002F1140CC2F10C0201FA0CF021FA02F163
:1004C0000CE002F11402D8BFC2F1200C01FA02F1D3
:1004D00020FA0CFCDCBF41EA0C019040E41AA2BFF8
:1004E00001EB0451294330BD6FEA04041F3C1CDAC0
:1004F0000C340EDC04F11404C4F1200220FA04F0E0
:1005000001FA02F340EA030021FA04F345EA030189
:1005100030BDC4F10C04C4F1200220FA02F001FA4B
:1005200004F340EA0300294630BD21FA04F02946CD
:1005300030BD94F0000F83F4801306BF81F4801166
:100540000134013D4EE77FEA645C18BF7FEA655CD9
:1005500029D094EA050F08BF90EA020F05D054EAAB
:10056000000C04BF1946104630BD91EA030F1EBFB0
:100570000021002030BD5FEA545C05D140004941B4
:1005800028BF41F0004130BD14F580043CBF01F5A7
:10059000801130BD01F0004545F0FE4141F470018D
:1005A0004FF0000030BD7FEA645C1ABF1946104668
:1005B0007FEA655C1CBF0B46024650EA013406BF69
:1005C00052EA033591EA030F41F4002130BD00BF28
:1005D00090F0000F04BF0021704730B54FF48064E5
:1005E00004F132044FF000054FF0000150E700BF66
:1005F00090F0000F04BF0021704730B54FF48064C5
:1006000004F1320410F0004548BF40424FF00001B1
:100610003EE700BF42004FEAE2014FEA31014FEAF4
:1006200002701FBF12F07F4393F07F4F81F0605143
:10063000704732F07F4208BF704793F07F4F04BF8E
:1006400041F40021704730B54FF4607401F000456B
:1006500021F000411CE700BF50EA010208BF7047CB
:1006600030B54FF000050AE050EA010208BF7047BC
:1006700030B511F0004502D5404261EB41014FF425
:10068000806404F132045FEA915C3FF4D8AE4FF02D
:1006900003025FEADC0C18BF03325FEADC0C18BF10
:1006A000033202EBDC02C2F1200300FA03FC20FA61
:1006B00002F001FA03FE40EA0E0021FA02F11444AE
:1006C000BDE600BF70B54FF0FF0C4CF4E06C1CEAC7
:1006D00011541DBF1CEA135594EA0C0F95EA0C0F38
:1006E00000F0DEF82C4481EA030621EA4C5123EAAB
:1006F0004C5350EA013518BF52EA033541F48011DA
:1007000043F4801338D0A0FB02CE4FF00005E1FB8C
:1007100002E506F00042E0FB03E54FF00006E1FBD6
:1007200003569CF0000F18BF4EF0010EA4F1FF0419
:10073000B6F5007F64F5407404D25FEA4E0E6D4159
:1007400046EB060642EAC62141EA55514FEAC5206A
:1007500040EA5E504FEACE2EB4F1FD0C88BFBCF5E6
:10076000E06F1ED8BEF1004F08BF5FEA500E50F197
:10077000000041EB045170BD06F0004646EA01015D
:1007800040EA020081EA0301B4EB5C04C2BFD4EB8F
:100790000C0541EA045170BD41F480114FF0000E88
:1007A000013C00F3AB8014F1360FDEBF002001F0F6
:1007B000004170BDC4F10004203C35DA0C341BDC70
:1007C00004F11404C4F1200500FA05F320FA04F042
:1007D00001FA05F240EA020001F0004221F0004176
:1007E00010EBD37021FA04F642EB06015EEA430EE9
:1007F00008BF20EAD37070BDC4F10C04C4F1200519
:1008000000FA04F320FA05F001FA04F240EA0200CB
:1008100001F0004110EBD37041F100015EEA430E9C
:1008200008BF20EAD37070BDC4F1200500FA05F2BC
:100830004EEA020E20FA04F301FA05F243EA02033B
:1008400021FA04F001F0004121FA04F220EA02004A
:1008500000EBD3705EEA430E08BF20EAD37070BD90
:1008600094F0000F0FD101F00046400041EB010170
:1008700011F4801F08BF013CF7D041EA060195F052
:10088000000F18BF704703F00046520043EB03030C
:1008900013F4801F08BF013DF7D043EA06037047F9
:1008A00094EA0C0F0CEA135518BF95EA0C0F0CD004
:1008B00050EA410618BF52EA4306D1D181EA03014A
:1008C00001F000414FF0000070BD50EA410606BF44
:1008D0001046194652EA430619D094EA0C0F02D189
:1008E00050EA013613D195EA0C0F05D152EA0336CE
:1008F0001CBF104619460AD181EA030101F00041EC
:1009000041F0FE4141F470014FF0000070BD41F034
:10091000FE4141F4780170BD70B54FF0FF0C4CF40E
:10092000E06C1CEA11541DBF1CEA135594EA0C0F2D
:1009300095EA0C0F00F0A7F8A4EB050481EA030E7A
:1009400052EA03354FEA013100F088804FEA033361
:100950004FF0805545EA131343EA12634FEA02222F
:1009600045EA111545EA10654FEA00260EF00041F0
:100970009D4208BF964244F1FD0404F5407402D242
:100980005B084FEA3202B61A65EB03055B084FEAD3
:1009900032024FF480104FF4002CB6EB020E75EBD0
:1009A000030E22BFB61A754640EA0C005B084FEAF8
:1009B0003202B6EB020E75EB030E22BFB61A754675
:1009C00040EA5C005B084FEA3202B6EB020E75EBC0
:1009D000030E22BFB61A754640EA9C005B084FEA38
:1009E0003202B6EB020E75EB030E22BFB61A754645
:1009F00040EADC0055EA060E18D04FEA051545EA34
:100A000016754FEA06164FEAC30343EA52734FEADC
:100A1000C2025FEA1C1CC0D111F4801F0BD141EA55
:100A200000014FF000004FF0004CB6E711F4801FBA
:100A300004BF01430020B4F1FD0C88BFBCF5E06F9A
:100A40003FF6AFAEB5EB030C04BFB6EB020C5FEAAA
:100A5000500C50F1000041EB045170BD0EF0004EFF
:100A60004EEA113114EB5C04C2BFD4EB0C0541EA31
:100A7000045170BD41F480114FF0000E013C90E62E
:100A800045EA060E8DE60CEA135594EA0C0F08BFF2
:100A900095EA0C0F3FF43BAF94EA0C0F0AD150EAF1
:100AA00001347FF434AF95EA0C0F7FF425AF104684
:100AB00019462CE795EA0C0F06D152EA03353FF4AC
:100AC000FDAE1046194622E750EA410618BF52EA29
:100AD00043067FF4C5AE50EA41047FF40DAF52EAFD
:100AE00043057FF4EBAE12E74FF0FF3C06E000BF9A
:100AF0004FF0010C02E000BF4FF0010C4DF804CDA7
:100B00004FEA410C7FEA6C5C4FEA430C18BF7FEA66
:100B10006C5C1BD001B050EA410C0CBF52EA430C94
:100B200091EA030F02BF90EA020F0020704710F114
:100B3000000F91EA030F58BF994208BF90422CBFA3
:100B4000D8176FEAE37040F0010070474FEA410C9C
:100B50007FEA6C5C02D150EA013C07D14FEA430CBA
:100B60007FEA6C5CD6D152EA033CD3D05DF8040B2B
:100B7000704700BF8446104662468C46194663465D
:100B800000E000BF01B5FFF7B7FF002848BF10F134
:100B9000000F01BD4DF808EDFFF7F4FF0CBF012079
:100BA00000205DF808FB00BF4DF808EDFFF7EAFFF5
:100BB00034BF012000205DF808FB00BF4DF808EDB0
:100BC000FFF7E0FF94BF012000205DF808FB00BFA5
:100BD0004DF808EDFFF7CEFF94BF012000205DF82F
:100BE00008FB00BF4DF808EDFFF7C4FF34BF01203C
:100BF00000205DF808FB00BF53B94AB9002908BFBF
:100C000000281CBF4FF0FF314FF0FF3000F074B9E7
:100C1000ADF1080C6DE904CE00F006F8DDF804E053
:100C2000DDE9022304B070472DE9F047089D044632
:100C30008E46002B4DD18A42944669D9B2FA82F28F
:100C400052B101FA02F3C2F1200120FA01F10CFACB
:100C500002FC41EA030E94404FEA1C48210CBEFB03
:100C6000F8F61FFA8CF708FB16E341EA034306FB8C
:100C700007F199420AD91CEB030306F1FF3080F01B
:100C80001F81994240F21C81023E63445B1AA4B268
:100C9000B3FBF8F008FB103344EA034400FB07F70A
:100CA000A7420AD91CEB040400F1FF3380F00A814B
:100CB000A74240F207816444023840EA0640E41B40
:100CC00000261DB1D4400023C5E900433146BDE8EC
:100CD000F0878B4209D9002D00F0EF800026C5E98E
:100CE000000130463146BDE8F087B3FA83F6002EA6
:100CF0004AD18B4202D3824200F2F980841A61EB1E
:100D0000030301209E46002DE0D0C5E9004EDDE73B
:100D100002B9FFDEB2FA82F2002A40F09280A1EB23
:100D20000C014FEA1C471FFA8CFE0126200CB1FB78
:100D3000F7F307FB131140EA01410EFB03F0884271
:100D400008D91CEB010103F1FF3802D2884200F2FE
:100D5000CB804346091AA4B2B1FBF7F007FB101190
:100D600044EA01440EFB00FEA64508D91CEB04042E
:100D700000F1FF3102D2A64500F2BB800846A4EB89
:100D80000E0440EA03409CE7C6F12007B34022FA74
:100D900007FC4CEA030C20FA07F401FA06F31C43A3
:100DA000F9404FEA1C4900FA06F3B1FBF9F8200CB0
:100DB0001FFA8CFE09FB181140EA014108FB0EF0F6
:100DC000884202FA06F20BD91CEB010108F1FF3A46
:100DD00080F08880884240F28580A8F10208614452
:100DE000091AA4B2B1FBF9F009FB101144EA014160
:100DF00000FB0EFE8E4508D91CEB010100F1FF340B
:100E00006CD28E456AD90238614440EA0840A0FBA2
:100E10000294A1EB0E01A142C846A64656D353D078
:100E20005DB1B3EB080261EB0E0101FA07F722FA9C
:100E300006F3F1401F43C5E9007100263146BDE8C5
:100E4000F087C2F12003D8400CFA02FC21FA03F328
:100E5000914001434FEA1C471FFA8CFEB3FBF7F0A9
:100E600007FB10360B0C43EA064300FB0EF69E42CE
:100E700004FA02F408D91CEB030300F1FF382FD267
:100E80009E422DD9023863449B1B89B2B3FBF7F60F
:100E900007FB163341EA034106FB0EF38B4208D9E8
:100EA0001CEB010106F1FF3816D28B4214D9023E29
:100EB0006144C91A46EA004638E72E46284605E747
:100EC0000646E3E61846F8E64B45A9D2B9EB020818
:100ED00064EB0C0E0138A3E74646EAE7204694E7A8
:100EE0004046D1E7D0467BE7023B614432E73046DB
:100EF00009E76444023842E7704700BF844641EA8C
:100F0000000313F003036DD1403A41D351F8043B81
:100F100040F8043B51F8043B40F8043B51F8043BD3
:100F200040F8043B51F8043B40F8043B51F8043BC3
:100F300040F8043B51F8043B40F8043B51F8043BB3
:100F400040F8043B51F8043B40F8043B51F8043BA3
:100F500040F8043B51F8043B40F8043B51F8043B93
:100F600040F8043B51F8043B40F8043B51F8043B83
:100F700040F8043B51F8043B40F8043B51F8043B73
:100F800040F8043B51F8043B40F8043B403ABDD2E2
:100F9000303211D351F8043B40F8043B51F8043B84
:100FA00040F8043B51F8043B40F8043B51F8043B43
:100FB00040F8043B103AEDD20C3205D351F8043B13
:100FC00040F8043B043AF9D2043208D0D2071CBFDF
:100FD00011F8013B00F8013B01D30B880380604608
:100FE000704700BF082A13D38B078DD010F003037E
:100FF0008AD0C3F10403D21ADB071CBF11F8013BEE
:1010000000F8013B80D331F8023B20F8023B7BE73C
:10101000043AD9D3013A11F8013B00F8013BF9D267
:101020000B7803704B7843708B7883706046704701
:1010300000000000000000000000000000000000B0
:10104000A2EB0300704700BF02780B78012A28BF8B
:101050009A42F5D16DE9044540EA0104CDE9026701
:101060006FF0000C4FEA447212B380EA010414F0EE
:10107000070F6AD100F0070420F0070004F0030511
:1010800021F007014FEAC505F0E8042314F0040F2E
:10109000F1E804670CFA05F462EA040266EA040661
:1010A0000AD063EA0403624667EA0407664603E07F
:1010B000F0E80423F1E8046782FA4CF582EA0604BA
:1010C000A4FA8CF46CBB83FA4CF583EA0705A5FA05
:1010D0008CF595B950E9022351E9026782FA4CF583
:1010E00082EA0604A4FA8CF483FA4CF583EA070535
:1010F000A5FA8CF52543DBD09CB92DBAB5FA85F459
:1011000024F0070427FA04F1DDE9026723FA04F367
:1011100003F0FF0001F0FF01FDE80445A0EB010032
:10112000704724BAB4FA84F424F0070426FA04F1D0
:10113000DDE9026722FA04F202F0FF0001F0FF018C
:10114000FDE80445A0EB0100704714F0030F3CD10B
:1011500010F0030428D150F8082B51F8083B82FA0C
:101160004CF582EA0305A5FA8CF55DB950F8042C1C
:1011700051F8043C82FA4CF582EA0305A5FA8CF595
:10118000002DE8D02DBAB5FA85F424F0070423FA2F
:1011900004F122FA04F202F0FF0001F0FF01FDE881
:1011A0000445A0EB010070474FEAC40420F003009F
:1011B00050F8082B21F0030151F8083B0CFA04F415
:1011C00062EA040263EA0403C9E710F003041AD0D8
:1011D000A1EB040120F00300E40750F8042B06D033
:1011E0000FD28B785FFAA2F4E41A06D12BB1CB7838
:1011F0005FFAB2F4E41A00D11BB920465DF8104B37
:10120000704701F1040150F8042BCC0721F00301D1
:1012100051F8043B48D824D222F07F4482FA4CF59E
:1012200094EA1325A5FA8CF50AD165B951F8043B67
:1012300084EA0204B4EB036F0ED150F8042BEBE701
:101240004FEA132355E035F07F454DD10878FDE88E
:101250000445C0F1000070474FEA126203F0FF033B
:1012600047E002EA1C4482FA4CF594EA1345A5FAD9
:101270008CF50AD165B951F8043B84EA0204B4EB59
:10128000034F0CD150F8042BEBE74FEA134330E047
:1012900015EA1C4528D10B884FEA124229E04FEA93
:1012A000124203EA1C4324E002F0FF0482FA4CF5E8
:1012B00094EA1365A5FA8CF50AD165B951F8043B97
:1012C00084EA0204B4EB032F09D150F8042BEBE7B6
:1012D0004FEA13630DE015F0FF0F05D10B684FEADD
:1012E000122223F07F4304E04FF00000FDE80445A4
:1012F000704712BA1BBA82FA4CF482EA0304A4FAC9
:101300008CF5B5FA85F402FA04F203FA04F34FEA15
:101310001260FDE80445A0EB136070470000000078
:1013200000000000000000000000000000000000BD
:1013300000000000000000000000000000000000AD
:1013400090F800F06DE9024520F007016FF0000C05
:1013500010F0070491F820F040F049804FF00004AD
:101360006FF00700D1E9002391F840F000F1080088
:1013700082FA4CF2A4FA8CF283FA4CF3A2FA8CF3C0
:101380004BBBD1E9022382FA4CF200F10800A4FA27
:101390008CF283FA4CF3A2FA8CF3E3B9D1E904237B
:1013A00082FA4CF200F10800A4FA8CF283FA4CF3B2
:1013B000A2FA8CF37BB9D1E9062301F1200182FA6C
:1013C0004CF200F10800A4FA8CF283FA4CF3A2FA72
:1013D0008CF3002BC6D0002A04BF04301A4612BA80
:1013E000B2FA82F2FDE8024500EBD2007047D1E983
:1013F000002304F00305C4F100004FEAC50514F012
:10140000040F91F840F00CFA05F562EA05021CBFE2
:1014100063EA050362464FF00004A9E700000000FC
:1014200001F0FF01102A2BDB10F0070F08D010F895
:10143000013B013A8B422DD010F0070F42B3F6D199
:10144000F0B441EA012141EA014122F007047FF0B2
:1014500000070023F0E80256083C85EA010586EA09
:10146000010685FA47F5A3FA87F586FA47F6A5FA45
:1014700087F68EB9EED1F0BC01F0FF0102F0070251
:1014800032B110F8013B013A83EA010313B1F8D1FC
:101490000020704701387047002D06BF35460338DD
:1014A000073815F0010F07D1013015F4807F02BF16
:1014B000013015F4C03F0130F0BC0138704700BF67
:1014C0004FEA410C7FEA6C5C02D150EA013C0AD140
:1014D0004FEA430C7FEA6C5C02D152EA033C02D132
:1014E0004FF0000070474FF0010070474FEA410293
:1014F00012F5001215D211D56FF47873B3EB625266
:1015000012D94FEAC12343F0004343EA505311F08C
:10151000004F23FA02F018BF404270474FF000001E
:10152000704750EA013005D111F0004008BF6FF05C
:10153000004070474FF00000704700BF4FF0FF3091
:101540007047000070B504460D46164640F2FF7223
:10155000002104F0B3F8204603F0D8FD0A2120460C
:1015600003F0DCF970B9204603F06EFA03460A4A2C
:101570003146284619F096FF0546204603F098FEAE
:10158000284670BD204603F093FE044816F03CFA4E
:101590004FF0FF35F4E700BF8C35020890350208A4
:1015A00010B594B00C460023029301230193072346
:1015B0000093094B0A460146084818F06DFB224685
:1015C000074904A819F0B2FF04A818F0D5FB08B128
:1015D000044A426114B010BDA4350208B0350208B7
:1015E000B83502080000002408B502490248FFF798
:1015F000D7FF08BDC43502084C0C002408B50121F2
:101600000A480AF05CFE0A4B984206D016F080F9B0
:101610000FF042FA00F0C4FC08BD0022012103488B
:101620000AF048FEFEF781FEF0E700BFD410002468
:101630000155464408B500F0A3FD00F073F800F032
:101640008DFA00F0F7F9FFF7CFFF08BD08B5034AA0
:10165000012103480AF02EFE08BD00BF0155464493
:10166000D41000240020704700207047002A18BFC3
:1016700000280DD010B51446827962B10A78303A4C
:1016800018BF01228188006805F02BFD204610BD9F
:101690004FF0FF3070474FF0FF30F8E7002A18BFD7
:1016A000002802D14FF0FF30704710B50C468188FA
:1016B000006805F00FFD012803D0302323700120BE
:1016C00010BD3123FAE70000F0B595B007460E468D
:1016D00014461D46082002F03DFC01460760868046
:1016E0008571002302930123019305230093094B85
:1016F0002246094818F0D0FA2246084904A819F0F1
:1017000015FF04A818F038FB08B1054A426115B06E
:10171000F0BD00BFCC350208D8350208E435020818
:101720001000002408B50123054A80210548FFF771
:10173000CBFF0123044A80210448FFF7C5FF08BD01
:10174000F435020800140258F8350208001C02584B
:1017500030B585B00024009401940294039404F001
:101760001BF901258DF800508DF801404FF04043E2
:10177000019318238DF808308DF809408DF80A4040
:1017800003238DF80B308DF80C408DF80D408DF84B
:101790000E508DF80F40684604F01CF98DF801508A
:1017A0004FF01053019312238DF808308DF80F502D
:1017B000684604F00FF9042004F0FCF805B030BDD1
:1017C00000B59FB04C2200210BA819F043FD202248
:1017D000002103A819F03EFD022007F043FD00237D
:1017E0000093404BDA6A22F00102DA62DB6A03F00E
:1017F000010300933C4B9A6942F440429A619B6911
:1018000003F440430093009B374B9B6913F4005F44
:10181000FAD0364BD3F8F42042F00202C3F8F42099
:10182000D3F8F43003F002030193019B00230293E9
:101830002D4B9A6942F440429A619B6903F44043FC
:101840000293284BDA6A42F00102DA62DB6A03F0A3
:1018500001030293029B244B9B6913F4005FFAD0AF
:1018600007F0F8FC03F054F8204A136F23F0180334
:10187000136725230B934FF480330C9301230D93AF
:10188000119302231493159305221692C0221792E6
:101890001893042219921A9308231B9300231C9374
:1018A0001D930BA808F042F9B0B93F23039303231B
:1018B000049300230593082306934023079308937A
:1018C0004FF4806209920A93042103A808F082FD74
:1018D00028B91FB05DF804FB02F098FAE5E702F0C2
:1018E00095FAF6E7000400580048025800440258F0
:1018F00010B5B0B0C02422460021684619F0AAFCF9
:101900004FF400220023CDE9002305230293039422
:101910000C230493022305930693802307936846C0
:1019200009F01EF808B930B010BD02F06FFAFAE7FE
:1019300008B5FFF70DFFFFF743FFFFF7D9FF00F0F2
:10194000B9FE00F04BFD01F085FA00F06FFE00F0EB
:1019500071FD01F0C7FA00F0FDFF01F0F9FD02F0A2
:101960003FF801F071FD01F0B1FD0FF04BF800F010
:1019700085FC01F0F5F900F031FC01F0C3FF02F045
:1019800063F800F06BFF08BD012A10D930B583B0B1
:1019900014460A4612F8011B631E642500959BB28B
:1019A000490005F0BFFD28B9204603B030BD4FF017
:1019B000FF3070474FF0FF30F7E7012A10D930B5FC
:1019C00083B014460A4612F8011B631E6425009575
:1019D0009BB2490005F078FE28B9204603B030BD1F
:1019E0004FF0FF3070474FF0FF30F7E710B594B07D
:1019F0000C46002302930123019305230093094B16
:101A00000A460146084818F047F92246074904A843
:101A100019F08CFD04A818F0AFF908B1044A42612E
:101A200014B010BDFC350208043602080C3602085A
:101A30002000002408B502490248FFF7D7FF08BD7F
:101A4000183602082C0E00240AB9002070473023F3
:101A50000B70012070470000002A18BF00283DD0FD
:101A600010B5844614460020034605E003EB8303CB
:101A700002EB4303303B0130A04204D20A5C2F2A20
:101A800001D9392AF2D9642B00D96423DCF800206B
:101A90001168CA6A02FB0333124AA2FB03235B09E3
:101AA000DCF8042042B94B63DCF80410DCF80000D9
:101AB0000CF00CF9204610BD042A07D0082A07D0E4
:101AC0000C2A07D0102A07D0CB65EDE78B63EBE734
:101AD000CB63E9E70B64E7E78B65E5E74FF0FF30A1
:101AE000704700BF1F85EB512DE9F04194B00446CB
:101AF0000E4690461D4608F0D9FD4000002767605D
:101B0000B0FBF8F00138E0608023A36120460BF0C1
:101B10000DFF082002F01EFA01460460466002979D
:101B2000012301930097094B2A46094818F0B4F89D
:101B30002A46084904A819F0F9FC04A818F01CF971
:101B400008B1054A426114B0BDE8F081F0470208CF
:101B5000FC470208044802083C00002410B5074C6A
:101B6000074B322200212046FFF7BEFF054B3222F1
:101B700004212046FFF7B8FF10BD00BFC0110024AC
:101B8000104802081C48020803460138B3B182B06D
:101B90000EE0BDF806309BB201339BB2ADF80630C3
:101BA000BDF806309BB2072BF3D9034601381BB1B1
:101BB0000023ADF80630F3E702B07047704700002D
:101BC00000B587B000230193029303930493059318
:101BD0000123029303930823019301A9024805F00E
:101BE00069F907B05DF804FB0018025800B587B02A
:101BF0000023019302930393049305930823019315
:101C000001A9034805F056F907B05DF804FB00BFD1
:101C10000018025810B5114C01224FF48071204673
:101C200005F05FFA01224FF40061204605F059FAF1
:101C30001420FFF7A9FF00224FF48071204605F021
:101C400050FA1420FFF7A0FF00224FF40061204655
:101C500005F047FA1420FFF797FF10BD0020025847
:101C600010B5134C00224FF40061204605F039FAFC
:101C70001420FFF789FF00224FF48071204605F001
:101C800030FA1420FFF780FF01224FF40061204654
:101C900005F027FA1420FFF777FF01224FF4807137
:101CA000204605F01EFA1420FFF76EFF10BD00BF9E
:101CB0000020025810B5164C00224FF40061204657
:101CC00005F00FFA1420FFF75FFF00224FF4807138
:101CD000204605F006FA1420FFF756FF01224FF4C4
:101CE0000061204605F0FDF91420FFF74DFF0022AA
:101CF0004FF40061204605F0F4F901224FF48071A1
:101D0000204605F0EEF91420FFF73EFF10BD00BF9E
:101D10000020025810B5134C00224FF400612046F9
:101D200005F0DFF91420FFF72FFF01224FF4807137
:101D3000204605F0D6F91420FFF726FF01224FF4C4
:101D40000061204605F0CDF91420FFF71DFF0022A9
:101D50004FF40061204605F0C4F91420FFF714FF8A
:101D600010BD00BF0020025810B5174C01224FF4DF
:101D70008071204605F0B5F91420FFF705FF012218
:101D80004FF40061204605F0ACF91420FFF7FCFE8B
:101D90004FF48071204605F09DF950B100224FF4B8
:101DA0000061204605F09DF91420FFF7EDFE0020AC
:101DB00010BD00224FF40061034805F092F9142091
:101DC000FFF7E2FE0120F3E70020025870B5054658
:101DD00000241EE001224FF48071194805F081F9BA
:101DE0001420FFF7D1FE164E01224FF40061304659
:101DF00005F077F91420FFF7C7FE00224FF40061C9
:101E0000304605F06EF9072C0FD06D00EDB20134AD
:101E1000E4B2072C10D815F0800FDBD100224FF46C
:101E20008071074805F05DF9DAE701224FF480710F
:101E3000304605F056F9E8E7FFF796FF70BD00BFA2
:101E400000200258F8B5074600252C461EE0640025
:101E5000E4B2144E01224FF40061304605F041F91E
:101E60001420FFF791FE4FF48071304605F032F9EF
:101E700000F00100044300224FF40061304605F0F9
:101E800030F91420FFF780FE0135EDB2072DDED9C1
:101E9000012F03D0FFF73EFF2046F8BDFFF70AFFF2
:101EA000FAE700BF0020025810B5FFF789FE0022B4
:101EB0000821124805F015F9114C01221021204685
:101EC00005F00FF942F21070FFF75EFE00221021BC
:101ED000204605F006F90B48FFF756FE01221021B7
:101EE000204605F0FEF80848FFF74EFEFFF77EFE9D
:101EF00044F62060FFF748FE10BD00BF00180258EE
:101F0000001C0258F04902003057050070B5054624
:101F1000FFF780FEBA20FFF759FF012802D0012405
:101F2000204670BD0446280AFFF750FF06460128E8
:101F3000F6D1E8B2FFF74AFF012801D03446EFE7B7
:101F40000024EDE7F8B504460D461746FFF762FE9C
:101F50002046FFF7DBFF20B10126FFF781FE304668
:101F6000F8BD0646FFF756FEBB20FFF72FFF0128FE
:101F700011D00126F1E70020FFF764FF3855013446
:101F8000E4B2AC4209D26B1E9C42F4D00120FFF7B0
:101F900059FF3855F3E73446F3E7FFF761FEDCE716
:101FA00030B585B000248DF80340FFF77DFF164D56
:101FB00001224FF40061284605F093F801224FF406
:101FC0008071284605F08DF8224608210F4805F05B
:101FD00088F8012210210E4805F083F801AA0B2190
:101FE00048F24010FFF7AEFF0DF10302012148F265
:101FF0004700FFF7A7FF9DF80430392B02D00120DE
:1020000005B030BD2046FBE70020025800180258FA
:10201000001C02580020904222D230B4114BB3F879
:1020200000C01FFA8CFC104B1B889BB29C4515D03E
:102030000C4C23889BB20D4DEB5C0B5423889BB258
:102040000133D3F1000CDBB25FFA8CFC58BFCCF14A
:1020500000039BB2238001309042DFD330BC704735
:10206000704700BF480C0024400C0024400B0024A3
:1020700010B514464FF0FF3392B204480DF030F81B
:1020800008B9204610BD4FF0FF30FBE7FC120024DA
:1020900008B505480BF06EFF252003F06BFC00200F
:1020A000024B186008BD00BFFC120024440C002441
:1020B00008B500230A4A13800A4A13800A4B1B689A
:1020C0000BB1002008BD252003F046FC0122074982
:1020D00007480DF0A3F9044B01221A60F1E700BF95
:1020E000480C0024400C0024440C00243C0B002429
:1020F000FC12002408B502480BF0BEFF08BD00BF6B
:10210000FC12002408B50268174B9A4200D008BDA3
:10211000816D0029FBD0154A13889BB208781449B9
:10212000C85413889BB201335942DBB2C9B258BFBD
:102130004B429BB21380128892B20E4B1B889BB20B
:102140009A4205D001220C490C480DF067F9DEE7F0
:1021500008490B889BB201335A42DBB2D2B258BF56
:1021600053429BB20B80EDE700100140400C00246D
:10217000400B0024480C00243D0B0024FC120024DA
:1021800010B594B00023029301230193052300931B
:102190000C4B0D4A0D490E4817F07EFD0DF1100C49
:1021A0000C4C0FCCACE80F0023682CF8023B1B0C46
:1021B0008CF8003004A817F0DFFD08B1064A426130
:1021C00014B010BD2848020854480208FC1200242C
:1021D0003C480208484802084C00002400B58BB077
:1021E00000230793089309930093019302930393A9
:1021F0000493059306931E481E4A02604360836061
:10220000C360042202610375437501228261037772
:1022100043628362C3620363436380F8383003F030
:102220001BF9E0B90023079307A9114803F09AFAB4
:10223000C0B9114B0093062301930023029340F28F
:10224000FF7203920422049205938DF819306946B7
:10225000074802F0FDFB40B90BB05DF804FB01F04C
:10226000D5FDDFE701F0D2FDE3E701F0CFFDF3E7B5
:102270004C0C0024002002401000C01000B589B0B2
:10228000002301930293039304930593069307930A
:1022900019481A4A02608360C36004220261037510
:1022A000437501228261037743628362C3620363E1
:1022B000436380F8383003F0CFF8B0B9104B019386
:1022C000062302930723039340F2FF73049304232E
:1022D0000593002306938DF81D3001A9064802F0EE
:1022E000B7FB28B909B05DF804FB01F08FFDE5E705
:1022F00001F08CFDF6E700BFB00C0024006002582E
:10230000000084CB10B588B0002303930493059399
:102310000693079303682B4A934204D02A4A9342B8
:1023200041D008B010BD0446284BD3F8D82042F065
:102330002002C3F8D820D3F8D82002F0200200925F
:10234000009AD3F8E02042F00402C3F8E020D3F86A
:10235000E03003F004030193019B10230393032354
:10236000049303A91A4804F0A5FD1A481A4B036008
:102370000923436000238360C3604FF480620261DD
:102380004FF4006242614FF400528261C361036204
:10239000436203F085FC18B90E4BE3649C63C0E70D
:1023A00001F034FDF8E7094BD3F8E02042F08072E9
:1023B000C3F8E020D3F8E03003F080730293029B6F
:1023C000AFE700BF002002400060025800440258FE
:1023D00000080258140D00242800024000B583B004
:1023E000134BD3F8D82042F00102C3F8D820D3F819
:1023F000D83003F001030193019B002205210B203B
:1024000003F074FA0B2003F0A7FA002205210C2038
:1024100003F06CFA0C2003F09FFA002205210D2036
:1024200003F064FA0D2003F097FA03B05DF804FBA3
:102430000044025808B50F480F4B03600023436067
:1024400002228260C36043648264C364036543659F
:102450008365C36504F06AFC28B90121054804F0CE
:10246000A7FC18B908BD01F0D1FCF6E701F0CEFCDD
:10247000F8E700BF8C0D00240010005202680A4BE0
:102480009A4200D0704782B0084BD3F8D42042F073
:102490001002C3F8D420D3F8D43003F01003019312
:1024A000019B02B0704700BF001000520044025868
:1024B000F0B5B9B000233393349335933693379303
:1024C000304B1B680BB139B0F0BD2E4B01221A60A6
:1024D000C022002102A818F0BDFE4FF08072002338
:1024E000CDE9022302A808F03BFA002847D1264B89
:1024F000D3F8D42042F48052C3F8D420D3F8D43097
:1025000003F480530193019B4FF63F03339302275B
:10251000349700263596032536950C24379433A935
:102520001A4804F0C7FC2C2333933497359636951C
:10253000379433A9164804F0BDFC48F2371333939F
:10254000349735963695379433A9124804F0B2FC87
:102550004FF683733393349735963695379433A972
:102560000D4804F0A7FC4CF203733393349735966F
:102570003695379433A9094804F09CFCA3E701F091
:1025800045FCB4E7F40D002400440258001402583E
:10259000001C02580018025800100258000C025883
:1025A000F0B587B004460023059301220192102163
:1025B0000291039204934FF4805201A90AF036FE6F
:1025C00020460AF06DFE0128FAD10223019310255E
:1025D000029501260396002704974FF4805201A923
:1025E00020460AF023FE0323019302950823039358
:1025F00004974FF4805201A920460AF017FE40F2DA
:10260000312305930423019302950396059B0493BC
:102610004FF4805201A920460AF008FE40F296319C
:1026200020460AF024FE07B0F0BD000000B589B0D6
:102630000023019302930393049305930693079356
:102640001848194A02604360012282600822C26071
:1026500010220261402242614FF4C0728261C36164
:102660004FF4006303624FF4805343624FF400530E
:1026700083620223019307220292042103910492B0
:10268000032205920693079369440AF0A7FD28B92F
:102690000448FFF785FF09B05DF804FB01F0B6FBC5
:1026A000F6E700BFF80D00244041005208B5FFF7DF
:1026B000FFFE08BD2DE9F0418EB0002409940A9474
:1026C0000B940C940D945F4BD3F8E02042F0100271
:1026D000C3F8E020D3F8E02002F010020092009A44
:1026E000D3F8E02042F48072C3F8E020D3F8E02071
:1026F00002F480720192019AD3F8E02042F00402C1
:10270000C3F8E020D3F8E02002F004020292029A1B
:10271000D3F8E02042F02002C3F8E020D3F8E02014
:1027200002F020020392039AD3F8E02042F08002E4
:10273000C3F8E020D3F8E02002F080020492049A6B
:10274000D3F8E02042F00102C3F8E020D3F8E02003
:1027500002F001020592059AD3F8E02042F002024D
:10276000C3F8E020D3F8E02002F002020692069AB5
:10277000D3F8E02042F04002C3F8E020D3F8E02094
:1027800002F040020792079AD3F8E02042F00802D4
:10279000C3F8E020D3F8E03003F008030893089B67
:1027A000294D22464FF41061284604F09AFCDFF8C8
:1027B000A88022468021404604F093FC234E01224B
:1027C0001021304604F08DFC2246C021304604F032
:1027D00088FC1F4F01220821384604F082FC4FF488
:1027E0001063099311230A930B940C9409A92846AA
:1027F00004F060FB8023099301250A950B940C9447
:1028000009A9404604F056FBD02309930A950B947E
:102810000C9409A9304604F04DFB4FF48053099302
:102820000A940B9409A90B4804F044FB082309936C
:102830000A950B940C9409A9384604F03BFB0EB0A2
:10284000BDE8F0810044025800200258001C0258E4
:1028500000180258000402580014025808B5154820
:10286000154B0360A3F17863A3F57D23A3F64F63B3
:102870004360002383600122C2600361436183617E
:10288000C361036204F0EAFD50B90021094804F075
:10289000D9FF40B90021074805F002F830B908BD5A
:1028A00001F0B4FAF1E701F0B1FAF3E701F0AEFAA2
:1028B000F5E700BF2C0E00240054004010B5B8B05E
:1028C0000446002133913491359136913791C022DD
:1028D00002A818F0BFFC22681B4B9A4201D038B006
:1028E00010BD08220023CDE9022302A808F038F821
:1028F00038BB164CD4F8E03043F00203C4F8E030A3
:10290000D4F8E03003F002030093009B4FF4C0734F
:102910003393122334930023359336930423379350
:1029200033A90B4804F0C6FAD4F8E83043F4001396
:10293000C4F8E830D4F8E83003F400130193019BA5
:10294000CDE701F063FAD4E7005400400044025898
:102950000004025808B50548054B036005F082FAEB
:1029600000B908BD01F052FAFBE700BF800E002459
:102970000030005202680A4B9A4200D0704782B081
:10298000084BD3F8D42042F02002C3F8D420D3F867
:10299000D43003F020030193019B02B0704700BFC5
:1029A00000300052004402582DE9F041BEB0044608
:1029B000002139913A913B913C913D91C02208A868
:1029C00018F048FC2268714B9A4202D03EB0BDE834
:1029D000F0814FF000520023CDE908231923129310
:1029E000C82313930223149315931423169308A852
:1029F00007F0B6FF002840F0C580654BD3F8E4200F
:102A000042F00802C3F8E420D3F8E42002F0080200
:102A10000092009AD3F8E02042F01002C3F8E020C0
:102A2000D3F8E02002F010020192019AD3F8E020DE
:102A300042F48072C3F8E020D3F8E02002F4807200
:102A40000292029AD3F8E02042F02002C3F8E0207C
:102A5000D3F8E02002F020020392039AD3F8E0209A
:102A600042F00102C3F8E020D3F8E02002F00102B6
:102A70000492049AD3F8E02042F08002C3F8E020E8
:102A8000D3F8E02002F080020592059AD3F8E02006
:102A900042F04002C3F8E020D3F8E02002F0400208
:102AA0000692069AD3F8E02042F00802C3F8E0202C
:102AB000D3F8E03003F008030793079B60233993B2
:102AC00002253A9500243B943C940E263D9639A964
:102AD000304804F0EFF940F2F76339933A953B94AC
:102AE0003C943D9639A92C4804F0E4F94FF48063F6
:102AF00039933A953B943C943D9639A9274804F084
:102B0000D9F9042339933A953B943C943D96DFF8E8
:102B10009C8039A9404604F0CDF94FF47F433993A6
:102B20003A953B943C943D961D4F39A9384604F0A4
:102B3000C1F947F2C00339933A953B943C943D96D2
:102B400039A9184804F0B6F94FF4807339933A95CF
:102B50003B943C940D233D9339A9404604F0AAF9D7
:102B60004FF04008CDF8E4803A953B943C943D9674
:102B700039A90D4804F09EF922464146384604F032
:102B8000B0FA23E701F042F937E700BF0010005028
:102B90000044025800100258002002580014025845
:102BA000001C025800180258000C0258000002587D
:102BB000044B4FF04042DA6002229A609A7400227D
:102BC0001A747047D80E0024214B9B68022B06D044
:102BD000032B13D0042B28D01D4B18607047C0F373
:102BE0000F2303F47843C0F34F1202F4FC62C0F3E6
:102BF000C40013430343164A1360704710F07F4F1D
:102C000010D10022C0F34F2101F4F841C0F38F131B
:102C100003F47873C0F3C4000A43134303430C4A1C
:102C2000136070474FF40042ECE70A4A02EA104290
:102C3000C0F30F3101F47061C0F30F2303F0F00310
:102C4000C0F303100A4313430343014A1360704760
:102C5000D80E002400F0FFFF214B9B68022B06D00A
:102C6000032B13D0042B28D01D4B58607047C0F3A2
:102C70000F2303F47843C0F34F1202F4FC62C0F355
:102C8000C40013430343164A5360704710F07F4F4C
:102C900010D10022C0F34F2101F4F841C0F38F138B
:102CA00003F47873C0F3C4000A43134303430C4A8C
:102CB000536070474FF40042ECE70A4A02EA1042C0
:102CC000C0F30F3101F47061C0F30F2303F0F00380
:102CD000C0F303100A4313430343014A5360704790
:102CE000D80E002400F0FFFF014B1860704700BFB2
:102CF000EC0E0024014B5874704700BFD80E00241E
:102D0000104B1A6822F001021A604FF440321A6028
:102D10000D4A9168596300211964D168D9630B4940
:102D2000596452689A630A4B9B6C012BFBD1054A8C
:102D3000136843F001031360024B1B6813F0010F8B
:102D4000FAD1704700100052D80E00241001E001A3
:102D500000100050014BD874704700BFD80E0024FB
:102D600000B58FB03422002101A818F073FA35485D
:102D7000354B0360002343608360C360036143619C
:102D800083612B22C2610C22026240F20B2242625A
:102D90004FF48E72826240F21322C2624FF492723A
:102DA000026380F8343080F8353080F8363005F032
:102DB00085F9002840D1002201924FF4F07302936C
:102DC00003924FF48873049302230593FF23069321
:102DD00007924FF480630893052309934FF0404313
:102DE0000A930B920C928DF834208DF835208DF8D3
:102DF000362001A9134805F0DBF900BB0020FFF7DE
:102E000079FF1248FFF770FF0120FFF7A3FF0020B2
:102E1000FFF7CEFE4FF07F40FFF71EFF4FF0FF3071
:102E2000FFF7D2FEFFF76CFF01224021084804F0B3
:102E300058F90FB05DF804FB00F0E8FFBBE700F0C5
:102E4000E5FFDBE7F00E0024001000503000002406
:102E5000001C025800B583B01F4BD3F8D42042F0B9
:102E60000102C3F8D420D3F8D43003F00103019356
:102E7000019B1A481A4B03601D23436000238360A3
:102E8000C36003610222426108228261C36103625E
:102E90004FF00072426201228262C36203634363A5
:102EA000836305F015FA80B9002211460B4805F03E
:102EB0003FFA68B9002205217A2002F017FD7A2036
:102EC00002F04AFD03B05DF804FB00F09FFFEBE762
:102ED00000F09CFFEEE700BF00440258980F00246A
:102EE000C000005208B50B480B4B03600122426042
:102EF000202383601023C3601623036100234361F2
:102F00008261C361036206F0BDFD00B908BD00F037
:102F10007DFFFBE774100024005000522DE9F043C0
:102F2000BBB00446002135913691379138913991E3
:102F3000C02204A818F08EF92268564B9A4202D09B
:102F40003BB0BDE8F0834FF000720023CDE90423CD
:102F500004A807F005FD002840F092804E4BD3F8FE
:102F6000D42042F48042C3F8D420D3F8D42002F411
:102F700080420092009AD3F8E02042F01002C3F899
:102F8000E020D3F8E02002F010020192019AD3F879
:102F9000E02042F00202C3F8E020D3F8E02002F083
:102FA00002020292029AD3F8E02042F00802C3F82B
:102FB000E020D3F8E03003F008030393039B4FF0C5
:102FC0000409CDF8D49002263696002537950327BC
:102FD00038974FF00908CDF8E48035A92F4803F061
:102FE00069FFCDF8D490369637953897CDF8E480C0
:102FF000DFF8B89035A9484603F05CFF4FF4605302
:103000003593369637953897CDF8E48035A924481E
:1030100003F050FF402335933696379538970A23AF
:10302000399335A9484603F045FF1E481E4B0360FF
:10303000162343608560C023C360056146618561D6
:10304000C56105624FF00073436280238362C562ED
:1030500005634563856305F03BF9A0B9002211467D
:10306000104805F065F988B90E4BE3631C64002233
:103070000E215C2002F03AFC5C2002F06DFC5FE760
:1030800000F0C4FE6AE700F0C1FEE7E700F0BEFE14
:10309000EAE700BF005000520044025800100258F6
:1030A000000C02580810002480000052000402584E
:1030B00000B595B04FF480730C9300230D930E93DD
:1030C0001193129313934FF080720F920B9305227A
:1030D000069200930493102302934FF48003059308
:1030E00001230393019341F288336A4606A90548F8
:1030F00006F026FB10B915B05DF804FB6FF0020076
:10310000F9E700BF7410002400B58FB04FF480734E
:1031100006930023079308930B930C930D93099345
:1031200005936623009341F288326946104806F001
:10313000E0F988B9FFF7BCFF88B99923009341F201
:10314000883269460A4806F0D4F958B9FFF7B0FF4B
:1031500058B90FB05DF804FB4FF0FF30F9E76FF09E
:103160000200F6E74FF0FF30F3E76FF00200F0E700
:103170007410002400B591B04FF4807308934FF49D
:103180000053059300230A930D930E930F93099315
:103190004FF080720B92079303230C939F230293AB
:1031A00041F2883202A90F4806F0A3F998B941F21A
:1031B000883201A90B4806F054FA78B99DF804301A
:1031C0009DF80500000240EA03409DF806301843D0
:1031D00011B05DF804FB4FF0FF30F9E76FF0040029
:1031E000F6E700BF7410002408B5FFF78DFFFFF766
:1031F000C1FF044B984201D1002008BD4FF0FF30C1
:10320000FBE700BF1740EF0000B595B04FF48073A7
:103210000C9300230D930E931193129313930F931A
:103220000B930623069341F2883206A9134806F051
:1032300060F9E0B902230093019300230493012372
:103240000393102202924FF4800205920522069207
:103250004FF080720F92109341F288336A4606A9AC
:10326000064806F06DFA28B915B05DF804FB6FF05A
:103270000100F9E76FF00200F6E700BF74100024C8
:1032800010B594B04FF480730C934FF4005309932E
:1032900000230E931193129313930D930F930B939B
:1032A000C7230693FFF7B0FF10BB044641F28832F4
:1032B00006A9144806F01DF9E8B900230093049309
:1032C000102302934FF4800305930123039301938A
:1032D000052206924FF080720F9210930A4B6A46B5
:1032E00006A9084806F02CFA40B9204614B010BDD3
:1032F0006FF00104F9E76FF00304F6E76FF00204E2
:10330000F3E700BF74100024A086010010B58EB052
:1033100004464FF4807306934FF400530393002345
:1033200008930B930C930D934FF4806007904FF02C
:103330004070099005930A92019132230093FFF7A0
:1033400063FF90B941F2883269460E4806F0D1F821
:1033500070B941F2883221460A4806F019F950B98D
:10336000FFF7A6FE50B90EB010BD6FF00100FAE7EE
:103370006FF00400F7E76FF00400F4E76FF002006D
:10338000F1E700BF74100024F8B506460C4601F0C2
:103390007F05C5F18005954200D91546A71802E0C2
:1033A0008025A74210D9AAB221463046FFF7AEFFCA
:1033B000024638B92C442E4404F18003BB42EFD9B5
:1033C0003D1BEEE76FF004021046F8BD10B58EB05D
:1033D00004464FF4807306934FF400530393002385
:1033E00008930B930C930D934FF4406307934FF0A6
:1033F00040730993062305930A920191EB230093EE
:1034000041F2883269460C4806F073F858B941F227
:1034100088322146084806F024F938B9FFF748FEFB
:1034200038B90EB010BD6FF00400FAE76FF0040079
:10343000F7E76FF00200F4E774100024014B01225B
:103440001A7070470410002408B50648064B036044
:103450000023436008F038FE00B908BD00F0D6FC38
:10346000FBE700BFC01000240018024810B5B2B03E
:103470000446C022002102A817F0ECFE2268114B7E
:103480009A4201D032B010BD4FF400320023CDE992
:1034900002234FF48073229302A807F061FA68B9FF
:1034A000094BD3F8DC2042F04002C3F8DC20D3F80B
:1034B000DC3003F040030193019BE3E700F0A6FC3E
:1034C000EEE700BF001802480044025808B50A4859
:1034D0000A4B0360002343607F228260FF22C260A8
:1034E00003618361C361436108F092FE00B908BDC6
:1034F00000F08CFCFBE700BFD41000240040005813
:1035000010B5B0B00446C0220021684617F0A2FEF4
:1035100022680D4B9A4201D030B010BD4FF48002AA
:103520000023CDE900234FF480732D93684607F004
:1035300017FA28B9054A136F43F400431367EBE702
:1035400000F064FCF6E700BF004000580044025859
:1035500008B50748074B03600023436083604FF4BE
:103560008042C26003610623436109F0C0FC08BDCC
:10357000F810002400700052F0B5BBB004460021E2
:1035800035913691379138913991C02204A817F0BE
:1035900061FE22682C4B9A4201D03BB0F0BD4FF443
:1035A00080320023CDE9042304A807F0D9F90028CC
:1035B00046D1264BD3F8D42042F48032C3F8D4202D
:1035C000D3F8D42002F480320192019AD3F8E0209B
:1035D00042F00402C3F8E020D3F8E02002F0040235
:1035E0000292029AD3F8E02042F00802C3F8E020E9
:1035F000D3F8E03003F008030393039B4FF4F85330
:1036000035930227369701263796032538950C24E3
:10361000399435A90E4803F04DFC042335933697B1
:1036200037963895399435A90A4803F043FC0022AF
:103630000E21312002F05AF9312002F08DF9ACE769
:1036400000F0E4FBB5E700BF0070005200440258F0
:1036500000080258000C025800B583B00A4BD3F89A
:10366000F42042F00202C3F8F420D3F8F43003F05F
:1036700002030193019B00220F216FF0010002F071
:1036800035F903B05DF804FB004402580F2801D956
:103690000120704710B58AB0044600220146192067
:1036A00002F024F9192002F057F9174B1C60174B50
:1036B000D3F8F02042F00102C3F8F020D3F8F03044
:1036C00003F001030093009B01A902A807F012F880
:1036D00006F0FEFF43000E48A0FB03239B0C013BBA
:1036E0000C480D4A026040F2E732C260436000239A
:1036F000036183600AF0EAF810B101200AB010BD3E
:10370000044809F04FFFF9E768000024004402581C
:1037100083DE1B437411002400000140FEE7FEE736
:10372000FEE7FEE7FEE7704708B5024802F062FFD9
:1037300008BD00BF0C12002408B5024802F05AFF71
:1037400008BD00BF140D002408B5024802F052FF66
:1037500008BD00BF8412002408B5024809F06FFFBD
:1037600008BD00BF7411002408B5024809F020FC10
:1037700008BD00BFF810002408B5024806F060F844
:1037800008BD00BF7410002408B5024805F023FAF4
:1037900008BD00BFB8B9002408B5034804F012FE04
:1037A000024804F00FFE08BD08100024980F002402
:1037B000274AD2F8883043F47003C2F88830254B8A
:1037C0001B6803F00F03062B06D8224A136823F068
:1037D0000F0343F0070313601F4B1A6842F0010206
:1037E0001A6000221A6119681C4A0A401A60194BB3
:1037F0001B6813F0080F06D0164A136823F00F0356
:1038000043F007031360144B00229A61DA611A62D5
:10381000134999621349D962134919635A63996329
:10382000DA6319645A64196821F4802119601A66F0
:103830000E4B1A680E4B1340B3F1005F03D20D4BD1
:103840000122C3F808210C4B43F2D2021A607047E0
:1038500000ED00E000200052004402587FEDF6EA3F
:10386000000202020000FF01800201010010005C62
:103870000000FFFF00800051004000520368B3F1D8
:10388000804F00D0704782B0074BD3F8E82042F059
:103890000102C3F8E820D3F8E83003F001030193F4
:1038A000019B02B0704700BF0044025800B587B0CA
:1038B0000023019302930393049305930368B3F1E8
:1038C000804F02D007B05DF804FB0C4BD3F8E0202A
:1038D00042F00102C3F8E020D3F8E03003F0010326
:1038E0000093009B0323019302230293012305937A
:1038F00001A9034803F0DEFAE4E700BF00440258E0
:103900000000025800B58FB000230A930B930C936C
:103910000D930793089309930093019302930393E4
:1039200004930593069325484FF08042026043605C
:1039300083604FF0FF32C2600361836109F0C6FF0C
:1039400050BB4FF480530A930AA91C480AF012F99D
:1039500028BB1A4809F0EAFF20BB0023079309930C
:1039600007A916480AF066FAF8B960230093002206
:10397000019202920492694610480AF051F8B8B9CF
:10398000042269460D480AF04BF8A0B90B48FFF72E
:103990008DFF0FB05DF804FB00F038FAD1E700F0BE
:1039A00035FAD6E700F032FAD7E700F02FFADCE775
:1039B00000F02CFAE4E700F029FAE7E7C011002450
:1039C00000B583B001904FF6FF73012201A90348AF
:1039D0000BF086FB019803B05DF804FBFC12002499
:1039E00008B51748174B03604FF4E13343600023D9
:1039F0008360C36003610C2242618361C36103621F
:103A0000436283620BF039FC70B900210C480BF063
:103A100073FD60B900210A480BF093FD50B90848C6
:103A20000BF04BFD48B908BD00F0F0F9EDE700F0F0
:103A3000EDF9EFE700F0EAF9F1E700F0E7F9F2E776
:103A4000FC1200240010014008B51748174B036012
:103A50004FF4E133436000238360C36003610C22B1
:103A600042618361C3610362436283620BF005FCC0
:103A700070B900210C480BF03FFD60B900210A48E5
:103A80000BF05FFD50B908480BF017FD48B908BDB1
:103A900000F0BCF9EDE700F0B9F9EFE700F0B6F996
:103AA000F1E700F0B3F9F2E790130024004400407E
:103AB000F0B5BDB0044600213791389139913A9163
:103AC0003B91C02206A817F0C5FB23685B4A9342CE
:103AD00004D05B4A93424ED03DB0F0BD012200239A
:103AE000CDE9062306A806F03BFF00283DD1554B43
:103AF000D3F8F02042F01002C3F8F020D3F8F02001
:103B000002F010020192019AD3F8E02042F0010283
:103B1000C3F8E020D3F8E03003F001030293029BE6
:103B20004FF4C063379302233893002539953A95B3
:103B300007233B9337A9444803F0BCF94348444B5F
:103B40000360292343608560C5604FF4806303618F
:103B500045618561C5610562456202F0A1F838B929
:103B60003A4BC4F880309C63B6E700F04FF9BEE7EB
:103B700000F04CF9F4E702220023CDE9062306A861
:103B800006F0EEFE002852D12E4BD3F8E82042F486
:103B90000032C3F8E820D3F8E82002F400320392A0
:103BA000039AD3F8E02042F00102C3F8E020D3F8F2
:103BB000E02002F001020492049AD3F8E02042F0DF
:103BC0000802C3F8E020D3F8E03003F008030593BF
:103BD000059B0823379302273897002539953A9596
:103BE00007263B9637A9184803F064F9202337933A
:103BF000389739953A953B9637A9164803F05AF904
:103C00001548164B03602B2343608560C5604FF455
:103C10008063036145618561C5610562456202F0AB
:103C20003FF838B90C4BC4F880309C6354E700F07F
:103C3000EDF8A9E700F0EAF8F4E700BF0010014052
:103C40000044004000440258000002580C120024B6
:103C500010000240000C0258841200244000024070
:103C6000DFF834D0FFF7A4FD0C480D490D4A0023BE
:103C700002E0D458C4500433C4188C42F9D30A4A21
:103C80000A4C002301E013600432A242FBD317F078
:103C9000BDFA00F05BF87047000008240000002423
:103CA000100B002478650208200B00243CC500247A
:103CB000FEE708B5FDF7A2FC08BD0000074AD2F8F0
:103CC000FC3043F08073C2F8FC30054B00225A6090
:103CD0001A6842F001021A60704700BF00ED00E070
:103CE000001000E0014B5868704700BF001000E072
:103CF00070470000034B0360034B0B60802313608D
:103D0000704700BF281600242414002410B588B082
:103D10000DF1040C0B4C0FCCACE80F0094E807003D
:103D20008CE80700002101A812F005F8064B186086
:103D300000F0F6F814F06AF9FDF77CFC14F00EFBC5
:103D400008B010BDF0340208B01A002408B5284BA2
:103D50005B6913F4003F13D1BFF34F8FBFF36F8F35
:103D6000234B0022C3F85022BFF34F8FBFF36F8F56
:103D70005A6942F400325A61BFF34F8FBFF36F8F1D
:103D80001B4B5B6913F4803F27D1194B0022C3F80A
:103D90008420BFF34F8FD3F88040C4F34E3000E04F
:103DA0001846C4F3C90243F6E07303EA401343EA3A
:103DB00082730F49C1F860321346013A002BF2D1E9
:103DC000431E0028ECD1BFF34F8F4B6943F480337F
:103DD0004B61BFF34F8FBFF36F8F00F045FDFDF7D1
:103DE000A7FDFFF766FFFFF791FF11F08CFFFEE7DD
:103DF00000ED00E008B50268034B9A4200D008BD10
:103E000000F060FDFBE700BF0000014072B6FEE776
:103E10000120704708B517F0DFF9162303604FF053
:103E2000FF3008BD08B54FF0FF31FFF7F3FFFEE7A5
:103E300070B50C461646002506E0AFF3008021461B
:103E400001F8010B01350C46B542F6DB304670BD7A
:103E500070B50C461646002504E014F8010BFFF778
:103E6000AFFD0135B542F8DB304670BD4FF0FF3095
:103E700070474FF400534B6000207047012070479B
:103E80000020704710B503460C4A0D490D480068E4
:103E900040B10C4800680344521A934206D8094ABC
:103EA000136010BD0748084C0460F2E717F094F95E
:103EB0000C2303604FF0FF30F3E700BF000008243D
:103EC00000400000B41A002440C50024002304E090
:103ED00011F803C000F803C001339342F8DB7047C8
:103EE000002393420EDA00B510F803E011F803C086
:103EF000E64505D101339342F6DB01205DF804FB72
:103F00000020FBE701207047002304E003F140425A
:103F1000002111700133B3F1007FF7D37047000027
:103F200008B5FFF7F1FF4FF46001064800F0BBFB56
:103F3000054B18604FF42001044800F0B4FB044B1B
:103F4000186008BD000080C0B81A0024000060C1DD
:103F5000BC1A002408B50146024B186800F0B2FBF9
:103F600008BD00BFB81A002408B50146024B186806
:103F700000F0BAFB08BD00BFB81A0024406820F06A
:103F800003007047436803F003030B43436070472B
:103F900008B5FFF7F3FFB0FA80F0400908BD4068AC
:103FA00000F001007047436843F00103436070472D
:103FB000436823F0010343607047406800F002004B
:103FC0007047436843F0020343607047436823F03F
:103FD0000203436070470838704708307047084450
:103FE00070470068704710B50C46FFF7C7FF1034E4
:103FF000A04234BF0020012010BD01468060C06097
:104000000020086109E002EB40131C3301EB83033D
:10401000596001321F2AF6DD0130172805DC031D27
:1040200001EB830300225A60F4E7704738B5044679
:10403000FFF7D3FF05462046FFF7A0FF011F2846E4
:10404000FFF7CDFF05462046FFF7A2FF08B9284637
:1040500038BD034B034ABE21034817F099F800BF4F
:10406000744802084C4D02088C48020810B50446FA
:10407000FFF7DCFF046010BD10B50446FFF7F6FF44
:10408000FFF79FFF2046FFF78EFF10BD10B50446D7
:10409000FFF7CCFFFFF79AFF2046FFF789FF10BD1F
:1040A00008B54B1E0B4202D14942084008BD034BE4
:1040B000034ADC21034817F06BF800BFB048020840
:1040C000404D02088C48020808B5084401384B42AC
:1040D00018404B1E0B4200D108BD034B034AE3219D
:1040E000034817F055F800BFB0480208204D0208F9
:1040F0008C4802082DE9F04116461F4603EB421298
:104100001C3200EB820253681BB304460D4639B3E0
:104110008B60C860D9600846FFF75FFF80460421C6
:10412000FFF7D2FF804522D107EB46131C3304EB87
:1041300083035D60012303FA06F122690A432261C9
:10414000BB40043604EB860467683B436360BDE80C
:10415000F0810A4B0A4A4FF4A4710A4817F018F884
:10416000094B074A40F24911064817F011F8074B6E
:10417000034A4FF4A771034817F00AF8F048020801
:104180002C4D02088C480208204902085C490208AC
:1041900038B5CD688C686DB19CB1E560AC6003EB5F
:1041A000421C0CF11C0C00EB8C0CDCF804508D4212
:1041B0000ED038BD124B134A40F23111124816F09E
:1041C000E7FF124B0F4A4FF499710F4816F0E0FFCA
:1041D000CCF80440A042ECD101249C40111D00EB1E
:1041E00081014B6823EA04034B60002BE1D10123DA
:1041F00003FA02F2036923EA02030361D9E700BF6D
:10420000C04902080C4D02088C480208EC4902081B
:1042100008B54B1E0B4204D10844013849420840FE
:1042200008BD034B034AD721034816F0B1FF00BF76
:10423000B0480208004D02088C48020808B5421E2A
:104240006FF040439A4201D3002008BDFFF7E0FF22
:104250000C2838BF0C20F8E72DE9F84307460D4637
:10426000FFF7BBFE291FFFF7BAFE04463846FFF7EB
:1042700085FE0646A0EB05082046FFF7AEFE814608
:104280000421FFF721FF814519D1A8F1040805EBAE
:10429000080304339E4219D141462046FFF772FEBF
:1042A0002046FFF76BFE0B2817D929463846FFF743
:1042B00069FE2046FFF7E0FE2046BDE8F8830A4B82
:1042C0000A4A40F273110A4816F062FF094B074A86
:1042D0004FF4BB71064816F05BFF074B034A4FF4DF
:1042E000BC71034816F054FF184A02089C4D02089E
:1042F0008C4802088C4A0208CC4A020838B50446A9
:104300000D46FFF745FE58B92846FFF737FE043043
:104310006368034463602046FFF7A8FE204638BD6B
:10432000034B044A4FF4C171034816F031FF00BF3C
:10433000184B02086C4D02088C48020828B1B0FAEC
:1043400080F0C0F12000013870470020FBE770B515
:1043500004460D4616467F2808D8002804DB841042
:1043600000202860346070BD0330F8E7FFF7E6FFF7
:10437000431FDC4084F020040638F2E730B583B0F8
:1043800005460C460846FFF7F9FD6A4601A9FFF706
:10439000DEFF009B019A21462846FFF7ABFE03B0E3
:1043A00030BD000070B506460C4615460846FFF7BE
:1043B000F6FD28B129462046FFF715FE38B970BD35
:1043C0000B4B0C4A4FF4D3710B4816F0E1FE294613
:1043D0002046FFF741FF05462046FFF747FE2846E7
:1043E000FFF7EFFD29463046FFF7C8FFE7E700BFBC
:1043F000504B0208A84D02088C48020810B50C4624
:1044000041B1FFF7CFFF2046FFF740FE2046FFF700
:10441000E4FD10BD0846FCE730B583B005460C4608
:104420000846FFF7ABFD6A4601A9FFF790FF009B26
:10443000019A21462846FFF7ABFE03B030BD0000CD
:1044400070B505460C460846FFF7B7FD80B120461B
:10445000FFF7C7FD064668B1FFF7A1FD88B13146F9
:104460002846FFF7D9FF21463046FFF747FF0446AD
:10447000204670BD064B074A40F28D11064816F0E3
:1044800087FE064B034A4FF4C771034816F080FEBF
:10449000804B02087C4D02088C480208AC4B020895
:1044A00070B505460C460846FFF7C0FD90B10646BC
:1044B000FFF775FD60B12046FFF76AFD88B9314608
:1044C0002846FFF7A9FF31462046FFF717FF0446AD
:1044D000204670BD064B074A40F29911064816F077
:1044E00057FE064B034A4FF4CE71034816F050FEB8
:1044F000F44B0208584D02088C480208204C020870
:1045000070B504460D4616461F2806D9FFF716FF5C
:10451000431F012098400138044432462946204672
:10452000FFF715FF70BD034690FAA0F0B0FA80F0D7
:104530000BB94FF0FF307047F8B504460F461646EA
:104540000D6811682A1D00EB820250684FF0FF339E
:104550008B4018400FD120696B1C4FF0FF3202FADC
:1045600003F3184019D0FFF7DEFF05463860031D3E
:1045700004EB8303586848B1FFF7D5FF306000EBC8
:1045800045131C3304EB83035868F8BD044B054AFC
:1045900040F22511044816F0FBFD0020F5E700BFAE
:1045A0005C4C0208B84D02088C48020870B582B015
:1045B000002301930093F9B104460E466A4601A90F
:1045C0003046FFF79DFF6A4601A92046FFF7B4FF7A
:1045D000054690B1FFF7D2FCB04206D3009B019A8A
:1045E00029462046FFF7D4FD07E0054B054A4FF466
:1045F000EA71054816F0CCFD0025284602B070BDD2
:10460000984C0208EC4C02088C48020840F67440B2
:104610007047082070470000F8B507460C4615465D
:10462000FFF7F7FF0421281AFFF73AFD14F0030FF4
:1046300027D10546A0F10C02144B9A4223D86FF003
:1046400003012046FFF7CBFC06462946FFF79AFCFC
:104650003046FFF7A8FC3046FFF7B8FC3146384635
:10466000FFF78CFE3046FFF701FD05460021FFF7FE
:1046700089FC2846FFF79CFC2846FFF7A2FC204651
:10468000F8BD0020FCE70020FAE700BFF4FFFF3F81
:1046900010F0030F05D110B50446FFF7AEFC20461D
:1046A00010BD0020704770B505460E46FFF7F0FFBD
:1046B0000446FFF7ABFF321A29182046FFF7ACFF7C
:1046C000204670BD38B5044608460421FFF7B6FD04
:1046D000054601462046FFF769FF01462A46204667
:1046E000FFF78CFE38BD0000F9B138B50446084626
:1046F000FFF771FC0546FFF752FC78B92846FFF733
:10470000BBFC29462046FFF79BFE01462046FFF7EB
:10471000C7FE01462046FFF731FE38BD034B044A71
:104720004FF44071034816F033FD7047B44C020853
:10473000904D02088C48020882B0BFF35B8F03687B
:10474000BFF35B8F0193BFF35B8F0198BFF35B8F68
:10475000012814BF0020012002B0704782B0024639
:104760000121BFF35B8F50E8003F40E8001CBCF123
:10477000000FF8D1BFF35B8F019310E00121BFF36D
:104780005B8F52E8003F42E8001CBCF1000FF8D1FB
:10479000BFF35B8FBFF35B8F0193BFF35B8FBFF3FF
:1047A0005B8F019BBFF35B8F012BE7D0031DBFF332
:1047B0005B8F53E8002F013243E800210029F8D134
:1047C000BFF35B8FBFF35B8F01238360BFF35B8F0E
:1047D00002B07047BFF35B8F8368BFF35B8F03B991
:1047E0007047031DBFF35B8F53E8002F013A43E886
:1047F00000210029F8D1BFF35B8FBFF35B8F4368C3
:10480000BFF35B8F33B1BFF35B8F00238360BFF3D4
:104810005B8FE5E7BFF35B8F50E8002F40E8003186
:104820000029F9D1BFF35B8FEDE70000BFF35B8F89
:1048300000230360BFF35B8FBFF35B8F4360BFF365
:104840005B8FBFF35B8F8360BFF35B8F034BC360F2
:10485000034B0361034B4361704700BF5D47000892
:10486000D54700083947000810B5032001F02CF89F
:1048700005F0B6FC0F498B69C3F303230E4AD35CE2
:1048800003F01F03D8408B6903F00F03D35C03F0E0
:104890001F0320FA03F3094A1360094B18600F2025
:1048A000FEF7F4FE10B10124204610BD0446FEF7C9
:1048B000D3FEF9E7004402585C4802086000002477
:1048C0005C000024034B1B78034A11680B441360FF
:1048D000704700BF64000024C01A0024014B186810
:1048E000704700BFC01A002438B50446FFF7F6FF32
:1048F0000546B4F1FF3F02D0044B1B781C44FFF780
:10490000EDFF401BA042FAD338BD00BF6400002475
:10491000014B1868000C70470010005C2DE9F04155
:1049200004460E4603684549454A934218BF8B42E8
:1049300013D102F50072976807F01F072569082D4B
:1049400012D0052F18BF002F09D0092F07D0936868
:1049500013F4404F2DD1042506E03A4AEBE7DB681B
:1049600013F0010F1FD10425FFF7B8FF804623681D
:104970001A682A4223D1B6F1FF3FF8D0FFF7AEFF05
:10498000A0EB0800B04201D8002EF0D123681B68CC
:104990002B42ECD1636D43F004036365002384F87C
:1049A0005030032045E0636D43F020036365012030
:1049B0003FE0636D43F020036365012039E0626DE1
:1049C00042F400726265DA6812F4406F11D1627DC0
:1049D0007AB91A6812F0080F0BD0626D22F4807257
:1049E0006265626D12F4805F03D1626D42F0010274
:1049F0006265134A93420CD01A4693420CD0052F9D
:104A000014BF002101213FB131B9092F04D0D26870
:104A100003E0A2F58072F0E7DA68082D06D012F400
:104A2000804F08D10C221A60002002E008221A6090
:104A30000020BDE8F0810020FBE700BF002002401D
:104A400000210240006302580368186C70470000A0
:104A5000F0B583B00022019290F85020012A00F0B6
:104A600057820346012280F850200068826812F0C5
:104A7000040F09D05A6D42F020025A65012000222D
:104A800083F8502003B0F0BD0A68002A0ADBC2F3A5
:104A90001304002C4ED1C2F3846201249440C269F5
:104AA0002243C2611D684C683035220A920002F030
:104AB0000C02A85804F01F0E1F2404FA0EF420EA7A
:104AC00004000C68C4F3846C0CFA0EFC40EA0C0081
:104AD000A8501C68A26812F0040200D00122A0684D
:104AE00010F0080000D0012002432FD0186882681F
:104AF00012F0010F40F008820A68CD68D0F8C0407B
:104B0000C2F3130624EA060405F0180CB24D25FA88
:104B10000CF52A40C2F313022243C0F8C020C86833
:104B2000AE4A904200F0B0800A68002AC0F26B8161
:104B30000020A4E792FAA2F232B1B2FA82F202F0B5
:104B40001F0201249440AAE72022F8E70F688D682D
:104B50001434780E800000F004002658C7F3045E79
:104B60004FF0070C0CFA0EFC26EA0C0C05FA0EF5B9
:104B70004CEA050525509A48006800F07040B0F1F5
:104B8000805F0BD01C68E06810F0100F39D14869C5
:104B9000E468C4F382046400A04006E048691C682D
:104BA000E468C4F382046400A0400D69042D36D08B
:104BB0001F680E68603757F8254004F0004406F07F
:104BC000F8463043204347F8250018680E694C7EAC
:104BD000012C1ED01546603050F8264024F00044C9
:104BE0002C4340F826401D680C69087E012813D02C
:104BF000286920F4F04004F01F04A24002432A6117
:104C000074E74869E468A40804F004046400A04060
:104C1000CBE74FF00045DEE74FF40062E8E71868A5
:104C2000026E02F0F8420C68B2EB846F1DD0186877
:104C3000426E02F0F8420C68B2EB846F1AD018682A
:104C4000826E02F0F8420C68B2EB846F17D01868DD
:104C5000C26E02F0F8420C68B2EB846F7FF446AF8C
:104C6000C26E22F00042C26640E7026E22F00042AD
:104C70000266DCE7426E22F000424266DFE7826EA7
:104C800022F000428266E2E71C680A68C2F313055C
:104C9000002D34D1900E013000F01F0009288CBF88
:104CA00000200120002861D0002D37D1900E013066
:104CB000800600F0F840002D3CD1960E013606F03B
:104CC0001F070126BE403043002D41D1920E013214
:104CD00002F01F0202EB42021205024388681434FC
:104CE000550EAD0005F004056659C2F304520727BE
:104CF000974026EA070690403043605114E792FA45
:104D0000A2F048B1B0FA80F0013000F01F0009288D
:104D10008CBF00200120C5E72020F5E792FAA2F021
:104D200030B1B0FA80F00130800600F0F840C2E700
:104D30002020F8E792FAA2F646B1B6FA86F60136D6
:104D400006F01F06012707FA06F6BCE72026F6E75D
:104D500092FAA2F242B1B2FA82F2013202F01F02DA
:104D600002EB42021205B8E72022F6E7CDB9900E19
:104D70000130800600F0F840FDB9960E013606F0CD
:104D80001F070126BE40304365BB920E013202F080
:104D90001F0202EB42021E3A120542F00072024369
:104DA0009CE792FAA2F030B1B0FA80F001308006B0
:104DB00000F0F840E0E72020F8E792FAA2F646B1CA
:104DC000B6FA86F6013606F01F06012707FA06F640
:104DD000D9E72026F6E700BFFFFF0F000000FF47DE
:104DE0000010005C92FAA2F25AB1B2FA82F20132D9
:104DF00002F01F0202EB42021E3A120542F000725C
:104E0000CDE72022F3E719684248434CA14218BF7E
:104E100081420CBF0120002021D1404EB56805F031
:104E2000E077F0B13B48806810F0010000D001202D
:104E3000394CA46814F0010400D0012420430CBFB5
:104E400001200020002859D03548824212D0354830
:104E5000824231D0344882423FD000200FE6334EA8
:104E6000DCE73348806810F0010000D0012080F0BA
:104E70000100E7E715F4000FE9D12D4A914201D076
:104E80000020FCE547F40002B16821F0E0710A431C
:104E9000B260284A126892092749A1FB02129209BE
:104EA00001325200019202E0019A013A0192019A04
:104EB000002AF9D10020E2E515F0807FCAD11C4A12
:104EC000914201D00020DAE547F08072B16821F00C
:104ED000E0710A43B2600020D1E515F4800F15D1CE
:104EE000134A914201D00020C9E547F48002B1681D
:104EF00021F0E0710A43B2600020C0E55A6D42F033
:104F000020025A650120BAE50020B8E50020B6E588
:104F10000220B7E5002002400021024000230240A9
:104F2000000084CB000052C70000B8CF00630258D5
:104F3000006002585C000024632D3E0570B50446F5
:104F40000068836813F0040300D00123826812F024
:104F5000080200D00122134367D0C36813F0007F1A
:104F600004D0A28A40F201139A424AD002290ED0FC
:104F700023689A6812F0040F09D09A6812F0020FA1
:104F800005D198682A4A024042F010029A6001292D
:104F90000ED023689A6812F0080F09D09A6812F0B0
:104FA000020F05D19868224A024042F020029A601E
:104FB000022934D0032934D10C25FFF78FFC064693
:104FC00023689B682B422ED0FFF788FC831B052BA0
:104FD000F6D923689B682B42F2D0636D43F010032F
:104FE0006365A36D43F00103A36501201EE0636DBB
:104FF00043F010036365A36D43F00103A365012033
:1050000014E00023026812F0400F04D1094A9342D1
:10501000EDD80133F6E7402303600121A8E7082516
:10502000CBE70425C9E7002000E0002070BD00BFE9
:10503000C0FFFF7FFFDB0C0038B503689A6812F0F1
:10504000010F56D1044699682B4A114209D0436D8D
:1050500043F010034365836D43F001038365012032
:1050600048E09968254A0A4042F001029A60FFF739
:1050700035FC054623682249224A934218BF8B42D9
:105080000DD102F50072926802F01F021D498B4299
:1050900007D01946994207D032B100202AE01A4AB7
:1050A000F1E7A1F58071F5E723681A6812F0010FA6
:1050B0001DD19A6812F0010F05D199680F4A0A4074
:1050C00042F001029A60FFF709FC401B0228EBD96D
:1050D00023681B6813F0010FE6D1636D43F01003E2
:1050E0006365A36D43F00103A365012002E0002086
:1050F00000E0002038BD00BF3F000080C0FFFF7F00
:1051000000200240002102400063025838B50446E6
:1051100003683E493E4A934218BF8B4252D102F582
:105120000072956805F01F059B6813F0040F69D1A4
:1051300094F85030012B67D0012384F8503020467A
:10514000FFF77AFF002859D1626DA0F60273134071
:1051500043F48073636523682D4A934234D01A4622
:10516000934200D01DB9626D22F480126265626DB7
:1051700012F4805F2BD0A26D22F00602A2651C22E1
:105180001A60002384F850302368214A934221D0CA
:105190001A46934221D0052D14BF00210121E5B10B
:1051A000D9B9092D19D0636D43F480136365D368B1
:1051B00013F0007F27D0636D23F4405343F48053F2
:1051C000636520E0134AACE7A2F58072C8E70022CD
:1051D000A265D4E7A2F58072DBE7DA6812F0007FFF
:1051E00005D0626D22F4405242F4805262659968A3
:1051F000094A0A4042F004029A6004E0002384F85D
:10520000503000E0022038BD0220FCE700200240C0
:105210000021024000630258C0FFFF7F38B50446FA
:105220000268936813F0020300D00123916811F023
:10523000010F37D0002B37D1936803F00D03012BFA
:1052400009D0636D43F010036365A36D43F0010360
:10525000A365012027E09168144B0B4043F0020343
:105260009360236803221A60FFF738FB0546236822
:105270009B6813F0010F13D0FFF730FB401B02288F
:10528000F5D923689B6813F0010FF0D0636D43F0EC
:1052900010036365A36D43F00103A365012002E0E1
:1052A000002000E0002038BD0020FCE7C0FFFF7FA9
:1052B00090F85030012B18D010B50446012380F827
:1052C00050300321FFF73AFE18B1002384F8503024
:1052D00010BD2046FFF7A2FF0028F6D1626D044BF7
:1052E000134043F001036365EFE70220704700BFFE
:1052F000FEEEFFFF38B5044603684F494F4A93421C
:1053000018BF8B4223D14E4B9B6813F4403F14BF10
:10531000012300234BB305F0A7F905466368B3F5F5
:10532000003F1CD0B3F5403F1DD0B3F5803F16D0F1
:10533000FFF7EEFA41F20303984258D8414B9D42E1
:105340004FD92268936843F48073936038BD3E4B15
:105350009B6813F4403F14BF01230023DAE71B0CC2
:10536000B5FBF3F5E4E78508E2E74FF40020002100
:1053700006F042FB05466368B3F5101F2DD022D816
:10538000B3F5E01F27D004D9B3F5001FD0D14509EC
:10539000CEE7B3F5801F0DD006D9B3F5A01F09D015
:1053A000B3F5C01F06D0C3E7B3F5002F02D0B3F5A5
:1053B000402F04D19B0C5B00B5FBF3F5B8E7B3F5C8
:1053C000802FF7D0B4E7B3F5201F08D0B3F5301F16
:1053D000AED1050AACE70509AAE78509A8E7C50922
:1053E000A6E72268936823F480739360AEE7174BB7
:1053F0009D4205D82268936823F440739360A5E723
:10540000134B9D4207D82268936823F4407343F4FA
:10541000807393609AE70F4B9D4207D82268936888
:1054200023F4407343F4007393608FE7226893681A
:1054300043F44073936089E700200240002102405A
:1054400000230240002D31010063025821BCBE0040
:1054500041787D0181F0FA0230B583B000230193D9
:10546000002800F010810446436DEBB123689A6870
:1054700012F0005F03D09968844A0A409A6023685A
:105480009A6812F0805F1CD19968814A0A4042F004
:1054900080529A607F4B1B689B097F4AA2FB0323C3
:1054A0009B090133019309E0FCF72CFF0023A3655E
:1054B00084F85030DAE7019B013B0193019B002BFC
:1054C000F9D12268936813F0805F40F09C80636D8F
:1054D00043F010036365A36D43F00103A365012549
:1054E000936813F0040300D00123616D11F0100FD5
:1054F00040F0C180002B40F0BE80636D23F48173C7
:1055000043F002036365936813F0010F21D16349EF
:10551000634B9A4218BF8A420CBF0122002274D109
:105520008B6813F0010300D001235D49896811F0F5
:10553000010100D001210B430CBF0123002343B123
:10554000002A6BD0574963688A6822F47C1213439F
:105550008B60FFF7DDF941F20303984202D9A3689B
:10556000102B5DD0627D236B43EA4233A268134364
:10557000227F43EA0243227F012A5CD0626A22B181
:1055800002F47872A16A0A4313432168C868464A44
:1055900002401343CB6021688B6813F0040300D0F2
:1055A00001238A6812F0080200D0012213431BD1A4
:1055B000227DE36A43EA8232C8683C4B03401343CE
:1055C000CB6094F83830012B3AD02268136923F06D
:1055D000010313612268136923F07043616B0B436D
:1055E00013612046FFF786FEE368012B3AD022685C
:1055F000136B23F00F031363636D23F0030343F076
:10560000010363653CE000256AE7294B9B6813F0C2
:10561000010300D0012383F0010390E7254992E7BD
:10562000617D226B42EA41321343227F43EA024307
:1056300043F00C039FE7226A013A43EA42439DE7A5
:10564000206802691C4B1340E26B511E226C42EA37
:105650000142616C0A43A16C0A43134343F0010306
:105660000361B7E721680B6B23F00F03A269013ACE
:1056700013430B63C0E7636D43F0100363650125BB
:10568000284603B030BD0125FAE700BFC0FFFF5F29
:10569000C0FFFF6F5C000024632D3E050020024028
:1056A000002102400023024003C0F0FFFCBFFFFFC7
:1056B00000600258006302581EF800FC70B582B00A
:1056C0000023019390F85030012B42D004460D4640
:1056D0001646012380F85030FFF7A0FD00282FD197
:1056E000626D1D4B134043F00203636522689168AD
:1056F0001A4B0B4005F4803506F0804635432B43AA
:1057000043F00043936023689B68002B06DB636DC6
:1057100023F0030343F00103636515E0019B0133AC
:105720000193019A0E4B9A42EDD3636D23F012035D
:1057300043F010036365002384F85030012006E035
:10574000636D43F010036365002384F8503002B0AA
:1057500070BD0220FBE700BFFDEEFFFFC0FFFE3F74
:1057600000F8C32590F85020012A00F0A18030B441
:105770009AB00346012280F8502000221692179218
:1057800000684C4A904242D000220192019A002ABD
:1057900041D0926812F0040200D00122846814F013
:1057A000040F76D1002A74D1424C434A904218BF6C
:1057B000A04239D102F50072086800283FD09068F5
:1057C00020F440404C68204390601868394D3A4CB2
:1057D000A04218BFA84229D1A86810F0010000D04B
:1057E0000120354CA46814F0010400D001242043AA
:1057F0000CBF01200020002856D094682F4820407C
:105800000C688968214308439060002046E002F557
:1058100080720192BAE75A6D42F020025A65002266
:1058200083F8502001203CE0254AC5E725488068E0
:1058300010F0010000D0012080F00100DBE791684A
:1058400021F44041916019681A4C1B48814218BFED
:10585000A14215D1A16811F0010100D00121164823
:10586000806810F0010000D0012001430CBF01212D
:105870000021D9B1906811490140916000200DE0EC
:105880001049896811F0010100D0012181F0010166
:10589000EFE75A6D42F020025A650120002283F89A
:1058A00050201AB030BC70470020F7E70020F5E721
:1058B000022070470020024000210240E0F0FFFF7C
:1058C00000630258006002580649CB6823F4E06385
:1058D0001B041B0C000200F4E0600343024A1A435D
:1058E000CA60704700ED00E00000FA0500B5174BF4
:1058F000DB68C3F30223C3F1070CBCF1040F28BF1C
:105900004FF0040C03F1040EBEF1060F14D9033B53
:105910004FF0FF3E0EFA0CFC21EA0C0199400EFA02
:1059200003F322EA03031943002807DB0901C9B284
:10593000074B19545DF804FB0023E9E700F00F0062
:105940000901C9B2034B1954F4E700BF00ED00E0B0
:1059500000E400E014ED00E0002807DB00F01F0287
:10596000400901239340024A42F82030704700BFAB
:1059700000E100E000280CDB00F01F0240090123D9
:1059800093402030034A42F82030BFF34F8FBFF3DB
:105990006F8F704700E100E0BFF35F8F044B5A6ADE
:1059A00022F480325A620022C3F89420704700BF6C
:1059B00000ED00E040F00100054BC3F894005A6A86
:1059C00042F480325A62BFF34F8FBFF36F8F70473C
:1059D00000ED00E04378144AC2F89830D2F8A030C5
:1059E00023F00103C2F8A0304368C2F89C30017B69
:1059F000C37A1B0643EA0173817A43EAC143417BC0
:105A000043EA8143817B43EA4143C17B43EA01434B
:105A1000417A43EA0123017A43EA410301780B43C7
:105A2000C2F8A030704700BF00ED00E003682749CE
:105A3000274A934218BF8B422FD0183293422CD062
:105A40001832934229D01832934226D0183293420A
:105A500023D01832934220D0183293421DD002F541
:105A60005672934219D01832934216D0183293428C
:105A700013D01832934210D0183293420DD01832FE
:105A800093420AD01832934207D01832934204D07E
:105A900023F0FF038365806D704710B4D9B21039CD
:105AA0000C4AA2FB0142C2F302120B4CA25CC2657B
:105AB0005F2907D9094A1A4004328265806D5DF872
:105AC000044B7047054A1A408265F7E71000024010
:105AD00028000240ABAAAAAAD04D020800FCFFFF92
:105AE00083699BB9836A012B0AD0022B02D00BB1C8
:105AF00000207047C36A13F0807F2AD100207047CE
