:020000040800F2
:100000000000082435310008DD2D0008DF2D000830
:10001000E12D0008E32D0008E52D00080000000098
:10002000000000000000000000000000C1D2000835
:10003000E72D00080000000061D30008C5D30008C8
:1000400085310008853100088531000885310008B8
:1000500085310008853100088531000885310008A8
:10006000853100088531000885310008E92D000838
:100070008531000885310008853100088531000888
:100080008531000885310008853100088531000878
:100090008531000885310008853100088531000868
:1000A00085310008F92D00088531000885310008E8
:1000B0008531000885310008853100088531000848
:1000C0008531000885310008853100088531000838
:1000D0008531000885310008853100088531000828
:1000E00085310008853100080000000085310008D6
:1000F0008531000885310008853100088531000808
:1001000085310008092E0008853100088531000876
:1001100085310008853100088531000885310008E7
:1001200085310008853100088531000885310008D7
:1001300085310008853100088531000885310008C7
:1001400000000000000000000000000000000000AF
:1001500085310008853100088531000885310008A7
:100160008531000885310008853100088531000897
:100170008531000885310008853100080000000045
:100180008531000885310008853100088531000877
:100190008531000885310008853100088531000867
:1001A000192E0008853100088531000885310008C6
:1001B000292E0008853100088531000885310008A6
:1001C0008531000885310008853100088531000837
:1001D0008531000885310008853100088531000827
:1001E0008531000885310008853100088531000817
:1001F0008531000885310008853100088531000807
:1002000085310008853100088531000885310008F6
:1002100085310008853100088531000885310008E6
:100220008531000885310008392E000800000000E3
:100230008531000885310008000000008531000884
:1002400085310008853100088531000885310008B6
:1002500085310008853100088531000885310008A6
:100260008531000885310008853100088531000896
:100270008531000885310008853100080000000044
:100280008531000885310008853100080000000034
:080290000000000085310008A8
:1002C00010B5054C237833B9044B13B10448AFF390
:1002D00000800123237010BDE0090024000000000D
:1002E000E057010808B5034B1BB103490348AFF3BE
:1002F000008008BD00000000E4090024E057010868
:1003000081F0004102E000BF83F0004330B54FEAC6
:1003100041044FEA430594EA050F08BF90EA020F33
:100320001FBF54EA000C55EA020C7FEA645C7FEAC6
:10033000655C00F0E2804FEA5454D4EB5555B8BFE9
:100340006D420CDD2C4480EA020281EA030382EA5A
:10035000000083EA010180EA020281EA0303362DEC
:1003600088BF30BD11F0004F4FEA01314FF4801CBF
:100370004CEA113102D0404261EB410113F0004FD1
:100380004FEA03334CEA133302D0524263EB430388
:1003900094EA050F00F0A780A4F10104D5F1200E26
:1003A0000DDB02FA0EFC22FA05F2801841F1000181
:1003B00003FA0EF2801843FA05F359410EE0A5F155
:1003C00020050EF1200E012A03FA0EFC28BF4CF086
:1003D000020C43FA05F3C01851EBE37101F000453C
:1003E00007D54FF0000EDCF1000C7EEB00006EEB49
:1003F0000101B1F5801F1BD3B1F5001F0CD34908D3
:100400005FEA30004FEA3C0C04F101044FEA445229
:1004100012F5800F80F09A80BCF1004F08BF5FEAB0
:10042000500C50F1000041EB045141EA050130BD90
:100430005FEA4C0C404141EB0101013C28BFB1F5A2
:10044000801FE9D291F0000F04BF01460020B1FAED
:1004500081F308BF2033A3F10B03B3F120020CDAC0
:100460000C3208DD02F1140CC2F10C0201FA0CF09E
:1004700021FA02F10CE002F11402D8BFC2F1200C03
:1004800001FA02F120FA0CFCDCBF41EA0C019040B9
:10049000E41AA2BF01EB0451294330BD6FEA040402
:1004A0001F3C1CDA0C340EDC04F11404C4F12002ED
:1004B00020FA04F001FA02F340EA030021FA04F3FF
:1004C00045EA030130BDC4F10C04C4F1200220FA56
:1004D00002F001FA04F340EA0300294630BD21FA94
:1004E00004F0294630BD94F0000F83F4801306BF5A
:1004F00081F480110134013D4EE77FEA645C18BF4E
:100500007FEA655C29D094EA050F08BF90EA020FE4
:1005100005D054EA000C04BF1946104630BD91EADC
:10052000030F1EBF0021002030BD5FEA545C05D1DF
:100530004000494128BF41F0004130BD14F580041E
:100540003CBF01F5801130BD01F0004545F0FE4192
:1005500041F470014FF0000030BD7FEA645C1ABFC7
:10056000194610467FEA655C1CBF0B46024650EAFE
:10057000013406BF52EA033591EA030F41F400212A
:1005800030BD00BF90F0000F04BF0021704730B5B0
:100590004FF4806404F132044FF000054FF0000185
:1005A00050E700BF90F0000F04BF0021704730B546
:1005B0004FF4806404F1320410F0004548BF40421B
:1005C0004FF000013EE700BF42004FEAE2014FEA70
:1005D00031014FEA02701FBF12F07F4393F07F4F4B
:1005E00081F06051704732F07F4208BF704793F04E
:1005F0007F4F04BF41F40021704730B54FF4607461
:1006000001F0004521F000411CE700BF50EA010263
:1006100008BF704730B54FF000050AE050EA01020C
:1006200008BF704730B511F0004502D5404261EB7C
:1006300041014FF4806404F132045FEA915C3FF4BD
:10064000D8AE4FF003025FEADC0C18BF03325FEA5A
:10065000DC0C18BF033202EBDC02C2F1200300FA0B
:1006600003FC20FA02F001FA03FE40EA0E0021FA30
:1006700002F11444BDE600BF70B54FF0FF0C4CF41E
:10068000E06C1CEA11541DBF1CEA135594EA0C0FD0
:1006900095EA0C0F00F0DEF82C4481EA030621EA0B
:1006A0004C5123EA4C5350EA013518BF52EA033546
:1006B00041F4801143F4801338D0A0FB02CE4FF0F8
:1006C0000005E1FB02E506F00042E0FB03E54FF028
:1006D0000006E1FB03569CF0000F18BF4EF0010E20
:1006E000A4F1FF04B6F5007F64F5407404D25FEA1C
:1006F0004E0E6D4146EB060642EAC62141EA5551CF
:100700004FEAC52040EA5E504FEACE2EB4F1FD0C10
:1007100088BFBCF5E06F1ED8BEF1004F08BF5FEA8E
:10072000500E50F1000041EB045170BD06F0004640
:1007300046EA010140EA020081EA0301B4EB5C04ED
:10074000C2BFD4EB0C0541EA045170BD41F48011E5
:100750004FF0000E013C00F3AB8014F1360FDEBF0A
:10076000002001F0004170BDC4F10004203C35DAE6
:100770000C341BDC04F11404C4F1200500FA05F369
:1007800020FA04F001FA05F240EA020001F000420A
:1007900021F0004110EBD37021FA04F642EB060180
:1007A0005EEA430E08BF20EAD37070BDC4F10C04AA
:1007B000C4F1200500FA04F320FA05F001FA04F26E
:1007C00040EA020001F0004110EBD37041F100015A
:1007D0005EEA430E08BF20EAD37070BDC4F1200565
:1007E00000FA05F24EEA020E20FA04F301FA05F2CD
:1007F00043EA020321FA04F001F0004121FA04F275
:1008000020EA020000EBD3705EEA430E08BF20EA44
:10081000D37070BD94F0000F0FD101F0004640007E
:1008200041EB010111F4801F08BF013CF7D041EA00
:10083000060195F0000F18BF704703F00046520004
:1008400043EB030313F4801F08BF013DF7D043EAD5
:100850000603704794EA0C0F0CEA135518BF95EA8B
:100860000C0F0CD050EA410618BF52EA4306D1D112
:1008700081EA030101F000414FF0000070BD50EA31
:10088000410606BF1046194652EA430619D094EABB
:100890000C0F02D150EA013613D195EA0C0F05D1A5
:1008A00052EA03361CBF104619460AD181EA0301F9
:1008B00001F0004141F0FE4141F470014FF00000B1
:1008C00070BD41F0FE4141F4780170BD70B54FF04C
:1008D000FF0C4CF4E06C1CEA11541DBF1CEA1355CC
:1008E00094EA0C0F95EA0C0F00F0A7F8A4EB0504AE
:1008F00081EA030E52EA03354FEA013100F08880A5
:100900004FEA03334FF0805545EA131343EA12636D
:100910004FEA022245EA111545EA10654FEA002622
:100920000EF000419D4208BF964244F1FD0404F5DB
:10093000407402D25B084FEA3202B61A65EB030537
:100940005B084FEA32024FF480104FF4002CB6EBF4
:10095000020E75EB030E22BFB61A754640EA0C0074
:100960005B084FEA3202B6EB020E75EB030E22BFB4
:10097000B61A754640EA5C005B084FEA3202B6EBF5
:10098000020E75EB030E22BFB61A754640EA9C00B4
:100990005B084FEA3202B6EB020E75EB030E22BF84
:1009A000B61A754640EADC0055EA060E18D04FEA42
:1009B000051545EA16754FEA06164FEAC30343EAE2
:1009C00052734FEAC2025FEA1C1CC0D111F4801FAF
:1009D0000BD141EA00014FF000004FF0004CB6E7A8
:1009E00011F4801F04BF01430020B4F1FD0C88BF47
:1009F000BCF5E06F3FF6AFAEB5EB030C04BFB6EB52
:100A0000020C5FEA500C50F1000041EB045170BD44
:100A10000EF0004E4EEA113114EB5C04C2BFD4EB71
:100A20000C0541EA045170BD41F480114FF0000EF5
:100A3000013C90E645EA060E8DE60CEA135594EA71
:100A40000C0F08BF95EA0C0F3FF43BAF94EA0C0F74
:100A50000AD150EA01347FF434AF95EA0C0F7FF4E9
:100A600025AF104619462CE795EA0C0F06D152EA3D
:100A700003353FF4FDAE1046194622E750EA410621
:100A800018BF52EA43067FF4C5AE50EA41047FF432
:100A90000DAF52EA43057FF4EBAE12E753B94AB902
:100AA000002908BF00281CBF4FF0FF314FF0FF3076
:100AB00000F074B9ADF1080C6DE904CE00F006F851
:100AC000DDF804E0DDE9022304B070472DE9F047CA
:100AD000089D04468E46002B4DD18A42944669D922
:100AE000B2FA82F252B101FA02F3C2F1200120FA05
:100AF00001F10CFA02FC41EA030E94404FEA1C4853
:100B0000210CBEFBF8F61FFA8CF708FB16E341EA4E
:100B1000034306FB07F199420AD91CEB030306F1D4
:100B2000FF3080F01F81994240F21C81023E6344F5
:100B30005B1AA4B2B3FBF8F008FB103344EA034499
:100B400000FB07F7A7420AD91CEB040400F1FF33AE
:100B500080F00A81A74240F207816444023840EAEB
:100B60000640E41B00261DB1D4400023C5E9004324
:100B70003146BDE8F0878B4209D9002D00F0EF80A7
:100B80000026C5E9000130463146BDE8F087B3FADA
:100B900083F6002E4AD18B4202D3824200F2F980C2
:100BA000841A61EB030301209E46002DE0D0C5E9C5
:100BB000004EDDE702B9FFDEB2FA82F2002A40F011
:100BC0009280A1EB0C014FEA1C471FFA8CFE012614
:100BD000200CB1FBF7F307FB131140EA01410EFBB8
:100BE00003F0884208D91CEB010103F1FF3802D25F
:100BF000884200F2CB804346091AA4B2B1FBF7F059
:100C000007FB101144EA01440EFB00FEA64508D97B
:100C10001CEB040400F1FF3102D2A64500F2BB80B8
:100C20000846A4EB0E0440EA03409CE7C6F1200707
:100C3000B34022FA07FC4CEA030C20FA07F401FA4D
:100C400006F31C43F9404FEA1C4900FA06F3B1FBD6
:100C5000F9F8200C1FFA8CFE09FB181140EA01413B
:100C600008FB0EF0884202FA06F20BD91CEB0101D8
:100C700008F1FF3A80F08880884240F28580A8F130
:100C800002086144091AA4B2B1FBF9F009FB101182
:100C900044EA014100FB0EFE8E4508D91CEB010120
:100CA00000F1FF346CD28E456AD90238614440EAC3
:100CB0000840A0FB0294A1EB0E01A142C846A64643
:100CC00056D353D05DB1B3EB080261EB0E0101FACC
:100CD00007F722FA06F3F1401F43C5E90071002629
:100CE0003146BDE8F087C2F12003D8400CFA02FC7F
:100CF00021FA03F3914001434FEA1C471FFA8CFE8F
:100D0000B3FBF7F007FB10360B0C43EA064300FB7E
:100D10000EF69E4204FA02F408D91CEB030300F11C
:100D2000FF382FD29E422DD9023863449B1B89B2D3
:100D3000B3FBF7F607FB163341EA034106FB0EF35C
:100D40008B4208D91CEB010106F1FF3816D28B4209
:100D500014D9023E6144C91A46EA004638E72E46D5
:100D6000284605E70646E3E61846F8E64B45A9D2CD
:100D7000B9EB020864EB0C0E0138A3E74646EAE73C
:100D8000204694E74046D1E7D0467BE7023B6144EA
:100D900032E7304609E76444023842E7704700BF53
:100DA000844641EA000313F003036DD1403A41D376
:100DB00051F8043B40F8043B51F8043B40F8043B35
:100DC00051F8043B40F8043B51F8043B40F8043B25
:100DD00051F8043B40F8043B51F8043B40F8043B15
:100DE00051F8043B40F8043B51F8043B40F8043B05
:100DF00051F8043B40F8043B51F8043B40F8043BF5
:100E000051F8043B40F8043B51F8043B40F8043BE4
:100E100051F8043B40F8043B51F8043B40F8043BD4
:100E200051F8043B40F8043B51F8043B40F8043BC4
:100E3000403ABDD2303211D351F8043B40F8043B64
:100E400051F8043B40F8043B51F8043B40F8043BA4
:100E500051F8043B40F8043B103AEDD20C3205D374
:100E600051F8043B40F8043B043AF9D2043208D06C
:100E7000D2071CBF11F8013B00F8013B01D30B88DE
:100E800003806046704700BF082A13D38B078DD0BC
:100E900010F003038AD0C3F10403D21ADB071CBF8E
:100EA00011F8013B00F8013B80D331F8023B20F8F8
:100EB000023B7BE7043AD9D3013A11F8013B00F831
:100EC000013BF9D20B7803704B7843708B788370B9
:100ED00060467047000000000000000000000000B5
:100EE000A2EB0300704700BF02780B78012A28BFED
:100EF0009A42F5D16DE9044540EA0104CDE9026763
:100F00006FF0000C4FEA447212B380EA010414F04F
:100F1000070F6AD100F0070420F0070004F0030572
:100F200021F007014FEAC505F0E8042314F0040F8F
:100F3000F1E804670CFA05F462EA040266EA0406C2
:100F40000AD063EA0403624667EA0407664603E0E0
:100F5000F0E80423F1E8046782FA4CF582EA06041B
:100F6000A4FA8CF46CBB83FA4CF583EA0705A5FA66
:100F70008CF595B950E9022351E9026782FA4CF5E4
:100F800082EA0604A4FA8CF483FA4CF583EA070596
:100F9000A5FA8CF52543DBD09CB92DBAB5FA85F4BA
:100FA00024F0070427FA04F1DDE9026723FA04F3C9
:100FB00003F0FF0001F0FF01FDE80445A0EB010094
:100FC000704724BAB4FA84F424F0070426FA04F132
:100FD000DDE9026722FA04F202F0FF0001F0FF01EE
:100FE000FDE80445A0EB0100704714F0030F3CD16D
:100FF00010F0030428D150F8082B51F8083B82FA6E
:101000004CF582EA0305A5FA8CF55DB950F8042C7D
:1010100051F8043C82FA4CF582EA0305A5FA8CF5F6
:10102000002DE8D02DBAB5FA85F424F0070423FA90
:1010300004F122FA04F202F0FF0001F0FF01FDE8E2
:101040000445A0EB010070474FEAC40420F0030000
:1010500050F8082B21F0030151F8083B0CFA04F476
:1010600062EA040263EA0403C9E710F003041AD039
:10107000A1EB040120F00300E40750F8042B06D094
:101080000FD28B785FFAA2F4E41A06D12BB1CB7899
:101090005FFAB2F4E41A00D11BB920465DF8104B98
:1010A000704701F1040150F8042BCC0721F0030133
:1010B00051F8043B48D824D222F07F4482FA4CF500
:1010C00094EA1325A5FA8CF50AD165B951F8043BC9
:1010D00084EA0204B4EB036F0ED150F8042BEBE763
:1010E0004FEA132355E035F07F454DD10878FDE8F0
:1010F0000445C0F1000070474FEA126203F0FF039D
:1011000047E002EA1C4482FA4CF594EA1345A5FA3A
:101110008CF50AD165B951F8043B84EA0204B4EBBA
:10112000034F0CD150F8042BEBE74FEA134330E0A8
:1011300015EA1C4528D10B884FEA124229E04FEAF4
:10114000124203EA1C4324E002F0FF0482FA4CF549
:1011500094EA1365A5FA8CF50AD165B951F8043BF8
:1011600084EA0204B4EB032F09D150F8042BEBE717
:101170004FEA13630DE015F0FF0F05D10B684FEA3E
:10118000122223F07F4304E04FF00000FDE8044505
:10119000704712BA1BBA82FA4CF482EA0304A4FA2A
:1011A0008CF5B5FA85F402FA04F203FA04F34FEA77
:1011B0001260FDE80445A0EB1360704700000000DA
:1011C00090F800F06DE9024520F007016FF0000C87
:1011D00010F0070491F820F040F049804FF000042F
:1011E0006FF00700D1E9002391F840F000F108000A
:1011F00082FA4CF2A4FA8CF283FA4CF3A2FA8CF342
:101200004BBBD1E9022382FA4CF200F10800A4FAA8
:101210008CF283FA4CF3A2FA8CF3E3B9D1E90423FC
:1012200082FA4CF200F10800A4FA8CF283FA4CF333
:10123000A2FA8CF37BB9D1E9062301F1200182FAED
:101240004CF200F10800A4FA8CF283FA4CF3A2FAF3
:101250008CF3002BC6D0002A04BF04301A4612BA01
:10126000B2FA82F2FDE8024500EBD2007047D1E904
:10127000002304F00305C4F100004FEAC50514F093
:10128000040F91F840F00CFA05F562EA05021CBF64
:1012900063EA050362464FF00004A9E7000000007E
:1012A00001F0FF01102A2BDB10F0070F08D010F817
:1012B000013B013A8B422DD010F0070F42B3F6D11B
:1012C000F0B441EA012141EA014122F007047FF034
:1012D00000070023F0E80256083C85EA010586EA8B
:1012E000010685FA47F5A3FA87F586FA47F6A5FAC7
:1012F00087F68EB9EED1F0BC01F0FF0102F00702D3
:1013000032B110F8013B013A83EA010313B1F8D17D
:101310000020704701387047002D06BF354603385E
:10132000073815F0010F07D1013015F4807F02BF97
:10133000013015F4C03F0130F0BC0138704700BFE8
:101340004FF0FF3C06E000BF4FF0010C02E000BF91
:101350004FF0010C4DF804CD4FEA410C7FEA6C5C74
:101360004FEA430C18BF7FEA6C5C1BD001B050EA17
:10137000410C0CBF52EA430C91EA030F02BF90EA02
:10138000020F0020704710F1000F91EA030F58BFC1
:10139000994208BF90422CBFD8176FEAE37040F023
:1013A000010070474FEA410C7FEA6C5C02D150EAC1
:1013B000013C07D14FEA430C7FEA6C5CD6D152EA7C
:1013C000033CD3D05DF8040B704700BF8446104641
:1013D00062468C461946634600E000BF01B5FFF740
:1013E000B7FF002848BF10F1000F01BD4DF808ED10
:1013F000FFF7F4FF0CBF012000205DF808FB00BFE1
:101400004DF808EDFFF7EAFF34BF012000205DF83A
:1014100008FB00BF4DF808EDFFF7E0FF94BF012087
:1014200000205DF808FB00BF4DF808EDFFF7CEFF88
:1014300094BF012000205DF808FB00BF4DF808EDC7
:10144000FFF7C4FF34BF012000205DF808FB00BF98
:101450004FEA410C7FEA6C5C02D150EA013C0AD1B0
:101460004FEA430C7FEA6C5C02D152EA033C02D1A2
:101470004FF0000070474FF0010070474FEA410203
:1014800012F5001215D211D56FF47873B3EB6252D6
:1014900012D94FEAC12343F0004343EA505311F0FD
:1014A000004F23FA02F018BF404270474FF000008F
:1014B000704750EA013005D111F0004008BF6FF0CD
:1014C000004070474FF00000704700BF08B50B4860
:1014D0000EF08CF80A4C25680DF000F96861094897
:1014E0000EF084F84FF47A700BF02BFD0DF0F6F847
:1014F00023685A69801A9861ECE700BF9458010884
:10150000180A00249C58010808B54FF47A700BF0B3
:1015100018FD084C25680DF0E1F868614FF47A7009
:101520000BF00FFD0DF0DAF823685A69801A986104
:10153000EFE700BF000A002430B591B0184C01A9B4
:10154000204608F0D2FA07A9204608F01FFD0D99A1
:1015500000240E9BA1FB0313090D41EA033111483E
:101560000DF0DAFF104D40F2FF722146284602F0DE
:10157000E3FF284602F02AFD204601F091FA40B12F
:101580000A480EF033F80DF0E7FC0DF023FC11B023
:1015900030BD01F00FFA014605480DF0BDFFF2E73E
:1015A0000C140024A45801081C0A0024C85801087F
:1015B000D858010800B5ADF20C4D0122114912486E
:1015C0000BF08CF8B0B14FF48063009302AB0022B3
:1015D00002210C480BF0C4F840B90C480EF006F894
:1015E0000122084908480BF079F806E008480DF098
:1015F000FDFF02E007480DF0F9FF0DF20C4D5DF81C
:1016000004FB00BF281A0024F0150024F858010834
:10161000105901083459010870B5204B18680DF0B5
:1016200075FC1F4B18680DF071FC1E4B18680DF00F
:101630006DFC0DF081FC06460DF050F8044621E0EB
:10164000D2ED067AF8EE676A01EB81035B0007EEE4
:10165000903AF8EE677A86EEA77ADFED137A67EEB6
:10166000277AC2ED027A126A002AE9D14FF47A7021
:101670000BF067FC0DF032F8094B1B685A69801AB1
:1016800098612C46064B1D680DF028F868610DF036
:1016900025F80546011B3246E6E700BF000A002494
:1016A0000C0A0024180A00240000C8422DE9F04169
:1016B0000546884617461E46242001F093FD044641
:1016C0002846FFF77DFD013001F08CFD20602946A2
:1016D0000EF020F884F80480064A1378591C117023
:1016E00023770023A360277326610023236220460B
:1016F000BDE8F081FC09002470B59CB0304C0DF1C0
:10170000540CA646BEE80F00ACE80F009EE80700A8
:101710008CE80700002115A80BF0DEFB294D28609E
:101720000DF1380C04F11C0EBEE80F00ACE80F0000
:101730009EE807008CE8070000210EA80BF0CCFB08
:10174000214E30600DF11C0C04F1380EBEE80F0084
:10175000ACE80F009EE807008CE80700002107A80E
:101760000BF0BAFB194B1860EE4604F1540CBCE8C0
:101770000F00AEE80F009CE807008EE8070000218C
:1017800068460BF0A9FB124C20603368032200214D
:101790001048FFF78BFF104B18602B6803220021C5
:1017A0000E48FFF783FF0E4B186023680022114696
:1017B0000C48FFF77BFF0C4B18601CB070BD00BFDE
:1017C000F8570108040A0024100A0024080A00241B
:1017D000140A0024505901080C0A00244859010831
:1017E000000A00246C590108180A002408B50F4BA0
:1017F0000F4A104910480DF06FFD104B104A114967
:1018000011480DF069FD114B114A124912480DF0B3
:1018100063FD124B124A134913480DF05DFD134B43
:10182000134A144914480DF057FD08BD291B000840
:101830007859010888590108845901087D18000861
:1018400094590108A0590108B45901081919000850
:10185000B8590108C8590108E4590108B518000829
:10186000EC590108085A0108185A0108F118000833
:10187000205A0108305A0108445A010808B50128C5
:1018800002D001280BDC08BD08680DF0F7FC10B190
:10189000054A1060F7E705480DF0A8FEF3E7044895
:1018A0000DF0A4FEEFE700BF086E00244C5A0108BB
:1018B000645A010870B5051E02DD0E46002404E0DE
:1018C0000A480DF093FE10E00134AC420ADA56F8F3
:1018D00024000DF021FE6B1EA342F5DD20200DF04B
:1018E0002FFEF1E70A200DF02BFE70BD7C5A010897
:1018F00008B528B1012807D005480DF077FE08BDCE
:1019000004480DF023FDFAE708680DF01FFDF6E727
:10191000945A0108945B010838B548B10C46012877
:101920000AD05E480DF062FE5D480DF05FFE38BDE6
:101930005C480DF05BFEF7E708680DF0E1FB05463B
:1019400098B1816858480DF0E7FDE96857480DF0F7
:10195000E3FD6B790A2B00F28580DFE803F0545F2A
:1019600063676B6F7377837B7F0020680DF016FCD5
:10197000044670B14E480DF039FE227F21684D4873
:101980000DF0CAFD237B032B25D8DFE803F00618F2
:101990001C2049480DF02AFEC9E748480DF0BCFD5F
:1019A000A068FEF711FE02460B4645480DF0B4FD57
:1019B0002379032B23D8DFE803F012161A1E4148BF
:1019C0000DF0AAFDECE740480DF0A6FDE8E73F4822
:1019D0000DF0A2FDE4E73E480DF09EFDE0E73D4836
:1019E0000DF004FEA3E73C480DF000FE9FE73B48E6
:1019F0000DF0FCFD9BE73A480DF0F8FD97E7344801
:101A00000DF0F4FD93E737480DF0F0FD2B79042B32
:101A100040D8DFE803F02B2F33373B0032480DF07E
:101A2000E5FDF3E731480DF0E1FDEFE730480DF05B
:101A3000DDFDEBE72F480DF0D9FDE7E72E480DF06F
:101A4000D5FDE3E72D480DF0D1FDDFE72C480DF083
:101A5000CDFDDBE72B480DF0C9FDD7E72A480DF097
:101A6000C5FDD3E729480DF0C1FDCFE728480DF0AB
:101A7000BDFD59E727480DF0B9FD55E726480DF0A3
:101A8000B5FD51E725480DF0B1FD4DE724480DF0B7
:101A9000ADFD49E723480DF0A9FD45E7C85C010805
:101AA000DC5C0108AC5A0108785B0108845B010822
:101AB000DC5A0108045B0108C45A01080C5B0108E8
:101AC000405B0108185B0108205B0108285B0108E6
:101AD000345B01084C5B0108585B0108645B01083A
:101AE000705B0108985B0108A45B0108B85B010802
:101AF000D05B0108E85B0108FC5B0108105C010891
:101B0000285C0108405C0108545C0108605C010825
:101B1000705C01087C5C0108885C0108985C010825
:101B2000A85C0108B85C010810B501280FDC012889
:101B300011D04FF4806001F055FB04460146084B7C
:101B400018680DF0A5FB20460DF06EFB02E005487D
:101B50000DF04CFD10BD08680DF066FBFAE700BF04
:101B6000086E0024F45C010800B589B000230193DD
:101B700002930393049305930693079319481A4A13
:101B800002608360C3600422026103754375012211
:101B90008261037743628362C3620363436380F8B5
:101BA000383002F097FBB0B9104B01930623029333
:101BB0000723039340F2FF73049304230593002348
:101BC00006938DF81D3001A9064801F01FFF28B9C2
:101BD00009B05DF804FB00F08DFCE5E700F08AFC3D
:101BE000F6E700BF1C0A002400600258000084CB06
:101BF00010B5B2B00446C022002102A80DF03AFC94
:101C00002268154B9A4201D032B010BD4FF4002229
:101C10000023CDE9022305230493C02305930C235D
:101C200006930223079308938023099302A805F0E3
:101C3000BFFF68B9094BD3F8E02042F08072C3F8C7
:101C4000E020D3F8E03003F080730193019BDBE7E1
:101C500000F050FCEEE700BF00600258004402585C
:101C600000B583B00B4BD3F8D82042F00102C3F883
:101C7000D820D3F8D83003F001030193019B002250
:101C800005210B2002F0BEFC0B2002F0F1FC03B09A
:101C90005DF804FB0044025808B50F480F4B036081
:101CA0000023436002228260C36043648264C36491
:101CB000036543658365C36503F0DAFB28B9012139
:101CC000054803F017FC18B908BD00F013FCF6E74F
:101CD00000F010FCF8E700BF800A0024001000525A
:101CE00002680A4B9A4200D0704782B0084BD3F882
:101CF000D42042F01002C3F8D420D3F8D43003F03B
:101D000010030193019B02B0704700BF0010005206
:101D100000440258F0B5B9B000233393349335939F
:101D200036933793304B1B680BB139B0F0BD2E4B57
:101D300001221A60C022002102A80DF09BFB4FF087
:101D400080720023CDE9022302A805F031FF0028AC
:101D500047D1264BD3F8D42042F48052C3F8D42084
:101D6000D3F8D43003F480530193019B4FF63F0323
:101D700033930227349700263596032536950C2495
:101D8000379433A91A4803F037FC2C233393349744
:101D900035963695379433A9164803F02DFC48F252
:101DA00037133393349735963695379433A91248C1
:101DB00003F022FC4FF683733393349735963695B0
:101DC000379433A90D4803F017FC4CF20373339397
:101DD000349735963695379433A9094803F00CFCAF
:101DE000A3E700F087FBB4E7E80A002400440258A8
:101DF00000140258001C0258001802580010025823
:101E0000000C0258F0B587B0044600230593012268
:101E1000019210210291039204934FF4805201A980
:101E200008F022FB204608F059FB0128FAD10223D2
:101E300001931025029501260396002704974FF47D
:101E4000805201A9204608F00FFB0323019302955D
:101E50000823039304974FF4805201A9204608F009
:101E600003FB40F23123059304230193029503966B
:101E7000059B04934FF4805201A9204608F0F4FA20
:101E800040F29631204608F010FB07B0F0BD00008C
:101E900000B589B000230193029303930493059343
:101EA000069307931848194A026043600122826032
:101EB0000822C26010220261402242614FF4C072C7
:101EC0008261C3614FF4006303624FF48053436245
:101ED0004FF40053836202230193072202920421EC
:101EE000039104920322059206930793694408F034
:101EF00093FA28B90448FFF785FF09B05DF804FBA1
:101F000000F0F8FAF6E700BFEC0A00244041005266
:101F100008B5FFF7FFFE08BD08B501200BF011F86A
:101F2000FBE770470020704770470000034B0360D9
:101F3000034B0B6080231360704700BF200D00240B
:101F4000200B002410B588B00DF1040C0A4C0FCC06
:101F5000ACE80F0094E807008CE80700002101A816
:101F60000AF0BAFF054B186001F022F9FFF7E4FA16
:101F7000FFF7C2FB08B010BD68580108A811002483
:101F8000F0B58FB0002409940A940B940C940D942E
:101F9000564BD3F8E02042F01002C3F8E020D3F80B
:101FA000E02002F010020092009AD3F8E02042F400
:101FB0008072C3F8E020D3F8E02002F4807201922E
:101FC000019AD3F8E02042F00402C3F8E020D3F8ED
:101FD000E02002F004020292029AD3F8E02042F0DC
:101FE0002002C3F8E020D3F8E02002F020020392A0
:101FF000039AD3F8E02042F08002C3F8E020D3F83F
:10200000E02002F080020492049AD3F8E02042F02B
:102010000102C3F8E020D3F8E02002F001020592AB
:10202000059AD3F8E02042F00202C3F8E020D3F88A
:10203000E02002F002020692069AD3F8E02042F075
:102040004002C3F8E020D3F8E02002F040020792FB
:10205000079AD3F8E02042F00802C3F8E020D3F852
:10206000E03003F008030893089B214F22464FF409
:102070001061384603F0D0FB1E4D01221021284686
:1020800003F0CAFB2246C021284603F0C5FB1A4EC6
:1020900001220821304603F0BFFB4FF4106309937F
:1020A00011230A930B940C9409A9384603F0A4FA5F
:1020B000D023099301270A970B940C9409A9284669
:1020C00003F09AFA4FF4805309930A940B9409A9E8
:1020D0000A4803F091FA082309930A970B940C9489
:1020E00009A9304603F088FA0FB0F0BD0044025849
:1020F00000200258001C0258001802580004025820
:1021000008B50548054B036003F042FE00B908BD61
:1021100000F0F0F9FBE700BFAC11002400300052E2
:1021200002680A4B9A4200D0704782B0084BD3F83D
:10213000D42042F02002C3F8D420D3F8D43003F0E6
:1021400020030193019B02B0704700BF0030005292
:102150000044025810B59AB03424224600210DEBF9
:1021600004000DF087F92246002168460DF082F93F
:102170003A483B4B0360002343608360C3600361C4
:10218000436183612A22C2610C22026240F20A2268
:1021900042624FF48E72826240F21222C2624FF4A7
:1021A0009272026380F8343080F8353080F836302F
:1021B00003F01AFF002847D100220D924FF4F0716E
:1021C0000E910F924FF48873109302201190FF200C
:1021D000129013924FF4806014900520159016927F
:1021E000179118938DF864208DF865208DF866207E
:1021F0000DA91A4803F0E2FF48BB002300934FF4F7
:10220000F071019102934FF4887203920493059345
:1022100006934FF4806007900520089009930A9177
:102220000B928DF830308DF831308DF8323001223C
:1022300069460A4803F0C2FF60B9012240210948FB
:1022400003F0EAFA1AB010BD00F054F9B4E700F058
:1022500051F9D2E700F04EF9EFE700BF0412002475
:1022600000100050001C0258F0B5BFB00446002119
:1022700039913A913B913C913D91C02208A80DF0D3
:10228000F9F82268704B9A4201D03FB0F0BD4FF090
:1022900000520023CDE90823192312934FF4FC7355
:1022A00013930223149315930723169308A805F09C
:1022B0007FFC002840F0C480644BD3F8E42042F057
:1022C0000802C3F8E420D3F8E42002F008020092E8
:1022D000009AD3F8E02042F01002C3F8E020D3F8CF
:1022E000E02002F010020192019AD3F8E02042F4BB
:1022F0008072C3F8E020D3F8E02002F480720292EA
:10230000029AD3F8E02042F02002C3F8E020D3F88C
:10231000E02002F020020392039AD3F8E02042F07A
:102320000102C3F8E020D3F8E02002F00102049299
:10233000049AD3F8E02042F08002C3F8E020D3F8FA
:10234000E02002F080020592059AD3F8E02042F0E6
:102350004002C3F8E020D3F8E02002F040020692E9
:10236000069AD3F8E02042F00802C3F8E020D3F840
:10237000E03003F008030793079B6023399302269C
:102380003A9600243B943C940E253D9539A930485B
:1023900003F032F940F2F76339933A963B943C9458
:1023A0003D9539A92B4803F027F94FF48063399301
:1023B0003A963B943C943D9539A9274803F01CF983
:1023C000042339933A963B943C943D95234F39A985
:1023D000384603F011F94FF47F4339933A963B9412
:1023E0003C943D9539A91E4803F006F947F2C00315
:1023F00039933A963B943C943D9539A9194803F09A
:10240000FBF84FF4807339933A963B943C940D2338
:102410003D9339A9384603F0EFF8402339933A96B3
:102420003B943C943D9539A90F4803F0E5F82246CA
:102430002946582002F0E6F8582002F019F924E75E
:1024400000F058F838E700BF001000500044025870
:1024500000100258002002580014025800000258D0
:10246000001C025800180258000C025830B585B004
:102470000024009401940294039402F007F90125CA
:102480008DF800508DF801404FF040430193182320
:102490008DF808308DF809408DF80A4003238DF837
:1024A0000B308DF80C408DF80D408DF80E508DF8E6
:1024B0000F40684602F008F98DF801504FF01053B4
:1024C000019312238DF808308DF80F50684602F002
:1024D000FBF8042002F0E8F805B030BD08B502684A
:1024E000034B9A4200D008BD01F064FAFBE700BF3D
:1024F0000000014072B6FEE700B59FB04C220021FB
:102500000BA80CF0B7FF2022002103A80CF0B2FFAB
:10251000022004F03FF8002300933E4BDA6A22F0D9
:102520000102DA62DB6A03F0010300933A4B9A6915
:1025300042F440429A619B6903F440430093009B3C
:10254000354B9B6913F4005FFAD0344BD3F8F42079
:1025500042F00202C3F8F420D3F8F43003F002038F
:102560000193019B002302932B4B9A6942F4404252
:102570009A619B6903F440430293264BDA6A42F066
:102580000102DA62DB6A03F001030293029B224B31
:102590009B6913F4005FFAD003F0F4FF01F030FA06
:1025A0001E4A136F23F01803136705220B924FF492
:1025B00080330C9301230D930223149315931692E9
:1025C000C02217921893042219921A9308231B937E
:1025D00000231C931D930BA804F0D0FBB0B93F233C
:1025E00003930323049300230593082306934023B6
:1025F000079308934FF4806209920A93042103A879
:1026000005F010F820B91FB05DF804FBFFF772FF6A
:10261000FFF770FF000400580048025800440258B9
:1026200008B5374B5B6913F4003F13D1BFF34F8FED
:10263000BFF36F8F324B0022C3F85022BFF34F8F8E
:10264000BFF36F8F5A6942F400325A61BFF34F8F64
:10265000BFF36F8F2A4B5B6913F4803F27D1284B60
:102660000022C3F88420BFF34F8FD3F88040C4F317
:102670004E3000E01846C4F3C90243F6E07303EAA3
:10268000401343EA82731E49C1F860321346013A8F
:10269000002BF2D1431E0028ECD1BFF34F8F4B69C2
:1026A00043F480334B61BFF34F8FBFF36F8F01F063
:1026B00053F9FFF7DBFEFFF71FFFFFF761FCFFF7A2
:1026C000CFFA00F01FF8FFF7E3FBFFF7E5FA00F0A1
:1026D00061F8FFF715FD00F09DFA00F08DFC00F0A9
:1026E00015FA00F055FA09F0ABFAFFF73DFAFFF7DB
:1026F00031FD09F0EFFAFFF725FC0AF0D5FBFEE704
:1027000000ED00E000B583B01F4BD3F8D42042F0B9
:102710000102C3F8D420D3F8D43003F001030193AD
:10272000019B1A481A4B03601D23436000238360FA
:10273000C36003610222426108228261C3610362B5
:102740004FF00072426201228262C36203634363FC
:10275000836303F0C3FD80B9002211460B4803F0E8
:10276000EDFD68B9002205217A2001F04BFF7A20A7
:1027700001F07EFF03B05DF804FBFFF7BBFEEBE763
:10278000FFF7B8FEEEE700BF00440258AC12002489
:102790004000005208B50B480B4B03600122426019
:1027A000202383601023C360162303610023436149
:1027B0008261C361036204F08DFA00B908BDFFF7BE
:1027C00099FEFBE788130024005000522DE9F043E6
:1027D000BBB004460021359136913791389139913B
:1027E000C02204A80CF046FE2268554B9A4202D043
:1027F0003BB0BDE8F0834FF000720023CDE9042325
:1028000004A805F0D5F9002840F091804D4BD3F88D
:10281000D42042F48042C3F8D420D3F8D42002F468
:1028200080420092009AD3F8E02042F01002C3F8F0
:10283000E020D3F8E02002F010020192019AD3F8D0
:10284000E02042F00202C3F8E020D3F8E02002F0DA
:1028500002020292029AD3F8E02042F00802C3F882
:10286000E020D3F8E03003F008030393039B4FF01C
:102870000409CDF8D4900226369600253795032713
:1028800038974FF00908CDF8E48035A92E4802F0BA
:10289000B3FECDF8D490369637953897CDF8E480CE
:1028A000DFF8B49035A9484602F0A6FE4FF4605315
:1028B0003593369637953897CDF8E48035A9234877
:1028C00002F09AFE402335933696379538970A23BF
:1028D000399335A9484602F08FFE1D481D4B036011
:1028E000162343608560C560056146618561C561E9
:1028F00005624FF00073436280238362C562056303
:102900004563856303F0EAFCA0B900221146104834
:1029100003F014FD88B90E4BE3631C6400220E2102
:102920005C2001F06FFE5C2001F0A2FE60E7FFF783
:10293000E1FD6BE7FFF7DEFDE7E7FFF7DBFDEAE729
:10294000005000520044025800100258000C025877
:102950001C130024800000520004025800B595B0FA
:102960004FF480730C9300230D930E9311931293E5
:1029700013934FF080720F920B93052206920093EF
:102980000493102302934FF48003059301230393D0
:10299000019341F288336A4606A9054803F0F7FF20
:1029A00010B915B05DF804FB6FF00200F9E700BF45
:1029B0008813002400B591B04FF4807308934FF44E
:1029C0000053059300230A930D930E930F930993DD
:1029D0004FF080720B92079303230C939F23029373
:1029E00041F2883202A90F4803F013FF98B941F26F
:1029F000883201A90B4803F05BFF78B99DF80430D9
:102A00009DF80500000240EA03409DF80630184397
:102A100011B05DF804FB4FF0FF30F9E76FF00400F0
:102A2000F6E700BF8813002400B595B04FF480731B
:102A30000C9300230D930E931193129313930F9302
:102A40000B930623069341F2883206A9134803F03C
:102A5000E0FEE0B9022300930193002304930123D5
:102A60000393102202924FF48002059205220692EF
:102A70004FF080720F92109341F288336A4606A994
:102A8000064803F084FF28B915B05DF804FB6FF029
:102A90000100F9E76FF00200F6E700BF8813002499
:102AA00000B58FB04FF4807306934FF40053039337
:102AB000002308930B930C930D934FF480620792BD
:102AC00009930593019052230093FFF7ADFF60B97E
:102AD00041F288326946094803F09BFE40B9FFF78E
:102AE0003DFF40B90FB05DF804FB6FF00100F9E75E
:102AF0006FF00300F6E76FF00200F3E7881300249D
:102B0000014B01221A7070471813002408B50648BB
:102B1000064B03600023436006F0FEFB00B908BDCE
:102B2000FFF7E8FCFBE700BFD413002400180248BD
:102B300010B5B2B00446C022002102A80CF09AFCE5
:102B40002268114B9A4201D032B010BD4FF40032CE
:102B50000023CDE902234FF48073229302A805F0ED
:102B600027F868B9094BD3F8DC2042F04002C3F8DB
:102B7000DC20D3F8DC3003F040030193019BE3E752
:102B8000FFF7B8FCEEE700BF001802480044025807
:102B900008B50A480A4B0360002343607F22826025
:102BA000FF22C26003618361C361436106F058FC88
:102BB00000B908BDFFF79EFCFBE700BFE813002447
:102BC0000040005810B5B0B00446C022002168464D
:102BD0000CF050FC22680D4B9A4201D030B010BD71
:102BE0004FF480020023CDE900234FF480732D932E
:102BF000684604F0DDFF28B9054A136F43F400432B
:102C00001367EBE7FFF776FCF6E700BF00400058DC
:102C100000440258064B074A1A6000225A609A6024
:102C20004FF48041D9601A6106225A61704700BF93
:102C30000C14002400700052F0B5BBB00446002113
:102C400035913691379138913991C02204A80CF012
:102C500011FC22682C4B9A4201D03BB0F0BD4FF4DE
:102C600080320023CDE9042304A804F0A1FF00284A
:102C700046D1264BD3F8D42042F48032C3F8D42076
:102C8000D3F8D42002F480320192019AD3F8E020E4
:102C900042F00402C3F8E020D3F8E02002F004027E
:102CA0000292029AD3F8E02042F00802C3F8E02032
:102CB000D3F8E03003F008030393039B4FF4F85379
:102CC00035930227369701263796032538950C242D
:102CD000399435A90E4802F08FFC042335933697BA
:102CE00037963895399435A90A4802F085FC0022B8
:102CF0000E21312001F086FC312001F0B9FCACE757
:102D0000FFF7F8FBB5E700BF00700052004402581F
:102D100000080258000C025800B583B00A4BD3F8E3
:102D2000F42042F00202C3F8F420D3F8F43003F0A8
:102D300002030193019B00220F216FF0010001F0BB
:102D400061FC03B05DF804FB004402580F2801D970
:102D50000120704710B58AB00446002201461920B0
:102D600001F050FC192001F083FC174B1C60174B3D
:102D7000D3F8F02042F00102C3F8F020D3F8F0308D
:102D800003F001030093009B01A902A804F0DAFDFF
:102D900004F0C6FD43000E48A0FB03239B0C013B3F
:102DA0000C480D4A026040F2E732C26043600023E3
:102DB0000361836007F02AFD10B101200AB010BD45
:102DC000044807F08FFBF9E70C0000240044025888
:102DD00083DE1B438814002400000140FEE7FEE769
:102DE000FEE7FEE7FEE7704708B5024801F0A4FFE2
:102DF00008BD00BFD814002408B5024807F0BEFB88
:102E000008BD00BF8814002408B5024807F0EEF999
:102E100008BD00BF0C14002408B5024803F061F996
:102E200008BD00BF0412002408B5024803F030FEBC
:102E300008BD00BF8813002408B5034803F0C8FA92
:102E4000024803F0C5FA08BDAC1200241C1300248C
:102E50000120704708B50CF0CFFA162303604FF03D
:102E6000FF3008BD08B54FF0FF31FFF7F3FFFEE775
:102E700070B50C461646002506E0AFF300802146EB
:102E800001F8010B01350C46B542F6DB304670BD4A
:102E900070B50C461646002504E014F8010B00F04E
:102EA0009BF80135B542F8DB304670BD4FF0FF307E
:102EB00070474FF400534B6000207047012070476B
:102EC0000020704710B503460C4A0D490D480068B4
:102ED00040B10C4800680344521A934206D8094A8C
:102EE000136010BD0748084C0460F2E70CF084FA48
:102EF0000C2303604FF0FF30F3E700BF000008240D
:102F000000200000D4140024586E0024274AD2F870
:102F1000883043F47003C2F88830254B1B6803F0F7
:102F20000F03062B06D8224A136823F00F0343F041
:102F3000070313601F4B1A6842F001021A60002257
:102F40001A6119681C4A0A401A60194B1B6813F071
:102F5000080F06D0164A136823F00F0343F0070347
:102F60001360144B00229A61DA611A621349996264
:102F70001349D962134919635A639963DA6319646F
:102F80005A64196821F4802119601A660E4B1A6878
:102F90000E4B1340B3F1005F03D20D4B0122C3F877
:102FA00008210C4B43F2D2021A60704700ED00E09A
:102FB00000200052004402587FEDF6EA00020202AF
:102FC0000000FF01800201010010005C0000FFFF13
:102FD000008000510040005200B583B001904FF6D0
:102FE000FF73012201A9034808F024F8019803B0F7
:102FF0005DF804FB5015002408B51748174B036013
:103000004FF4E133436000238360C36003610C220B
:1030100042618361C36103624362836208F0D7F84F
:1030200070B900210C4808F04AF960B900210A483B
:1030300008F06AF950B9084808F022F948B908BD03
:10304000FFF758FAEDE7FFF755FAEFE7FFF752FA07
:10305000F1E7FFF74FFAF2E75015002400100140A6
:1030600030B5B9B004460021339134913591369191
:103070003791C02202A80CF0FDF92268284B9A4231
:1030800001D039B030BD01220023CDE9022302A8CE
:1030900004F08EFD00283DD1224BD3F8F02042F001
:1030A0001002C3F8F020D3F8F02002F010020092D2
:1030B000009AD3F8E02042F00102C3F8E020D3F8F0
:1030C000E03003F001030193019B4FF4C06333939D
:1030D000022334930025359536950723379333A97A
:1030E000114802F089FA1148114B0360292343600B
:1030F0008560C5604FF48063036145618561C5618A
:103100000562456201F046FC38B9084BC4F88030CE
:103110009C63B6E7FFF7EEF9BEE7FFF7EBF9F4E7DC
:10312000001001400044025800000258D814002446
:1031300010000240DFF834D0FFF7E8FE0C480D49DC
:103140000D4A002302E0D458C4500433C4188C4202
:10315000F9D30A4A0A4C002301E013600432A24268
:10316000FBD30CF063F9FFF75BFA7047000008240B
:1031700000000024C8090024AC680108E00900240C
:10318000546E0024FEE7002304E011F803C000F8A9
:1031900003C001339342F8DB7047002304E003F1DE
:1031A0004042002111700133B3F1007FF7D3704723
:1031B00008B5FFF7F2FF4FF44001064800F015FB99
:1031C000054B18604FF40001044800F00EFB044B5F
:1031D000186008BD0000C0C0E4150024000080C1D4
:1031E000E815002408B50146024B186800F00CFBF6
:1031F00008BD00BFE4150024406820F003007047BC
:10320000436803F003030B434360704708B5FFF7BF
:10321000F3FFB0FA80F0400908BD406800F00100FB
:103220007047436843F0010343607047436823F0ED
:10323000010343607047436843F0020343607047F3
:10324000436823F002034360704708307047084426
:10325000704710B50C46FFF7CFFF1034A04234BFC3
:103260000020012010BD01468060C0600020086180
:1032700009E002EB40131C3301EB83035960013278
:103280001F2AF6DD0130172805DC031D01EB83033F
:1032900000225A60F4E7704738B50446FFF7D5FFBF
:1032A00005462046FFF7A8FF011F2846FFF7CFFF7E
:1032B00005462046FFF7AAFF08B9284638BD034B4C
:1032C000034ABE2103480CF077F800BF245D0108D3
:1032D000B06001083C5D010810B50446FFF7DCFF53
:1032E000046010BD10B50446FFF7F6FFFFF7A3FF1B
:1032F0002046FFF796FF10BD10B50446FFF7CCFF40
:10330000FFF79EFF2046FFF791FF10BD08B54B1E4B
:103310000B4202D14942084008BD034B034ADC215D
:1033200003480CF049F800BF605D0108A460010883
:103330003C5D010808B5084401384B4218404B1E5B
:103340000B4200D108BD034B034AE32103480CF0B4
:1033500033F800BF605D0108846001083C5D01082E
:103360002DE9F04116461F4603EB42121C3200EBDA
:10337000820253681BB304460D4639B38B60C860A4
:10338000D9600846FFF761FF80460421FFF7D2FFAE
:10339000804522D107EB46131C3304EB83035D60A9
:1033A000012303FA06F122690A432261BB40043675
:1033B00004EB860467683B436360BDE8F0810A4B19
:1033C0000A4A4FF4A4710A480BF0F6FF094B074A6A
:1033D00040F2491106480BF0EFFF074B034A4FF448
:1033E000A77103480BF0E8FFA05D01089060010899
:1033F0003C5D0108D05D01080C5E010838B5CD6860
:103400008C686DB19CB1E560AC6003EB421C0CF1C3
:103410001C0C00EB8C0CDCF804508D420ED038BD37
:10342000124B134A40F2311112480BF0C5FF124BF8
:103430000F4A4FF499710F480BF0BEFFCCF80440CF
:10344000A042ECD101249C40111D00EB81014B688E
:1034500023EA04034B60002BE1D1012303FA02F2BB
:10346000036923EA02030361D9E700BF705E010824
:10347000706001083C5D01089C5E010808B54B1EA8
:103480000B4204D1084401384942084008BD034BAF
:10349000034AD72103480BF08FFF00BF605D01088E
:1034A000646001083C5D010808B5421E6FF04043AE
:1034B0009A4201D3002008BDFFF7E0FF0C2838BF77
:1034C0000C20F8E72DE9F84307460D46FFF7BDFE4F
:1034D000291FFFF7BCFE04463846FFF78DFE06465F
:1034E000A0EB05082046FFF7B0FE81460421FFF758
:1034F00021FF814519D1A8F1040805EB0803043325
:103500009E4219D141462046FFF77AFE2046FFF73A
:1035100073FE0B2817D929463846FFF771FE20465F
:10352000FFF7E0FE2046BDE8F8830A4B0A4A40F266
:1035300073110A480BF040FF094B074A4FF4BB7167
:1035400006480BF039FF074B034A4FF4BC710348A0
:103550000BF032FFC85E0108BC6001083C5D010849
:103560003C5F01087C5F010828B1B0FA80F0C0F12F
:103570002000013870470020FBE770B504460D4677
:1035800016467F2808D8002804DB84100020286015
:10359000346070BD0330F8E7FFF7E6FF431FDC40FF
:1035A00084F020040638F2E730B583B005460C46B7
:1035B0000846FFF721FE6A4601A9FFF7DEFF009BE0
:1035C000019A21462846FFF7CBFE03B030BD00002C
:1035D00070B506460C4615460846FFF71EFE28B194
:1035E00029462046FFF735FE38B970BD0B4B0C4A13
:1035F0004FF4D3710B480BF0DFFE29462046FFF74E
:1036000061FF05462046FFF767FE2846FFF713FED9
:1036100029463046FFF7C8FFE7E700BFC85F01084B
:10362000C86001083C5D010810B50C4641B1FFF7C8
:10363000CFFF2046FFF760FE2046FFF706FE10BDD5
:103640000846FCE770B504460D4616461F2806D905
:10365000FFF78AFF431F0120984001380444324697
:1036600029462046FFF789FF70BD034690FAA0F077
:10367000B0FA80F00BB94FF0FF307047F8B5044650
:103680000F4616460D6811682A1D00EB820250682D
:103690004FF0FF338B4018400FD120696B1C4FF067
:1036A000FF3202FA03F3184019D0FFF7DEFF054698
:1036B0003860031D04EB8303586848B1FFF7D5FF5A
:1036C000306000EB45131C3304EB83035868F8BDEE
:1036D000044B054A40F2251104480BF06DFE002012
:1036E000F5E700BFF85F0108D86001083C5D0108FC
:1036F00070B582B0002301930093F9B104460E46E1
:103700006A4601A93046FFF79DFF6A4601A9204697
:10371000FFF7B4FF054690B1FFF76EFDB04206D348
:10372000009B019A29462046FFF768FE07E0054BFB
:10373000054A4FF4EA7105480BF03EFE0025284685
:1037400002B070BD34600108506001083C5D0108A2
:1037500040F674407047082070470000F8B50746EF
:103760000C461546FFF7F7FF0421281AFFF7CEFD98
:1037700014F0030F27D10546A0F10C02144B9A4216
:1037800023D86FF003012046FFF761FD0646294666
:10379000FFF736FD3046FFF744FD3046FFF750FD9A
:1037A00031463846FFF700FF3046FFF795FD0546E6
:1037B0000021FFF725FD2846FFF738FD2846FFF7D3
:1037C0003AFD2046F8BD0020FCE70020FAE700BFE4
:1037D000F4FFFF3F10F0030F05D110B50446FFF7CB
:1037E00042FD204610BD0020704770B505460E46CC
:1037F000FFF7F0FF0446FFF7ABFF321A2918204607
:10380000FFF7ACFF204670BD38B5044608460421DA
:10381000FFF74AFE054601462046FFF769FF0146CD
:103820002A462046FFF700FF38BD82B0BFF35B8F0A
:103830000368BFF35B8F0193BFF35B8F0198BFF306
:103840005B8F012814BF0020012002B0704782B0B6
:1038500002460121BFF35B8F50E8003F40E8001CA7
:10386000BCF1000FF8D1BFF35B8F019310E0012191
:10387000BFF35B8F52E8003F42E8001CBCF1000F31
:10388000F8D1BFF35B8FBFF35B8F0193BFF35B8F07
:10389000BFF35B8F019BBFF35B8F012BE7D0031D51
:1038A000BFF35B8F53E8002F013243E8002100296A
:1038B000F8D1BFF35B8FBFF35B8F01238360BFF34E
:1038C0005B8F02B07047BFF35B8F8368BFF35B8F82
:1038D00003B97047031DBFF35B8F53E8002F013A14
:1038E00043E800210029F8D1BFF35B8FBFF35B8F62
:1038F0004368BFF35B8F33B1BFF35B8F00238360FB
:10390000BFF35B8FE5E7BFF35B8F50E8002F40E824
:1039100000310029F9D1BFF35B8FEDE7BFF35B8F77
:1039200000230360BFF35B8FBFF35B8F4360BFF384
:103930005B8FBFF35B8F8360BFF35B8F034BC36011
:10394000034B0361034B4361704700BF4F380008CE
:10395000C73800082B38000810B5032000F040FEDF
:1039600003F066FD0F498B69C3F303230E4AD35C52
:1039700003F01F03D8408B6903F00F03D35C03F0FF
:103980001F0320FA03F3094A1360094B18600F2044
:10399000FFF7DCF910B10124204610BD0446FFF703
:1039A000BBF9F9E700440258145D01080400002443
:1039B00000000024034B1B78034A11680B4413607A
:1039C000704700BF08000024EC150024014B186864
:1039D000704700BFEC15002438B50446FFF7F6FF2A
:1039E0000546B4F1FF3F02D0044B1B781C44FFF79F
:1039F000EDFF401BA042FAD338BD00BF08000024F1
:103A0000014B1868000C70470010005CF0B583B0E3
:103A10000022019290F85020012A00F057820346BC
:103A2000012280F850200068826812F0040F09D04B
:103A30005A6D42F020025A650120002283F850207E
:103A400003B0F0BD0A68002A0ADBC2F31304002C9D
:103A50004ED1C2F3846201249440C2692243C26100
:103A60001D684C683035220A920002F00C02A858FA
:103A700004F01F0E1F2404FA0EF420EA04000C6860
:103A8000C4F3846C0CFA0EFC40EA0C00A8501C68CD
:103A9000A26812F0040200D00122A06810F0080011
:103AA00000D0012002432FD01868826812F0010F65
:103AB00040F008820A68CD68D0F8C040C2F313060F
:103AC00024EA060405F0180CB24D25FA0CF52A403C
:103AD000C2F313022243C0F8C020C868AE4A904225
:103AE00000F0B0800A68002AC0F26B810020A4E7D1
:103AF00092FAA2F232B1B2FA82F202F01F0201246B
:103B00009440AAE72022F8E70F688D681434780EF5
:103B1000800000F004002658C7F3045E4FF0070C45
:103B20000CFA0EFC26EA0C0C05FA0EF54CEA05051B
:103B300025509A48006800F07040B0F1805F0BD0CB
:103B40001C68E06810F0100F39D14869E468C4F3CC
:103B500082046400A04006E048691C68E468C4F37D
:103B600082046400A0400D69042D36D01F680E68E1
:103B7000603757F8254004F0004406F0F84630431B
:103B8000204347F8250018680E694C7E012C1ED092
:103B90001546603050F8264024F000442C4340F88D
:103BA00026401D680C69087E012813D0286920F47E
:103BB000F04004F01F04A24002432A6174E7486900
:103BC000E468A40804F004046400A040CBE74FF0CC
:103BD0000045DEE74FF40062E8E71868026E02F085
:103BE000F8420C68B2EB846F1DD01868426E02F088
:103BF000F8420C68B2EB846F1AD01868826E02F03B
:103C0000F8420C68B2EB846F17D01868C26E02F0ED
:103C1000F8420C68B2EB846F7FF446AFC26E22F0BC
:103C20000042C26640E7026E22F000420266DCE714
:103C3000426E22F000424266DFE7826E22F00042CE
:103C40008266E2E71C680A68C2F31305002D34D1CE
:103C5000900E013000F01F0009288CBF00200120C9
:103C6000002861D0002D37D1900E0130800600F081
:103C7000F840002D3CD1960E013606F01F070126B4
:103C8000BE403043002D41D1920E013202F01F029E
:103C900002EB42021205024388681434550EAD004F
:103CA00005F004056659C2F304520727974026EA37
:103CB000070690403043605114E792FAA2F048B1F1
:103CC000B0FA80F0013000F01F0009288CBF0020FE
:103CD0000120C5E72020F5E792FAA2F030B1B0FA52
:103CE00080F00130800600F0F840C2E72020F8E7BD
:103CF00092FAA2F646B1B6FA86F6013606F01F062B
:103D0000012707FA06F6BCE72026F6E792FAA2F2A8
:103D100042B1B2FA82F2013202F01F0202EB420219
:103D20001205B8E72022F6E7CDB9900E01308006E3
:103D300000F0F840FDB9960E013606F01F07012687
:103D4000BE40304365BB920E013202F01F0202EB0F
:103D500042021E3A120542F0007202439CE792FAB8
:103D6000A2F030B1B0FA80F00130800600F0F840E7
:103D7000E0E72020F8E792FAA2F646B1B6FA86F616
:103D8000013606F01F06012707FA06F6D9E72026B6
:103D9000F6E700BFFFFF0F000000FF470010005CC8
:103DA00092FAA2F25AB1B2FA82F2013202F01F0282
:103DB00002EB42021E3A120542F00072CDE72022C9
:103DC000F3E719684248434CA14218BF81420CBF37
:103DD0000120002021D1404EB56805F0E077F0B118
:103DE0003B48806810F0010000D00120394CA468E5
:103DF00014F0010400D0012420430CBF0120002056
:103E0000002859D03548824212D03548824231D0FC
:103E1000344882423FD000200FE6334EDCE733487F
:103E2000806810F0010000D0012080F00100E7E779
:103E300015F4000FE9D12D4A914201D00020FCE594
:103E400047F40002B16821F0E0710A43B260284AE9
:103E5000126892092749A1FB02129209013252000D
:103E6000019202E0019A013A0192019A002AF9D1E5
:103E70000020E2E515F0807FCAD11C4A914201D0B2
:103E80000020DAE547F08072B16821F0E0710A4362
:103E9000B2600020D1E515F4800F15D1134A91428C
:103EA00001D00020C9E547F48002B16821F0E0713B
:103EB0000A43B2600020C0E55A6D42F020025A6504
:103EC0000120BAE50020B8E50020B6E50220B7E5FC
:103ED000002002400021024000230240000084CB69
:103EE000000052C70000B8CF0063025800600258BB
:103EF00000000024632D3E0538B503689A6812F06F
:103F0000010F56D1044699682B4A114209D0436DDE
:103F100043F010034365836D43F001038365012083
:103F200048E09968254A0A4042F001029A60FFF78A
:103F30004DFD054623682249224A934218BF8B4211
:103F40000DD102F50072926802F01F021D498B42EA
:103F500007D01946994207D032B100202AE01A4A08
:103F6000F1E7A1F58071F5E723681A6812F0010FF7
:103F70001DD19A6812F0010F05D199680F4A0A40C5
:103F800042F001029A60FFF721FD401B0228EBD9A5
:103F900023681B6813F0010FE6D1636D43F0100333
:103FA0006365A36D43F00103A365012002E00020D7
:103FB00000E0002038BD00BF3F000080C0FFFF7F51
:103FC00000200240002102400063025838B5044638
:103FD00003683E493E4A934218BF8B4252D102F5D4
:103FE0000072956805F01F059B6813F0040F69D1F6
:103FF00094F85030012B67D0012384F850302046CC
:10400000FFF77AFF002859D1626DA0F602731340C2
:1040100043F48073636523682D4A934234D01A4673
:10402000934200D01DB9626D22F480126265626D08
:1040300012F4805F2BD0A26D22F00602A2651C2232
:104040001A60002384F850302368214A934221D01B
:104050001A46934221D0052D14BF00210121E5B15C
:10406000D9B9092D19D0636D43F480136365D36802
:1040700013F0007F27D0636D23F4405343F4805343
:10408000636520E0134AACE7A2F58072C8E700221E
:10409000A265D4E7A2F58072DBE7DA6812F0007F50
:1040A00005D0626D22F4405242F4805262659968F4
:1040B000094A0A4042F004029A6004E0002384F8AE
:1040C000503000E0022038BD0220FCE70020024012
:1040D0000021024000630258C0FFFF7F38B504464C
:1040E0000268936813F0020300D00123916811F075
:1040F000010F37D0002B37D1936803F00D03012B4C
:1041000009D0636D43F010036365A36D43F00103B1
:10411000A365012027E09168144B0B4043F0020394
:104120009360236803221A60FFF750FC054623685A
:104130009B6813F0010F13D0FFF748FC401B0228C7
:10414000F5D923689B6813F0010FF0D0636D43F03D
:1041500010036365A36D43F00103A365012002E032
:10416000002000E0002038BD0020FCE7C0FFFF7FFA
:1041700038B5044603684F494F4A934218BF8B42F3
:1041800023D14E4B9B6813F4403F14BF01230023FF
:104190004BB303F091FB05466368B3F5003F1CD0B9
:1041A000B3F5403F1DD0B3F5803F16D0FFF728FC94
:1041B00041F20303984258D8414B9D424FD922689F
:1041C000936843F48073936038BD3E4B9B6813F44F
:1041D000403F14BF01230023DAE71B0CB5FBF3F5C6
:1041E000E4E78508E2E74FF40020002104F02CFD0D
:1041F00005466368B3F5101F2DD022D8B3F5E01F34
:1042000027D004D9B3F5001FD0D14509CEE7B3F5C7
:10421000801F0DD006D9B3F5A01F09D0B3F5C01F7C
:1042200006D0C3E7B3F5002F02D0B3F5402F04D179
:104230009B0C5B00B5FBF3F5B8E7B3F5802FF7D027
:10424000B4E7B3F5201F08D0B3F5301FAED1050A8F
:10425000ACE70509AAE78509A8E7C509A6E722682A
:10426000936823F480739360AEE7174B9D4205D8A3
:104270002268936823F440739360A5E7134B9D4233
:1042800007D82268936823F4407343F480739360E3
:104290009AE70F4B9D4207D82268936823F4407336
:1042A00043F4007393608FE72268936843F440738C
:1042B000936089E700200240002102400023024071
:1042C000002D31010063025821BCBE0041787D0100
:1042D00081F0FA0230B583B000230193002800F08A
:1042E00010810446436DEBB123689A6812F0005FB9
:1042F00003D09968844A0A409A6023689A6812F049
:10430000805F1CD19968814A0A4042F080529A60CD
:104310007F4B1B689B097F4AA2FB03239B09013348
:10432000019309E0FDF764FC0023A36584F8503095
:10433000DAE7019B013B0193019B002BF9D1226835
:10434000936813F0805F40F09C80636D43F010032E
:104350006365A36D43F00103A3650125936813F022
:10436000040300D00123616D11F0100F40F0C180F3
:10437000002B40F0BE80636D23F4817343F0020391
:104380006365936813F0010F21D16349634B9A422F
:1043900018BF8A420CBF0122002274D18B6813F02F
:1043A000010300D001235D49896811F0010100D0AB
:1043B00001210B430CBF0123002343B1002A6BD022
:1043C000574963688A6822F47C1213438B60FFF7B5
:1043D00017FB41F20303984202D9A368102B5DD06A
:1043E000627D236B43EA4233A2681343227F43EA90
:1043F0000243227F012A5CD0626A22B102F4787201
:10440000A16A0A4313432168C868464A024013431D
:10441000CB6021688B6813F0040300D001238A6805
:1044200012F0080200D0012213431BD1227DE36A5F
:1044300043EA8232C8683C4B03401343CB6094F894
:104440003830012B3AD02268136923F0010313613D
:104450002268136923F07043616B0B43136120469C
:10446000FFF786FEE368012B3AD02268136B23F036
:104470000F031363636D23F0030343F001036365CC
:104480003CE000256AE7294B9B6813F0010300D04C
:10449000012383F0010390E7254992E7617D226BB8
:1044A00042EA41321343227F43EA024343F00C03C2
:1044B0009FE7226A013A43EA42439DE72068026986
:1044C0001C4B1340E26B511E226C42EA0142616CAC
:1044D0000A43A16C0A43134343F001030361B7E7A6
:1044E00021680B6B23F00F03A269013A13430B639E
:1044F000C0E7636D43F0100363650125284603B0F0
:1045000030BD0125FAE700BFC0FFFF5FC0FFFF6FAE
:1045100000000024632D3E050020024000210240DF
:104520000023024003C0F0FFFCBFFFFF0060025801
:10453000006302581EF800FC70B582B0002301939E
:1045400090F85030012B42D004460D461646012308
:1045500080F85030FFF7C2FD00282FD1626D1D4B4F
:10456000134043F002036365226891681A4B0B40C5
:1045700005F4803506F0804635432B4343F0004375
:10458000936023689B68002B06DB636D23F00303B5
:1045900043F00103636515E0019B01330193019A28
:1045A0000E4B9A42EDD3636D23F0120343F01003D8
:1045B0006365002384F85030012006E0636D43F00A
:1045C00010036365002384F8503002B070BD0220F0
:1045D000FBE700BFFDEEFFFFC0FFFE3F00F8C32575
:1045E0000649CB6823F4E0631B041B0C000200F4B3
:1045F000E0600343024A1A43CA60704700ED00E0DE
:104600000000FA0500B5174BDB68C3F30223C3F1C2
:10461000070CBCF1040F28BF4FF0040C03F1040E8B
:10462000BEF1060F14D9033B4FF0FF3E0EFA0CFC0F
:1046300021EA0C0199400EFA03F322EA030319431D
:10464000002807DB0901C9B2074B19545DF804FBC8
:104650000023E9E700F00F000901C9B2034B195428
:10466000F4E700BF00ED00E000E400E014ED00E03E
:10467000002807DB00F01F02400901239340024A93
:1046800042F82030704700BF00E100E0BFF35F8FC9
:10469000044B5A6A22F480325A620022C3F89420F2
:1046A000704700BF00ED00E040F00100054BC3F88B
:1046B00094005A6A42F480325A62BFF34F8FBFF3BC
:1046C0006F8F704700ED00E04378144AC2F89830CD
:1046D000D2F8A03023F00103C2F8A0304368C2F83A
:1046E0009C30017BC37A1B0643EA0173817A43EA5B
:1046F000C143417B43EA8143817B43EA4143C17B20
:1047000043EA0143417A43EA0123017A43EA410340
:1047100001780B43C2F8A030704700BF00ED00E005
:1047200003682749274A934218BF8B422FD018327B
:1047300093422CD01832934229D01832934226D07B
:104740001832934223D01832934220D01832934229
:104750001DD002F55672934219D01832934216D0EA
:104760001832934213D01832934210D01832934229
:104770000DD0183293420AD01832934207D0183223
:10478000934204D023F0FF038365806D704710B41B
:10479000D9B210390C4AA2FB0142C2F302120B4CEF
:1047A000A25CC2655F2907D9094A1A4004328265B2
:1047B000806D5DF8044B7047054A1A408265F7E743
:1047C0001000024028000240ABAAAAAAF06001082B
:1047D00000FCFFFF83699BB9836A012B0AD0022B7F
:1047E00002D00BB100207047C36A13F0807F2AD13A
:1047F00000207047C36AB3F1C07F26D00020704705
:10480000B3F5005F0AD0836A022B26D9032B26D189
:10481000C36A13F0807F24D100207047836A032B82
:1048200003D8DFE803F01404140A00207047C36AB9
:1048300013F0807F0DD100207047C36AB3F1C07FB1
:1048400009D00020704701207047012070470120E7
:1048500070470120704701207047012070470020F9
:10486000704701207047000003682249224A9342A2
:1048700018BF8B4228D01432934225D01432934271
:1048800022D0143293421FD0143293421CD01432DF
:10489000934219D01432934216D0DAB2103A174923
:1048A000A1FB0212120916491944A8291FD9154B58
:1048B00013449B000366144B436602F01F0201235E
:1048C00003FA02F282667047DBB2083B0F4AA2FB92
:1048D00003230F4A02EB1312920002660D4A42664E
:1048E000C3F30413012202FA03F38366704708320C
:1048F000DDE700BF085402581C540258ABAAAAAA0C
:10490000F0FBFDBF0082001080080240CDCCCCCC73
:10491000009600168058025801794A1E072A2CD8A2
:1049200030B40368154D164CA34218BFAB4218D0E3
:104930001434A34215D01434A34212D01434A34229
:104940000FD01434A3420CD01434A34209D0143431
:10495000A34206D00B4B0B449B00C3660A4B036774
:1049600005E00A4B0B449B00C366094B0367012318
:1049700003FA02F2426730BC70477047085402588D
:104980001C5402583F820010400902403F96001616
:104990004059025870B50446FFF718F8002C00F093
:1049A000B681054623685349534A934218BF8B4248
:1049B0000CBF0122002250D030318B424DD0183133
:1049C0008B424AD018318B4247D018318B4244D0A9
:1049D00018318B4241D018318B423ED001F55671CF
:1049E0008B423AD018318B4237D018318B4234D0B9
:1049F00018318B4231D018318B422ED018318B4276
:104A00002BD018318B4228D018318B4225D03B490E
:104A10003B4A934218BF8B4200F03181394A93429E
:104A200000F02D811432934200F029811432934218
:104A300000F025811432934200F021811432934218
:104A400000F01D811432934200F019814023636508
:104A5000032384F8353001204AE0022184F8351020
:104A6000002184F834107ABB274A93422CD01832A4
:104A7000934229D01832934226D01832934223D041
:104A80001832934220D0183293421DD002F556724C
:104A9000934219D01832934216D01832934213D051
:104AA0001832934210D0183293420DD018329342EC
:104AB0000AD01832934207D01832934204D01A68B1
:104AC00022F001021A6003E01A6822F001021A6063
:104AD00023681A6812F0010F18D0FEF777FF431B06
:104AE000052BF5D920236365032384F83530012095
:104AF00070BD00BF10000240280002400854025858
:104B00001C54025830540258400002401A68814830
:104B10001040A168E2680A4321690A4361690A43B7
:104B2000A1690A43E1690A43216A0A430243616AAF
:104B3000042900F099807849086878490140B1F16A
:104B4000005F11D36168A1F12905A1F13F0003289D
:104B500088BF052D06D9A1F14700012802D94F3998
:104B6000032901D842F480121A602668756925F07D
:104B70000705636A1D43042B08D1A36A1D43E36A3A
:104B800023B12046FFF726FE002872D1756120462A
:104B9000FFF7C6FDE36D03F01F023F2393408360E0
:104BA00023685F495F4A934218BF8B4242D0183254
:104BB00093423FD0183293423CD01832934239D0BE
:104BC0001832934236D01832934233D0183293427F
:104BD00030D002F5567293422CD01832934229D02D
:104BE0001832934226D01832934223D0183293427F
:104BF00020D0183293421DD0183293421AD0183266
:104C0000934217D0484A934214D01432934211D0A1
:104C1000143293420ED0143293420BD0143293428A
:104C200008D01432934205D01432934202D0143289
:104C3000934213D12046FFF717FEA368802B59D06B
:104C4000236E22791A60636EA26E5A606368013B1C
:104C5000072B52D90023E366236763670020606552
:104C6000012384F8353043E7E16A206B01430A43AE
:104C700061E740236365012084F8350038E70222AC
:104C800084F83520002284F834201A68274911401E
:104C9000A268402A2CD0802A27D00022E06842EA6D
:104CA000D002206942EAD002606942EAD002A069DB
:104CB00042EAD002E06942EAD002206A42EA1012D7
:104CC0000A431A6022681A4B13441A4AA2FB0323B0
:104CD0001B099B00E3652046FFF722FDE26D02F011
:104CE0001F0101228A4042605AE74FF48042D5E713
:104CF0001022D3E700236360A2E72046FFF70CFEF3
:104D0000E36E00221A60236F626F5A60A6E70120EB
:104D1000EEE600BF3F8010FE0010005C0000FFFFC9
:104D20001000024028000240085402580F00FEFF05
:104D3000F8ABFDA7CDCCCCCCF0B583B004460023B6
:104D400001937D4B1D687D4BA3FB0535AD0A876D37
:104D50003E68D7F800C0036879497A48834218BF93
:104D60008B420CBF0120002061D0774A93425ED075
:104D7000183293425BD01832934258D01832934283
:104D800055D01832934252D0183293424FD002F588
:104D9000567293424BD01832934248D01832934205
:104DA00045D01832934242D0183293423FD0183245
:104DB00093423CD01832934239D01832934236D0C5
:104DC0006249634A934218BF8B4212D0614A9342B0
:104DD0000FD0143293420CD01432934209D01432C3
:104DE000934206D01432934203D01432934240F0DF
:104DF00061821A68E16D01F01F010420884010EA09
:104E00000C0F00F0A78212F0040F00F0A38278606C
:104E100012F4004F00F05A8212F4803F40F05082AA
:104E2000A36C002B00F046822046984742E2E26DD8
:104E300002F01F0108228A40324241D070BB424A30
:104E400093422BD01832934228D01832934225D067
:104E50001832934222D0183293421FD01832934214
:104E60001CD002F55672934218D01832934215D0D6
:104E70001832934212D0183293420FD01832934214
:104E80000CD01832934209D01832934206D018320F
:104E9000934203D01A68C2F3C00202E01A68C2F358
:104EA00080026AB11A6822F004021A60E36D03F00E
:104EB0001F0208239340BB60636D43F001036365E9
:104EC000E26D02F01F0226FA02F313F0010F47D041
:104ED00023681B481B498B4218BF83423CD01831C2
:104EE0008B4239D018318B4236D018318B4233D0B7
:104EF00018318B4230D018318B422DD018318B4273
:104F00002AD001F556718B4226D018318B4223D01E
:104F100018318B4220D018318B421DD018318B4272
:104F20001AD018318B4217D018318B4214D0183157
:104F30008B4211D01B6813E000000024B5814E1B8A
:104F4000100002402800024040000240085402586D
:104F50001C540258305402585B6913F0800F3BD147
:104F6000E36D03F01F03042202FA03F3334240D03F
:104F70002268964896498A4218BF824235D0183135
:104F80008A4232D018318A422FD018318A422CD02E
:104F900018318A4229D018318A4226D018318A42E3
:104FA00023D001F556718A421FD018318A421CD095
:104FB00018318A4219D018318A4216D018318A42E3
:104FC00013D018318A4210D018318A420DD01831CE
:104FD0008A420AD013680CE0012303FA02F2BA6095
:104FE000636D43F002036365BAE7126812F0020FC3
:104FF0003DD1E36D03F01F03102202FA03F33342A5
:105000005FD02268714872498A4218BF824234D008
:1050100018318A4231D018318A422ED018318A4252
:105020002BD018318A4228D018318A4225D0183125
:105030008A4222D001F556718A421ED018318A4226
:105040001BD018318A4218D018318A4215D0183135
:105050008A4212D018318A420FD018318A420CD0BD
:1050600018318A4209D01268C2F3800208E0BB609E
:10507000636D43F004036365BBE71268C2F3C002CB
:10508000FAB1BB6023681A6812F4802F0DD01B6838
:1050900013F4002F04D1236C9BB12046984710E0F5
:1050A000A36C73B1204698470BE01A6812F4807F16
:1050B00003D11A6822F008021A60236C0BB1204653
:1050C0009847E36D03F01F03202202FA03F33342F3
:1050D00000F0928022683D483D498A4218BF8242D2
:1050E0002ED018318A422BD018318A4228D018315C
:1050F0008A4225D018318A4222D018318A421FD0E4
:1051000018318A421CD001F556718A4218D01831E4
:105110008A4215D018318A4212D018318A420FD0F3
:1051200018318A420CD018318A4209D018318A428B
:1051300006D018318A4203D01268C2F3400202E05E
:105140001268C2F30012002A56D0BB6094F83530C2
:10515000DBB2042B0ED023681A6812F4802F39D0EA
:105160001B6813F4002F2CD1636C002B44D0204615
:10517000984741E02268136823F016031360226801
:10518000536923F080035361236CB3B12268136821
:1051900023F008031360E36D03F01F023F239340E5
:1051A000BB60012384F83530002384F83430236D4C
:1051B000002B7FD0204698477CE0A36C002BE5D1E4
:1051C000E9E7E36BC3B12046984715E010000240C1
:1051D000280002401A6812F4807F09D11A6822F070
:1051E00010021A60012384F83530002384F834302B
:1051F000E36B0BB120469847636D002B5AD0636D6B
:1052000013F0010F52D0042384F8353023689649F7
:10521000964A934218BF8B422FD0183293422CD01B
:105220001832934229D01832934226D01832934232
:1052300023D01832934220D0183293421DD002F569
:105240005672934219D01832934216D018329342B4
:1052500013D01832934210D0183293420DD0183226
:1052600093420AD01832934207D01832934204D0A6
:105270001A6822F001021A6003E01A6822F00102A3
:105280001A60019B01330193AB4204D823681B6869
:1052900013F0010FF5D123681B6813F0010F0BD039
:1052A000032384F83530002384F83430E36C0BB1E9
:1052B0002046984703B0F0BD012384F83530F2E76B
:1052C000236C002BF6D020469847F3E712F0200F0E
:1052D0003AD123686449654A934218BF8B422FD064
:1052E000183293422CD01832934229D0183293426C
:1052F00026D01832934223D01832934220D018324D
:1053000093421DD002F55672934219D0183293423F
:1053100016D01832934213D01832934210D018325C
:1053200093420DD0183293420AD01832934207D0DC
:105330001832934204D01A6822F004021A6003E083
:105340001A6822F008021A60236C002BB2D02046A3
:105350009847AFE70220884010EA0C0F60D012F0A7
:10536000020F5DD0786012F4004F0ED012F4803F2F
:1053700005D1636C002B9DD0204698479AE7E36BDC
:10538000002B97D02046984794E712F0200F40D189
:1053900023683549354A934218BF8B422FD01832C3
:1053A00093422CD01832934229D01832934226D0FF
:1053B0001832934223D01832934220D018329342AD
:1053C0001DD002F55672934219D01832934216D06E
:1053D0001832934213D01832934210D018329342AD
:1053E0000DD0183293420AD01832934207D01832A7
:1053F000934204D01A6822F00A021A6003E01A6885
:1054000022F014021A60012384F83530002384F856
:105410003430E36B002B3FF44DAF2046984749E70B
:10542000082000FA01F111EA0C0F3FF443AF12F02B
:10543000080F3FF43FAF1A6822F00E021A60E36DC6
:1054400003F01F03012202FA03F37B60626584F814
:105450003520002384F83430E36C002B3FF42AAF6E
:105460002046984726E700BF10000240280002406F
:10547000002837D010B5044690F86130002B2CD0AE
:10548000022384F8613021680A68174B1340626870
:10549000E069024313430B6021684A6B134B1340CE
:1054A000A268A069024313434B632268116C104B3E
:1054B0000B40E1680B43136421684B6B23F44013EA
:1054C00020696269520542EA005213434B6300208F
:1054D0006066012384F8613010BD80F86030FCF70D
:1054E000FFFBCDE701207047BFFFF8FFF8FEFFFF8D
:1054F0000000FFFF90F86030012B74D030B401231E
:1055000080F86030022380F86130C1EBC10200EB0B
:105510008202D46A136B44EA0343956B43EA055352
:10552000D26B43EA4253A4F10902012A21D9C1EB0B
:10553000C10200EB8202526B43EA026361BB046862
:10554000656A2A4A2A40134363620268C1EBC103B9
:1055500000EB83039C6A9461DB6A093B012B11D940
:10556000012380F86130002380F86030184630BC99
:105570007047C1EBC10200EB8202526B02F07F4226
:105580001343DBE7C1EBC10100EB81014B6B026808
:1055900023F07F439362E3E70B2C1BD0144D046888
:1055A000E26922EA05021343E3610268C1EBC10329
:1055B00000EB83039C6A1461DB6A093B012BCFD8A3
:1055C000C1EBC10100EB81014B6B026823F07F430B
:1055D0001362C5E7C1EBC10200EB8202126C43EA21
:1055E0008243044DDBE70220704700BFF0FFCC0090
:1055F0000F0033FF0F003FFFF0B583B000236BE0D7
:1056000085685E000324B44025EA0405CC68B440F4
:105610002C438460446824EA0C0C4C68C4F30014E6
:105620009C4044EA0C04446068E0DD08083550F80A
:10563000256003F007044FEA840C0F2404FA0CF4ED
:1056400026EA040E0C6904FA0CF444EA0E0440F84D
:1056500025406BE0092400E0002404FA0EF42C43FA
:105660000CF1020C694D45F82C404FF0B044256810
:10567000D44325EA02064F6817F4801F01D042EA9E
:1056800005064FF0B0452E606D6804EA05064F68C8
:1056900017F4001F01D042EA05064FF0B0456E60D6
:1056A000D5F8845004EA05064F6817F4003F01D08E
:1056B00042EA05064FF0B045C5F88460D5F8805041
:1056C0002C404E6816F4803F01D042EA05044FF0AA
:1056D000B042C2F8804001330A6832FA03F400F0A5
:1056E00092804FF0010C0CFA03FC1CEA0202F2D08B
:1056F0004C6804F00304013C012C81D94C6804F08F
:105700000304032C0CD0C4685D004FF0030C0CFAAA
:1057100005FC24EA0C0C8C68AC4044EA0C04C46020
:105720004C6804F00304022C3FF47FAF04684FEA96
:10573000430E4FF0030C0CFA0EFC24EA0C0C4C68E0
:1057400004F0030404FA0EF444EA0C0404604C6808
:1057500014F4403FBFD02E4CD4F8F45045F002056D
:10576000C4F8F450D4F8F44004F002040194019C0D
:105770004FEA930C0CF10205244C54F8255003F029
:1057800003044FEA840E0F2404FA0EF425EA0405FC
:10579000204CA0423FF460AF04F58064A04222D0C8
:1057A00004F58064A04220D004F58064A0421ED09D
:1057B00004F58064A0421CD004F58064A0421AD095
:1057C00004F58064A04218D004F58064A04216D08D
:1057D00004F58064A04214D004F58064A0423FF434
:1057E00039AF0A2439E7012437E7022435E70324D7
:1057F00033E7042431E705242FE706242DE70724A7
:105800002BE7082429E703B0F0BD00BF00040058CF
:1058100000440258000002580AB18161704709042F
:105820008161704730B514461D464FF0000E724638
:105830000BE05FFA8EFC0CF1010C01F802C00132A2
:10584000013B002BF5D10EF1010EBEF10F0F08D870
:1058500010F80E3002EB030CBCF5807FF1D901206B
:1058600030BD00238B542A6091F800C01A4611E025
:1058700044F8232001330132C85C6045F8D0BCF104
:105880001F0F0BD8012000FA0CF0904208D95200EB
:105890000CF1010CC85C0028EED1E1E70120DFE744
:1058A0000120DDE770B5ADF5A26D05460C4601ABF4
:1058B00002AA0DF20C41FFF7B5FF20BB03460EE034
:1058C000A02202A951F8236002F1280104EB810112
:1058D0004E600DF20C41C95C0139A1540133019AAB
:1058E0009A4210D9EA18127C002AE9D0F02A0DD089
:1058F00002F00F01120902EB820201EB4202013AAF
:10590000A12ADED901200DF5A26D70BDA122D8E734
:1059100030B5ADF2145D05460C460DF20C5301AAEC
:105920000DF58161FFF77EFFE0B90346DDF80C2538
:105930009A4217D9EA18127C0B2A12D801A951F8F9
:10594000231002F1020C04EB8C0CCCF804100DF5C2
:10595000816111F803C00CF1FF3C04F802C001336F
:10596000E4E701200DF2145D30BD10B590B00B4698
:10597000046804F5F861914206D004F5FC61914297
:1059800005D0012010B010BD04F5FB6401E004F562
:10599000FF64ABB301A91846FFF7BAFF0028F1D1A5
:1059A0006FF0F023236063600C2126E001F13F03D8
:1059B0006B4413F83C3C1B0203F470634A1C0DF16A
:1059C000400C0CEB820212F8382C1A43023901F118
:1059D00040036B4413F83C3C1B0203F4706301F179
:1059E000020C0DF1400E0EEB8C0C1CF838CC43EA87
:1059F0000C0343EA024344F8043D0129D6D8C1E729
:105A00000020BFE710B5ADF54C7D0B46046804F5EA
:105A1000A061914207D004F5CC61914206D00120EB
:105A20000DF54C7D10BD04F2446401E004F2A47451
:105A3000002B3FD001A91846FFF734FF0028EFD113
:105A40002346002204E06FF0F02143F8041B0132EA
:105A5000022AF8D9184A1A6002F102125A6002F1B9
:105A600002129A6002F10212DA60A2211FE04B1EBC
:105A70000DF1040C1CF803301B0203F4706301F1F8
:105A800027020CEB820212791A4302391CF801300A
:105A90001B0203F4706301F1280E0CEB8E0C9CF8D2
:105AA00004C043EA0C0343EA024344F8043D0129DD
:105AB000DDD8B5E70020B3E7D00FD10F10B50468EB
:105AC00004F55B74102213E0531E924911F803C0D1
:105AD000931ECB5C1B0443EA0C63A2F1030C11F888
:105AE0000CC043EA0C23043A895C0B4344F80439A4
:105AF000032AE9D8036803F55E7C0C2215E0531EE7
