:020000040800F2
:1000000000000824E91A0008C1170008C3170008F7
:10001000C5170008C7170008C9170008000000002E
:10002000000000000000000000000000C1AF000858
:10003000CB1700080000000061B00008C5B0000840
:10004000391B0008391B0008391B0008391B000840
:10005000391B0008391B0008391B0008391B000830
:10006000391B0008391B0008391B0008CD17000890
:10007000391B0008391B0008391B0008391B000810
:10008000391B0008391B0008391B0008391B000800
:10009000391B0008391B0008391B0008391B0008F0
:1000A000391B0008DD170008391B0008391B000840
:1000B000391B0008391B0008391B0008391B0008D0
:1000C000391B0008391B0008391B0008391B0008C0
:1000D000391B0008391B0008391B0008391B0008B0
:1000E000391B0008391B000800000000391B0008FC
:1000F000391B0008391B0008391B0008391B000890
:10010000391B0008ED170008391B0008391B0008CF
:10011000391B0008391B0008391B0008391B00086F
:10012000391B0008391B0008391B0008391B00085F
:10013000391B0008391B0008391B0008391B00084F
:1001400000000000000000000000000000000000AF
:10015000391B0008391B0008391B0008391B00082F
:10016000391B0008391B0008391B0008391B00081F
:10017000391B0008391B0008391B0008000000006B
:10018000391B0008391B0008391B0008391B0008FF
:10019000391B0008391B0008391B0008391B0008EF
:1001A000391B0008391B0008391B0008391B0008DF
:1001B000FD170008391B0008391B0008391B00080F
:1001C000391B0008391B0008391B0008391B0008BF
:1001D000391B0008391B0008391B0008391B0008AF
:1001E000391B0008391B0008391B0008391B00089F
:1001F000391B0008391B0008391B0008391B00088F
:10020000391B0008391B0008391B0008391B00087E
:10021000391B0008391B0008391B0008391B00086E
:10022000391B0008391B00080D18000800000000E9
:10023000391B0008391B000800000000391B0008AA
:10024000391B0008391B0008391B0008391B00083E
:10025000391B0008391B0008391B0008391B00082E
:10026000391B0008391B0008391B0008391B00081E
:10027000391B0008391B0008391B0008000000006A
:10028000391B0008391B0008391B0008000000005A
:0802900000000000391B00080A
:1002A00010B5054C237833B9044B13B10448AFF3B0
:1002B00000800123237010BDE0090024000000002D
:1002C00000FC000808B5034B1BB103490348AFF31A
:1002D000008008BD00000000E409002400FC0008C4
:1002E0004FEA410212F5001215D211D56FF478735E
:1002F000B3EB625212D94FEAC12343F0004343EA01
:10030000505311F0004F23FA02F018BF40427047DB
:100310004FF00000704750EA013005D111F0004065
:1003200008BF6FF0004070474FF00000704700BFFB
:1003300053B94AB9002908BF00281CBF4FF0FF314C
:100340004FF0FF3000F074B9ADF1080C6DE904CE48
:1003500000F006F8DDF804E0DDE9022304B07047A0
:100360002DE9F047089D04468E46002B4DD18A4268
:10037000944669D9B2FA82F252B101FA02F3C2F19B
:10038000200120FA01F10CFA02FC41EA030E94402C
:100390004FEA1C48210CBEFBF8F61FFA8CF708FB4D
:1003A00016E341EA034306FB07F199420AD91CEB25
:1003B000030306F1FF3080F01F81994240F21C8157
:1003C000023E63445B1AA4B2B3FBF8F008FB10339F
:1003D00044EA034400FB07F7A7420AD91CEB0404D4
:1003E00000F1FF3380F00A81A74240F207816444A4
:1003F000023840EA0640E41B00261DB1D440002329
:10040000C5E900433146BDE8F0878B4209D9002D8C
:1004100000F0EF800026C5E9000130463146BDE816
:10042000F087B3FA83F6002E4AD18B4202D3824280
:1004300000F2F980841A61EB030301209E46002D2F
:10044000E0D0C5E9004EDDE702B9FFDEB2FA82F284
:10045000002A40F09280A1EB0C014FEA1C471FFAE2
:100460008CFE0126200CB1FBF7F307FB131140EAC9
:1004700001410EFB03F0884208D91CEB010103F196
:10048000FF3802D2884200F2CB804346091AA4B258
:10049000B1FBF7F007FB101144EA01440EFB00FE2C
:1004A000A64508D91CEB040400F1FF3102D2A64591
:1004B00000F2BB800846A4EB0E0440EA03409CE730
:1004C000C6F12007B34022FA07FC4CEA030C20FADD
:1004D00007F401FA06F31C43F9404FEA1C4900FAFD
:1004E00006F3B1FBF9F8200C1FFA8CFE09FB18117A
:1004F00040EA014108FB0EF0884202FA06F20BD9ED
:100500001CEB010108F1FF3A80F08880884240F23C
:100510008580A8F102086144091AA4B2B1FBF9F080
:1005200009FB101144EA014100FB0EFE8E4508D97B
:100530001CEB010100F1FF346CD28E456AD9023800
:10054000614440EA0840A0FB0294A1EB0E01A142E5
:10055000C846A64656D353D05DB1B3EB080261EB53
:100560000E0101FA07F722FA06F3F1401F43C5E92D
:10057000007100263146BDE8F087C2F12003D84063
:100580000CFA02FC21FA03F3914001434FEA1C47A5
:100590001FFA8CFEB3FBF7F007FB10360B0C43EA97
:1005A000064300FB0EF69E4204FA02F408D91CEB47
:1005B000030300F1FF382FD29E422DD90238634445
:1005C0009B1B89B2B3FBF7F607FB163341EA0341E5
:1005D00006FB0EF38B4208D91CEB010106F1FF3834
:1005E00016D28B4214D9023E6144C91A46EA00462B
:1005F00038E72E46284605E70646E3E61846F8E6BD
:100600004B45A9D2B9EB020864EB0C0E0138A3E705
:100610004646EAE7204694E74046D1E7D0467BE7E6
:10062000023B614432E7304609E76444023842E75E
:10063000704700BF844641EA000313F003036DD105
:10064000403A41D351F8043B40F8043B51F8043B95
:1006500040F8043B51F8043B40F8043B51F8043B9C
:1006600040F8043B51F8043B40F8043B51F8043B8C
:1006700040F8043B51F8043B40F8043B51F8043B7C
:1006800040F8043B51F8043B40F8043B51F8043B6C
:1006900040F8043B51F8043B40F8043B51F8043B5C
:1006A00040F8043B51F8043B40F8043B51F8043B4C
:1006B00040F8043B51F8043B40F8043B51F8043B3C
:1006C00040F8043B403ABDD2303211D351F8043BDC
:1006D00040F8043B51F8043B40F8043B51F8043B1C
:1006E00040F8043B51F8043B40F8043B103AEDD28B
:1006F0000C3205D351F8043B40F8043B043AF9D2DC
:10070000043208D0D2071CBF11F8013B00F8013BAE
:1007100001D30B8803806046704700BF082A13D3BB
:100720008B078DD010F003038AD0C3F10403D21AD3
:10073000DB071CBF11F8013B00F8013B80D331F807
:10074000023B20F8023B7BE7043AD9D3013A11F887
:10075000013B00F8013BF9D20B7803704B784370F2
:100760008B78837060467047000000000000000036
:1007700001F0FF01102A2BDB10F0070F08D010F852
:10078000013B013A8B422DD010F0070F42B3F6D156
:10079000F0B441EA012141EA014122F007047FF06F
:1007A00000070023F0E80256083C85EA010586EAC6
:1007B000010685FA47F5A3FA87F586FA47F6A5FA02
:1007C00087F68EB9EED1F0BC01F0FF0102F007020E
:1007D00032B110F8013B013A83EA010313B1F8D1B9
:1007E0000020704701387047002D06BF354603389A
:1007F000073815F0010F07D1013015F4807F02BFD3
:10080000013015F4C03F0130F0BC0138704700BF23
:1008100008B54FF47A700AF01AFA08BD08B5054811
:100820000CF078FB04480CF075FB4FF47A700AF07A
:100830000EFA08BD60FC000818FD000810B590B065
:10084000124C01A9204606F0C2FF07A9204607F076
:100850000FFA0D990E9BA1FB0313090D41EA033119
:100860000B4801F0D2FD002000F010FE30B1094825
:1008700001F0CBFD0CF0FEF910B010BD00F090FDC2
:100880000146054801F0C1FDF4E700BFE012002475
:1008900068FC00088CFC00089CFC000800B5ADF268
:1008A0000C4D01221249134809F09EFDB0B14FF4DE
:1008B0008063009302AB002202210D4809F0D6FDAF
:1008C00040B90D4801F0A1FD01220949094809F08C
:1008D0008BFD06E0094801F098FD02E0084801F0B0
:1008E00094FD00200BF0FAFE0DF20C4D5DF804FBB8
:1008F00000190024C8140024B8FC0008D0FC00082B
:10090000F8FC000808B5064B064A074907480CF0F2
:10091000C7FA074B074A084908480CF0C1FA08BD56
:10092000790900080CFD00081CFD000818FD0008EE
:100930004109000828FD000834FD000848FD0008B2
:1009400008B5012802D001280BDC08BD08680CF0AE
:100950007BFA10B1054A1060F7E7054801F055FD34
:10096000F3E7044801F051FDEFE700BFD86C002425
:100970004CFD000864FD000810B501280FDC0128BB
:1009800011D04FF4806001F0FDF804460146084B99
:1009900018680CF063FA20460CF034FA02E00548BF
:1009A00001F033FD10BD08680CF02CFAFAE700BF27
:1009B000D86C002480FD000800B583B00B4BD3F841
:1009C000D82042F00102C3F8D820D3F8D83003F081
:1009D00001030193019B002205210B2001F076FE0B
:1009E0000B2001F0A9FE03B05DF804FB004402589F
:1009F00008B50F480F4B036000234360022282605A
:100A0000C36043648264C364036543658365C365EF
:100A100002F092FD28B90121054802F0CFFD18B976
:100A200008BD00F05FFAF6E700F05CFAF8E700BFF7
:100A3000FC0900240010005202680A4B9A4200D0C0
:100A4000704782B0084BD3F8D42042F01002C3F8AC
:100A5000D420D3F8D43003F010030193019B02B0EB
:100A6000704700BF0010005200440258F0B5B9B002
:100A7000002333933493359336933793304B1B686D
:100A80000BB139B0F0BD2E4B01221A60C0220021FB
:100A900002A80CF0D5FA4FF080720023CDE90223B2
:100AA00002A804F0F7FE002847D1264BD3F8D42043
:100AB00042F48052C3F8D420D3F8D43003F48053E6
:100AC0000193019B4FF63F0333930227349700268F
:100AD0003596032536950C24379433A91A4802F02D
:100AE000EFFD2C233393349735963695379433A9FD
:100AF000164802F0E5FD48F23713339334973596E4
:100B00003695379433A9124802F0DAFD4FF6837315
:100B10003393349735963695379433A90D4802F0C0
:100B2000CFFD4CF203733393349735963695379453
:100B300033A9094802F0C4FDA3E700F0D3F9B4E7F4
:100B4000640A00240044025800140258001C025891
:100B50000018025800100258000C0258F0B587B077
:100B60000446002305930122019210210291039271
:100B700004934FF4805201A907F0E8FA204607F0E9
:100B80001FFB0128FAD102230193102502950126AB
:100B90000396002704974FF4805201A9204607F0DE
:100BA000D5FA0323019302950823039304974FF486
:100BB000805201A9204607F0C9FA40F2312305937B
:100BC0000423019302950396059B04934FF48052EE
:100BD00001A9204607F0BAFA40F29631204607F004
:100BE000D6FA07B0F0BD000000B589B0002301932C
:100BF0000293039304930593069307931848194AA5
:100C000002604360012282600822C26010220261F9
:100C1000402242614FF4C0728261C3614FF40063AD
:100C200003624FF4805343624FF400538362022304
:100C30000193072202920421039104920322059258
:100C400006930793694407F059FA28B90448FFF757
:100C500085FF09B05DF804FB00F044F9F6E700BF3A
:100C6000680A00244041005208B5FFF7FFFE08BDA6
:100C700008B5FFF7CDFDFFF7D1FDFCE7034B03609F
:100C8000034B0B6080231360704700BFA00C00244F
:100C90009C0A002410B58EB0144C0DF11C0CA64615
:100CA000BEE80F00ACE80F009EE807008CE80700E4
:100CB000002107A809F096FF0D4B1860EE4604F1DD
:100CC0001C0CBCE80F00AEE80F009CE807008EE8A3
:100CD00007000021684609F085FF064B186000F008
:100CE00037FFFFF7ABFD0EB010BD00BF18FC0008CA
:100CF000201100242411002430B58FB00024099461
:100D00000A940B940C940D943D4BD3F8E02042F0E0
:100D10001002C3F8E020D3F8E02002F010020192A4
:100D2000019AD3F8E02042F00402C3F8E020D3F89F
:100D3000E02002F004020292029AD3F8E02042F08E
:100D40002002C3F8E020D3F8E02002F02002039252
:100D5000039AD3F8E02042F08002C3F8E020D3F8F1
:100D6000E02002F080020492049AD3F8E02042F0DE
:100D70000202C3F8E020D3F8E02002F0020205925C
:100D8000059AD3F8E02042F04002C3F8E020D3F8FF
:100D9000E02002F040020692069AD3F8E02042F0EA
:100DA0000802C3F8E020D3F8E02002F0080207921E
:100DB000079AD3F8E02042F00102C3F8E020D3F80C
:100DC000E03003F001030893089B0E4D224680217A
:100DD000284602F08CFD402309930A9402230B93CA
:100DE00009A9284602F06CFC8023099301230A9389
:100DF0000B940C9409A9284602F062FC0FB030BD98
:100E000000440258001C025808B50548054B036011
:100E100003F02AF800B908BD00F064F8FBE700BF52
:100E2000281100240030005202680A4B9A4200D078
:100E3000704782B0084BD3F8D42042F02002C3F8A8
:100E4000D420D3F8D43003F020030193019B02B0E7
:100E5000704700BF003000520044025830B585B0E2
:100E60000024009401940294039401F073FC012582
:100E70008DF800508DF801404FF040430193182346
:100E80008DF808308DF809408DF80A4003238DF85D
:100E90000B308DF80C408DF80D408DF80E508DF80C
:100EA0000F40684601F074FC8DF801504FF010536C
:100EB000019312238DF808308DF80F50684601F029
:100EC00067FC042001F054FC05B030BD08B5026891
:100ED000034B9A4200D008BD01F0BAFBFBE700BF0C
:100EE0000000014072B6FEE700B59FB04C22002121
:100EF0000BA80CF0A5F82022002103A80CF0A0F804
:100F0000022003F0B9F9002300933F4BDA6A22F084
:100F10000102DA62DB6A03F0010300933B4B9A693A
:100F200042F440429A619B6903F440430093009B62
:100F3000364B9B6913F4005FFAD0354BD3F8F4209D
:100F400042F00202C3F8F420D3F8F43003F00203B5
:100F50000193019B002302932C4B9A6942F4404277
:100F60009A619B6903F440430293274BDA6A42F08B
:100F70000102DA62DB6A03F001030293029B234B56
:100F80009B6913F4005FFAD003F06EF901F086FB61
:100F90001F4A136F23F01803136725230B934FF495
:100FA00080330C9301230D93119302231493159313
:100FB00005221692C02217921893042219921A93AE
:100FC00008231B9300231C931D930BA803F048FDDB
:100FD000B0B93F230393032304930023059308230D
:100FE00006934023079308934FF4806209920A9373
:100FF000042103A804F088F920B91FB05DF804FBB0
:10100000FFF770FFFFF76EFF00040058004802581A
:101010000044025808B5354B5B6913F4003F13D107
:10102000BFF34F8FBFF36F8F304B0022C3F85022B6
:10103000BFF34F8FBFF36F8F5A6942F400325A618A
:10104000BFF34F8FBFF36F8F284B5B6913F4803F63
:1010500027D1264B0022C3F88420BFF34F8FD3F84B
:101060008040C4F34E3000E01846C4F3C90243F692
:10107000E07303EA401343EA82731C49C1F860320B
:101080001346013A002BF2D1431E0028ECD1BFF3E6
:101090004F8F4B6943F480334B61BFF34F8FBFF3E6
:1010A0006F8F01F0A7FAFFF7D9FEFFF71DFFFFF7DB
:1010B00023FEFFF781FC00F01BF8FFF795FDFFF71B
:1010C00097FC00F05DF8FFF79FFE00F095FA00F046
:1010D0006DFC00F011FA00F04DFA08F023FC08F066
:1010E00073FCFFF7D7FD09F065FDFEE700ED00E0BA
:1010F00000B583B01F4BD3F8D42042F00102C3F8EF
:10110000D420D3F8D43003F001030193019B1A4893
:101110001A4B03601D23436000238360C360036197
:101120000222426108228261C36103624FF00072B1
:10113000426201228262C36203634363836302F0FB
:101140003FFF80B9002211460B4802F069FF68B9E1
:10115000002205217A2001F0B9FA7A2001F0ECFA98
:1011600003B05DF804FBFFF7BDFEEBE7FFF7BAFE47
:10117000EEE700BF004402588011002440000052F6
:1011800008B50B480B4B03600122426020238360AB
:101190001023C36016230361002343618261C3618E
:1011A000036203F009FC00B908BDFFF79BFEFBE7F3
:1011B0005C120024005000522DE9F043BBB00446FD
:1011C000002135913691379138913991C02204A888
:1011D0000BF036FF2268554B9A4202D03BB0BDE877
:1011E000F0834FF000720023CDE9042304A804F03B
:1011F00051FB002840F091804D4BD3F8D42042F4AD
:101200008042C3F8D420D3F8D42002F48042009264
:10121000009AD3F8E02042F01002C3F8E020D3F89F
:10122000E02002F010020192019AD3F8E02042F08F
:101230000202C3F8E020D3F8E02002F0020202929A
:10124000029AD3F8E02042F00802C3F8E020D3F875
:10125000E03003F008030393039B4FF00409CDF83B
:10126000D4900226369600253795032738974FF0FD
:101270000908CDF8E48035A92E4802F021FACDF80E
:10128000D490369637953897CDF8E480DFF8B4904F
:1012900035A9484602F014FA4FF460533593369658
:1012A00037953897CDF8E48035A9234802F008FA3D
:1012B000402335933696379538970A23399335A9C5
:1012C000484602F0FDF91D481D4B0360162343609C
:1012D0008560C560056146618561C56105624FF045
:1012E0000073436280238362C5620563456385633F
:1012F00002F066FEA0B900221146104802F090FEEE
:1013000088B90E4BE3631C6400220E215C2001F0BF
:10131000DDF95C2001F010FA60E7FFF7E3FD6BE711
:10132000FFF7E0FDE7E7FFF7DDFDEAE700500052D9
:101330000044025800100258000C0258F01100241A
:10134000800000520004025800B595B04FF480733D
:101350000C9300230D930E931193129313934FF05C
:1013600080720F920B930522069200930493102330
:1013700002934FF48003059301230393019341F2F9
:1013800088336A4606A9054803F073F910B915B009
:101390005DF804FB6FF00200F9E700BF5C12002467
:1013A00000B591B04FF4807308934FF40053059348
:1013B00000230A930D930E930F9309934FF08072BD
:1013C0000B92079303230C939F23029341F28832DD
:1013D00002A90F4803F08FF898B941F2883201A9A9
:1013E0000B4803F0D7F878B99DF804309DF8050054
:1013F000000240EA03409DF80630184311B05DF842
:1014000004FB4FF0FF30F9E76FF00400F6E700BF90
:101410005C12002400B595B04FF480730C93002348
:101420000D930E931193129313930F930B93062323
:10143000069341F2883206A9134803F05CF8E0B93C
:1014400002230093019300230493012303931022AA
:1014500002924FF480020592052206924FF08072AC
:101460000F92109341F288336A4606A9064803F0AA
:1014700000F928B915B05DF804FB6FF00100F9E739
:101480006FF00200F6E700BF5C12002400B58FB0D9
:101490004FF4807306934FF4005303930023089393
:1014A0000B930C930D934FF480620792099305936D
:1014B000019052230093FFF7ADFF60B941F28832EB
:1014C0006946094803F017F840B9FFF73DFF40B9F6
:1014D0000FB05DF804FB6FF00100F9E76FF0030057
:1014E000F6E76FF00200F3E75C120024014B0122E3
:1014F0001A707047EC11002408B50648064B0360CB
:101500000023436005F07AFD00B908BDFFF7EAFC4F
:10151000FBE700BFA81200240018024810B5B2B0C3
:101520000446C022002102A80BF08AFD22680F4B5E
:101530009A4201D032B010BD4FF400320023CDE901
:10154000022302A804F0A6F968B9094BD3F8DC20FD
:1015500042F04002C3F8DC20D3F8DC3003F0400353
:101560000193019BE6E7FFF7BDFCEEE70018024898
:101570000044025808B50A480A4B03600023436040
:101580007F228260FF22C26003618361C361436185
:1015900005F0D8FD00B908BDFFF7A4FCFBE700BFCC
:1015A000BC1200240040005810B5B0B00446C02260
:1015B000002168460BF044FD22680D4B9A4201D091
:1015C00030B010BD4FF480020023CDE900234FF46A
:1015D00080732D93684604F05DF928B9054A136FAE
:1015E00043F400431367EBE7FFF77CFCF6E700BF2B
:1015F0000040005800440258064B074A1A60002277
:101600005A609A604FF48041D9601A6106225A618B
:10161000704700BFE012002400700052F0B5BBB06C
:101620000446002135913691379138913991C02285
:1016300004A80BF005FD22682C4B9A4201D03BB068
:10164000F0BD4FF480320023CDE9042304A804F058
:1016500021F9002846D1264BD3F8D42042F4803219
:10166000C3F8D420D3F8D42002F480320192019A36
:10167000D3F8E02042F00402C3F8E020D3F8E020E1
:1016800002F004020292029AD3F8E02042F008022B
:10169000C3F8E020D3F8E03003F008030393039B82
:1016A0004FF4F853359302273697012637960325D2
:1016B00038950C24399435A90E4802F001F804231A
:1016C0003593369737963895399435A90A4801F0FD
:1016D000F7FF00220E21312000F0F8FF312001F049
:1016E0002BF8ACE7FFF7FEFBB5E700BF0070005238
:1016F0000044025800080258000C025800B583B09C
:101700000A4BD3F8F42042F00202C3F8F420D3F8D5
:10171000F43003F002030193019B00220F216FF0CC
:10172000010000F0D3FF03B05DF804FB0044025851
:101730000F2801D90120704710B58AB00446002255
:101740000146192000F0C2FF192000F0F5FF174BE9
:101750001C60174BD3F8F02042F00102C3F8F020D0
:10176000D3F8F03003F001030093009B01A902A815
:1017700003F05AFF03F046FF43000E48A0FB03238B
:101780009B0C013B0C480D4A026040F2E732C260FC
:10179000436000230361836006F0AAFE10B10120BC
:1017A0000AB010BD044806F00FFDF9E70C00002454
:1017B0000044025883DE1B435C13002400000140F8
:1017C000FEE7FEE7FEE7FEE7FEE7704708B50248E2
:1017D00001F016FB08BD00BFAC13002408B5024899
:1017E00006F03EFD08BD00BF5C13002408B50248AA
:1017F00006F06EFB08BD00BFE012002408B50248E9
:1018000002F0B8FF08BD00BF5C12002408B5034811
:1018100002F050FC024802F04DFC08BD801100248B
:10182000F01100240120704708B50BF0CBFB162304
:1018300003604FF0FF3008BD08B54FF0FF31FFF7F0
:10184000F3FFFEE770B50C461646002506E0AFF341
:101850000080214601F8010B01350C46B542F6DB4C
:10186000304670BD70B50C461646002504E014F8ED
:10187000010BAFF300800135B542F8DB304670BD97
:101880004FF0FF3070474FF400534B60002070471B
:10189000012070470020704710B503460C4A0D49DF
:1018A0000D48006840B10C4800680344521A934246
:1018B00006D8094A136010BD0748084C0460F2E7D7
:1018C0000BF080FB0C2303604FF0FF30F3E700BF09
:1018D0000000082400200000A8130024286D002424
:1018E000274AD2F8883043F47003C2F88830254B79
:1018F0001B6803F00F03062B06D8224A136823F057
:101900000F0343F0070313601F4B1A6842F00102F4
:101910001A6000221A6119681C4A0A401A60194BA1
:101920001B6813F0080F06D0164A136823F00F0344
:1019300043F007031360144B00229A61DA611A62C4
:10194000134999621349D962134919635A63996318
:10195000DA6319645A64196821F4802119601A66DF
:101960000E4B1A680E4B1340B3F1005F03D20D4BC0
:101970000122C3F808210C4B43F2D2021A607047CF
:1019800000ED00E000200052004402587FEDF6EA2E
:10199000000202020000FF01800201010010005C51
:1019A0000000FFFF008000510040005208B51748BA
:1019B000174B03604FF4E133436000238360C3603F
:1019C00003610C2242618361C361036243628362EB
:1019D00007F06FFA70B900210C4807F0E2FA60B91D
:1019E00000210A4807F002FB50B9084807F0BAFA8C
:1019F00048B908BDFFF776FAEDE7FFF773FAEFE7AE
:101A0000FFF770FAF1E7FFF76DFAF2E7241400240C
:101A10000010014030B5B9B0044600213391349133
:101A2000359136913791C02202A80BF009FB22684C
:101A3000284B9A4201D039B030BD01220023CDE9B4
:101A4000022302A803F026FF00283DD1224BD3F841
:101A5000F02042F01002C3F8F020D3F8F02002F09A
:101A600010020092009AD3F8E02042F00102C3F87D
:101A7000E020D3F8E03003F001030193019B4FF421
:101A8000C06333930223349300253595369507239D
:101A9000379333A9114801F013FE1148114B03602D
:101AA000292343608560C5604FF48063036145610D
:101AB0008561C5610562456200F0D0FF38B9084B09
:101AC000C4F880309C63B6E7FFF70CFABEE7FFF777
:101AD00009FAF4E7001001400044025800000258DF
:101AE000AC13002410000240DFF834D0FFF7F8FEFA
:101AF0000C480D490D4A002302E0D458C450043369
:101B0000C4188C42F9D30A4A0A4C002301E013603E
:101B10000432A242FBD30BF06FFAFFF77BFA704757
:101B20000000082400000024C8090024C40601089D
:101B3000E0090024246D0024FEE7002304E003F103
:101B40004042002111700133B3F1007FF7D3704799
:101B500008B5FFF7F2FF4FF400114FF0404000F0DE
:101B600014FB054B18604FF0F071044800F00DFBBA
:101B7000034B186008BD00BFB8140024000020C04B
:101B8000BC14002408B50146024B186800F00CFB99
:101B900008BD00BFB8140024406820F0030070475F
:101BA000436803F003030B434360704708B5FFF736
:101BB000F3FFB0FA80F0400908BD406800F0010072
:101BC0007047436843F0010343607047436823F064
:101BD000010343607047436843F00203436070476A
:101BE000436823F00203436070470830704708449D
:101BF000704710B50C46FFF7CFFF1034A04234BF3A
:101C00000020012010BD01468060C06000200861F6
:101C100009E002EB40131C3301EB830359600132EE
:101C20001F2AF6DD0130172805DC031D01EB8303B5
:101C300000225A60F4E7704738B50446FFF7D5FF35
:101C400005462046FFF7A8FF011F2846FFF7CFFFF4
:101C500005462046FFF7AAFF08B9284638BD034BC2
:101C6000034ABE2103480BF08DF900BFC0FD0008F8
:101C70004C010108D8FD000810B50446FFF7DCFF51
:101C8000046010BD10B50446FFF7F6FFFFF7A3FF91
:101C90002046FFF796FF10BD10B50446FFF7CCFFB6
:101CA000FFF79EFF2046FFF791FF10BD08B54B1EC2
:101CB0000B4202D14942084008BD034B034ADC21D4
:101CC00003480BF05FF900BFFCFD0008400101086C
:101CD000D8FD000808B5084401384B4218404B1E97
:101CE0000B4200D108BD034B034AE32103480BF02C
:101CF00049F900BFFCFD000820010108D8FD0008DB
:101D00002DE9F04116461F4603EB42121C3200EB50
:101D1000820253681BB304460D4639B38B60C8601A
:101D2000D9600846FFF761FF80460421FFF7D2FF24
:101D3000804522D107EB46131C3304EB83035D601F
:101D4000012303FA06F122690A432261BB400436EB
:101D500004EB860467683B436360BDE8F0810A4B8F
:101D60000A4A4FF4A4710A480BF00CF9094B074AD0
:101D700040F2491106480BF005F9074B034A4FF4AE
:101D8000A77103480BF0FEF83CFE00082C01010887
:101D9000D8FD00086CFE0008A8FE000838B5CD6824
:101DA0008C686DB19CB1E560AC6003EB421C0CF13A
:101DB0001C0C00EB8C0CDCF804508D420ED038BDAE
:101DC000124B134A40F2311112480BF0DBF8124B60
:101DD0000F4A4FF499710F480BF0D4F8CCF8044037
:101DE000A042ECD101249C40111D00EB81014B6805
:101DF00023EA04034B60002BE1D1012303FA02F232
:101E0000036923EA02030361D9E700BF0CFF00085E
:101E10000C010108D8FD000838FF000808B54B1E6A
:101E20000B4204D1084401384942084008BD034B25
:101E3000034AD72103480BF0A5F800BFFCFD0008BA
:101E400000010108D8FD000808B5421E6FF04043AC
:101E50009A4201D3002008BDFFF7E0FF0C2838BFED
:101E60000C20F8E72DE9F84307460D46FFF7BDFEC5
:101E7000291FFFF7BCFE04463846FFF78DFE0646D5
:101E8000A0EB05082046FFF7B0FE81460421FFF7CE
:101E900021FF814519D1A8F1040805EB080304339B
:101EA0009E4219D141462046FFF77AFE2046FFF7B1
:101EB00073FE0B2817D929463846FFF771FE2046D6
:101EC000FFF7E0FE2046BDE8F8830A4B0A4A40F2DD
:101ED00073110A480BF056F8094B074A4FF4BB71CF
:101EE00006480BF04FF8074B034A4FF4BC71034808
:101EF0000BF048F864FF000858010108D8FD0008FD
:101F0000D8FF00081800010828B1B0FA80F0C0F12D
:101F10002000013870470020FBE770B504460D46ED
:101F200016467F2808D8002804DB8410002028608B
:101F3000346070BD0330F8E7FFF7E6FF431FDC4075
:101F400084F020040638F2E730B583B005460C462D
:101F50000846FFF721FE6A4601A9FFF7DEFF009B56
:101F6000019A21462846FFF7CBFE03B030BD0000A2
:101F700070B506460C4615460846FFF71EFE28B10A
:101F800029462046FFF735FE38B970BD0B4B0C4A89
:101F90004FF4D3710B480AF0F5FF29462046FFF7AE
:101FA00061FF05462046FFF767FE2846FFF713FE50
:101FB00029463046FFF7C8FFE7E700BF6400010885
:101FC00064010108D8FD000810B50C4641B1FFF7C7
:101FD000CFFF2046FFF760FE2046FFF706FE10BD4C
:101FE0000846FCE770B504460D4616461F2806D97C
:101FF000FFF78AFF431F012098400138044432460E
:1020000029462046FFF789FF70BD034690FAA0F0ED
:10201000B0FA80F00BB94FF0FF307047F8B50446C6
:102020000F4616460D6811682A1D00EB82025068A3
:102030004FF0FF338B4018400FD120696B1C4FF0DD
:10204000FF3202FA03F3184019D0FFF7DEFF05460E
:102050003860031D04EB8303586848B1FFF7D5FFD0
:10206000306000EB45131C3304EB83035868F8BD64
:10207000044B054A40F2251104480AF083FF002072
:10208000F5E700BF9400010874010108D8FD0008BD
:1020900070B582B0002301930093F9B104460E4657
:1020A0006A4601A93046FFF79DFF6A4601A920460E
:1020B000FFF7B4FF054690B1FFF76EFDB04206D3BF
:1020C000009B019A29462046FFF768FE07E0054B72
:1020D000054A4FF4EA7105480AF054FF00252846E6
:1020E00002B070BDD0000108EC000108D8FD000866
:1020F00040F674407047082070470000F8B5074666
:102100000C461546FFF7F7FF0421281AFFF7CEFD0E
:1021100014F0030F27D10546A0F10C02144B9A428C
:1021200023D86FF003012046FFF761FD06462946DC
:10213000FFF736FD3046FFF744FD3046FFF750FD10
:1021400031463846FFF700FF3046FFF795FD05465C
:102150000021FFF725FD2846FFF738FD2846FFF749
:102160003AFD2046F8BD0020FCE70020FAE700BF5A
:10217000F4FFFF3F10F0030F05D110B50446FFF741
:1021800042FD204610BD0020704770B505460E4642
:10219000FFF7F0FF0446FFF7ABFF321A291820467D
:1021A000FFF7ACFF204670BD38B504460846042151
:1021B000FFF74AFE054601462046FFF769FF014644
:1021C0002A462046FFF700FF38BD000000B583B067
:1021D0008DF807004FF6FF7301220DF10701034848
:1021E00006F09AFD03B05DF804FB00BF2414002440
:1021F00010B5044602E00134FFF7E8FF207800281C
:10220000F9D110BD70B584B005460E46C30F002A43
:102210000CBF002303F0010393B9002295FBF6F3F2
:1022200006FB1355144601320E494D5D04F11001B1
:102230000DEB010000F80C5C1D46002BEED10CE00C
:1022400045422D20FFF7C2FFE7E704F110036B447E
:1022500013F80C0CFFF7BAFF013C002CF5DA04B0C0
:1022600070BD00BF8C01010830B585B00023B0FB04
:10227000F1F201FB120C1C4601330D4D15F80CE078
:1022800004F110050DEB050C0CF80CEC844610461F
:102290006145ECD907E004F110036B4413F80C0C12
:1022A000FFF794FF013C002CF5DA05B030BD00BF0C
:1022B0008C01010810B504463020FFF787FF782015
:1022C000FFF784FF002210212046FFF7CDFF10BD4D
:1022D00030B585B00023B0FBF1F201FB120C1C46B7
:1022E00001330D4D15F80CE004F110050DEB050C54
:1022F0000CF80CEC844610466145ECD907E004F17B
:1023000010036B4413F80C0CFFF760FF013C002C2A
:10231000F5DA05B030BD00BF8C01010870B5044688
:102320000D4603E0FFF752FF2646741C2078002874
:102330006AD02528F6D1661C6078A0F14403342BBE
:102340005FD8DFE803F0575E5E5E5E5E5E5E5E5EF7
:102350005E5E5E5E5E5E5E5E5E5E5E5E5E5E5E5E9D
:102360005E5E5E5E5E371B5E425E5E5E5E5E4B5E26
:102370005E22525E5E3D5E295E5E300001220A21D1
:1023800055F8040BFFF73EFFCFE70022082155F870
:10239000040BFFF737FFC8E700220A2155F8040BAA
:1023A000FFF730FFC1E70022102155F8040BFFF7BB
:1023B00029FFBAE755F8040BC0B2FFF707FFB4E7EF
:1023C00055F8040BFFF714FFAFE7F5E80201FDF73E
:1023D00087FF01220A21FFF715FFA6E701220A2144
:1023E00055F8040BFFF70EFF9FE755F8040BFFF7B6
:1023F00061FF9AE701220A2155F8040BFFF768FFF5
:1024000093E7FFF7E3FE90E770BD0FB408B502A9AC
:1024100051F8040BFFF782FF0020BDE8084004B02C
:1024200070470346002000E0013013F8012B002A1A
:10243000FAD1704708B10D4A10600C4B186858B1BA
:102440000A4B1B681A7872B191F800C0944504D009
:102450000133064A1360F3E77047002203F8012BAB
:10246000024A13607047014B1A607047C014002481
:1024700002E0013100F8013B0B78002BF9D1037029
:10248000704700E001300378002BFBD102E00131FE
:1024900000F8013B0B78002BF9D10370704701E085
:1024A0000130013103782BB10A781AB19342F7D089
:1024B000012070471BB90B781BB900207047012021
:1024C00070470120704782B0BFF35B8F0368BFF392
:1024D0005B8F0193BFF35B8F0198BFF35B8F012884
:1024E00014BF0020012002B0704782B002460121D3
:1024F000BFF35B8F50E8003F40E8001CBCF1000FC9
:10250000F8D1BFF35B8F019310E00121BFF35B8F24
:1025100052E8003F42E8001CBCF1000FF8D1BFF3C5
:102520005B8FBFF35B8F0193BFF35B8FBFF35B8F59
:10253000019BBFF35B8F012BE7D0031DBFF35B8FC4
:1025400053E8002F013243E800210029F8D1BFF3FE
:102550005B8FBFF35B8F01238360BFF35B8F02B0A0
:102560007047BFF35B8F8368BFF35B8F03B970471E
:10257000031DBFF35B8F53E8002F013A43E80021AE
:102580000029F8D1BFF35B8FBFF35B8F4368BFF3C4
:102590005B8F33B1BFF35B8F00238360BFF35B8F2F
:1025A000E5E7BFF35B8F50E8002F40E800310029DA
:1025B000F9D1BFF35B8FEDE7BFF35B8F00230360BF
:1025C000BFF35B8FBFF35B8F4360BFF35B8FBFF3E2
:1025D0005B8F8360BFF35B8F034BC360034B03616F
:1025E000034B4361704700BFEB24000863250008DC
:1025F000C724000810B5032000F056F802F08AFD49
:102600000F498B69C3F303230E4AD35C03F01F0306
:10261000D8408B6903F00F03D35C03F01F0320FA4B
:1026200003F3094A1360094B18600F20FFF780F885
:1026300010B10124204610BD0446FFF75FF8F9E70A
:1026400000440258B0FD00080400002400000024EB
:10265000034B1B78034A11680B441360704700BF9B
:1026600008000024C4140024014B1868704700BF00
:10267000C414002438B50446FFF7F6FF0546B4F14C
:10268000FF3F02D0044B1B781C44FFF7EDFF401BBB
:10269000A042FAD338BD00BF08000024014B1868DF
:1026A000000C70470010005C0649CB6823F4E0631F
:1026B0001B041B0C000200F4E0600343024A1A43AF
:1026C000CA60704700ED00E00000FA0500B5174B46
:1026D000DB68C3F30223C3F1070CBCF1040F28BF6E
:1026E0004FF0040C03F1040EBEF1060F14D9033BA6
:1026F0004FF0FF3E0EFA0CFC21EA0C0199400EFA55
:1027000003F322EA03031943002807DB0901C9B2D6
:10271000074B19545DF804FB0023E9E700F00F00B4
:102720000901C9B2034B1954F4E700BF00ED00E002
:1027300000E400E014ED00E0002807DB00F01F02D9
:10274000400901239340024A42F82030704700BFFD
:1027500000E100E0BFF35F8F044B5A6A22F480323D
:102760005A620022C3F89420704700BF00ED00E0D9
:1027700040F00100054BC3F894005A6A42F48032DD
:102780005A62BFF34F8FBFF36F8F704700ED00E0C9
:102790004378144AC2F89830D2F8A03023F00103ED
:1027A000C2F8A0304368C2F89C30017BC37A1B0694
:1027B00043EA0173817A43EAC143417B43EA81439F
:1027C000817B43EA4143C17B43EA0143417A43EAC7
:1027D0000123017A43EA410301780B43C2F8A03098
:1027E000704700BF00ED00E003682749274A934285
:1027F00018BF8B422FD0183293422CD018329342FC
:1028000029D01832934226D01832934223D018325E
:10281000934220D0183293421DD002F55672934253
:1028200019D01832934216D01832934213D018326E
:10283000934210D0183293420DD0183293420AD0EE
:102840001832934207D01832934204D023F0FF038A
:102850008365806D704710B4D9B210390C4AA2FB61
:102860000142C2F302120B4CA25CC2655F2907D978
:10287000094A1A4004328265806D5DF8044B704746
:10288000054A1A408265F7E710000240280002401E
:10289000ABAAAAAAA001010800FCFFFF83699BB9AB
:1028A000836A012B0AD0022B02D00BB100207047A3
:1028B000C36A13F0807F2AD100207047C36AB3F146
:1028C000C07F26D000207047B3F5005F0AD0836A2E
:1028D000022B26D9032B26D1C36A13F0807F24D183
:1028E00000207047836A032B03D8DFE803F0140449
:1028F000140A00207047C36A13F0807F0DD10020B6
:102900007047C36AB3F1C07F09D00020704701202F
:102910007047012070470120704701207047012057
:102920007047012070470020704701207047000069
:1029300003682249224A934218BF8B4228D014329E
:10294000934225D01432934222D0143293421FD0A6
:10295000143293421CD01432934219D01432934251
:1029600016D0DAB2103A1749A1FB02121209164921
:102970001944A8291FD9154B13449B000366144B17
:10298000436602F01F02012303FA02F282667047D7
:10299000DBB2083B0F4AA2FB03230F4A02EB1312E0
:1029A000920002660D4A4266C3F30413012202FA42
:1029B00003F3836670470832DDE700BF085402580E
:1029C0001C540258ABAAAAAAF0FBFDBF008200105B
:1029D00080080240CDCCCCCC00960016805802581E
:1029E00001794A1E072A2CD830B40368154D164CBD
:1029F000A34218BFAB4218D01434A34215D01434EC
:102A0000A34212D01434A3420FD01434A3420CD0EA
:102A10001434A34209D01434A34206D00B4B0B4408
:102A20009B00C3660A4B036705E00A4B0B449B00FF
:102A3000C366094B0367012303FA02F2426730BC05
:102A400070477047085402581C5402583F820010C7
:102A5000400902403F9600164059025870B504469E
:102A6000FFF702FE002C00F0B681054623685349AB
:102A7000534A934218BF8B420CBF0122002250D010
:102A800030318B424DD018318B424AD018318B42B5
:102A900047D018318B4244D018318B4241D0183185
:102AA0008B423ED001F556718B423AD018318B42A1
:102AB00037D018318B4234D018318B4231D0183195
:102AC0008B422ED018318B422BD018318B4228D01C
:102AD00018318B4225D03B493B4A934218BF8B4269
:102AE00000F03181394A934200F02D811432934233
:102AF00000F029811432934200F025811432934270
:102B000000F021811432934200F01D81143293426F
:102B100000F0198140236365032384F835300120D8
:102B20004AE0022184F83510002184F834107ABB81
:102B3000274A93422CD01832934229D0183293421C
:102B400026D01832934223D01832934220D0183224
:102B500093421DD002F55672934219D01832934217
:102B600016D01832934213D01832934210D0183234
:102B700093420DD0183293420AD01832934207D0B4
:102B80001832934204D01A6822F001021A6003E05E
:102B90001A6822F001021A6023681A6812F0010F05
:102BA00018D0FFF761FD431B052BF5D92023636582
:102BB000032384F83530012070BD00BF10000240AF
:102BC00028000240085402581C540258305402583D
:102BD000400002401A6881481040A168E2680A4338
:102BE00021690A4361690A43A1690A43E1690A4309
:102BF000216A0A430243616A042900F099807849F6
:102C0000086878490140B1F1005F11D36168A1F112
:102C10002905A1F13F00032888BF052D06D9A1F1A0
:102C20004700012802D94F39032901D842F4801204
:102C30001A602668756925F00705636A1D43042B31
:102C400008D1A36A1D43E36A23B12046FFF726FE9D
:102C5000002872D175612046FFF7C6FDE36D03F0D1
:102C60001F023F239340836023685F495F4A93427A
:102C700018BF8B4242D0183293423FD01832934251
:102C80003CD01832934239D01832934236D01832A1
:102C9000934233D01832934230D002F556729342A9
:102CA0002CD01832934229D01832934226D01832B1
:102CB000934223D01832934220D0183293421DD031
:102CC000183293421AD01832934217D0484A93428E
:102CD00014D01432934211D0143293420ED01432D5
:102CE00093420BD01432934208D01432934205D051
:102CF0001432934202D01432934213D12046FFF78C
:102D000017FEA368802B59D0236E22791A60636E58
:102D1000A26E5A606368013B072B52D90023E36619
:102D20002367636700206065012384F8353043E73B
:102D3000E16A206B01430A4361E740236365012098
:102D400084F8350038E7022284F83520002284F820
:102D500034201A6827491140A268402A2CD0802AC2
:102D600027D00022E06842EAD002206942EAD0027D
:102D7000606942EAD002A06942EAD002E06942EA10
:102D8000D002206A42EA10120A431A6022681A4BE3
:102D900013441A4AA2FB03231B099B00E365204648
:102DA000FFF722FDE26D02F01F0101228A4042601E
:102DB0005AE74FF48042D5E71022D3E7002363603F
:102DC000A2E72046FFF70CFEE36E00221A60236F95
:102DD000626F5A60A6E70120EEE600BF3F8010FE5A
:102DE0000010005C0000FFFF1000024028000240BD
:102DF000085402580F00FEFFF8ABFDA7CDCCCCCC99
:102E0000F0B583B00446002301937D4B1D687D4BD4
:102E1000A3FB0535AD0A876D3E68D7F800C003688F
:102E200079497A48834218BF8B420CBF01200020A9
:102E300061D0774A93425ED0183293425BD0183209
:102E4000934258D01832934255D01832934252D000
:102E5000183293424FD002F5567293424BD018323B
:102E6000934248D01832934245D01832934242D010
:102E7000183293423FD0183293423CD018329342DA
:102E800039D01832934236D06249634A934218BF10
:102E90008B4212D0614A93420FD0143293420CD02D
:102EA0001432934209D01432934206D01432934222
:102EB00003D01432934240F061821A68E16D01F050
:102EC0001F010420884010EA0C0F00F0A78212F0C6
:102ED000040F00F0A382786012F4004F00F05A82D1
:102EE00012F4803F40F05082A36C002B00F0468229
:102EF0002046984742E2E26D02F01F0108228A4014
:102F0000324241D070BB424A93422BD01832934296
:102F100028D01832934225D01832934222D018324A
:102F200093421FD0183293421CD002F5567293423E
:102F300018D01832934215D01832934212D018325A
:102F400093420FD0183293420CD01832934209D0DA
:102F50001832934206D01832934203D01A68C2F353
:102F6000C00202E01A68C2F380026AB11A6822F055
:102F700004021A60E36D03F01F0208239340BB6054
:102F8000636D43F001036365E26D02F01F0226FAF0
:102F900002F313F0010F47D023681B481B498B42F3
:102FA00018BF83423CD018318B4239D018318B4244
:102FB00036D018318B4233D018318B4230D0183193
:102FC0008B422DD018318B422AD001F556718B429D
:102FD00026D018318B4223D018318B4220D01831A3
:102FE0008B421DD018318B421AD018318B4217D02A
:102FF00018318B4214D018318B4211D01B6813E06A
:1030000000000024B5814E1B100002402800024041
:1030100040000240085402581C54025830540258D0
:103020005B6913F0800F3BD1E36D03F01F030422B3
:1030300002FA03F3334240D02268964896498A4206
:1030400018BF824235D018318A4232D018318A42B4
:103050002FD018318A422CD018318A4229D0183109
:103060008A4226D018318A4223D001F556718A420D
:103070001FD018318A421CD018318A4219D0183119
:103080008A4216D018318A4213D018318A4210D0A1
:1030900018318A420DD018318A420AD013680CE0E8
:1030A000012303FA02F2BA60636D43F00203636521
:1030B000BAE7126812F0020F3DD1E36D03F01F036F
:1030C000102202FA03F333425FD02268714872493A
:1030D0008A4218BF824234D018318A4231D0183126
:1030E0008A422ED018318A422BD018318A4228D0F9
:1030F00018318A4225D018318A4222D001F5567102
:103100008A421ED018318A421BD018318A4218D008
:1031100018318A4215D018318A4212D018318A42A9
:103120000FD018318A420CD018318A4209D0126867
:10313000C2F3800208E0BB60636D43F00403636583
:10314000BBE71268C2F3C002FAB1BB6023681A6819
:1031500012F4802F0DD01B6813F4002F04D1236CC0
:103160009BB12046984710E0A36C73B12046984766
:103170000BE01A6812F4807F03D11A6822F008026B
:103180001A60236C0BB120469847E36D03F01F03D0
:10319000202202FA03F3334200F0928022683D4875
:1031A0003D498A4218BF82422ED018318A422BD024
:1031B00018318A4228D018318A4225D018318A42E3
:1031C00022D018318A421FD018318A421CD001F512
:1031D00056718A4218D018318A4215D018318A4265
:1031E00012D018318A420FD018318A420CD01831CF
:1031F0008A4209D018318A4206D018318A4203D057
:103200001268C2F3400202E01268C2F30012002A00
:1032100056D0BB6094F83530DBB2042B0ED0236857
:103220001A6812F4802F39D01B6813F4002F2CD1A8
:10323000636C002B44D02046984741E02268136815
:1032400023F0160313602268536923F0800353614F
:10325000236CB3B12268136823F008031360E36D95
:1032600003F01F023F239340BB60012384F83530F5
:10327000002384F83430236D002B7FD020469847FC
:103280007CE0A36C002BE5D1E9E7E36BC3B12046FA
:10329000984715E010000240280002401A6812F416
:1032A000807F09D11A6822F010021A60012384F885
:1032B0003530002384F83430E36B0BB12046984757
:1032C000636D002B5AD0636D13F0010F52D00423AD
:1032D00084F8353023689649964A934218BF8B424A
:1032E0002FD0183293422CD01832934229D0183262
:1032F000934226D01832934223D01832934220D0E2
:10330000183293421DD002F55672934219D01832EA
:10331000934216D01832934213D01832934210D0F1
:10332000183293420DD0183293420AD01832934289
:1033300007D01832934204D01A6822F001021A60B2
:1033400003E01A6822F001021A60019B0133019325
:10335000AB4204D823681B6813F0010FF5D1236832
:103360001B6813F0010F0BD0032384F835300023C2
:1033700084F83430E36C0BB12046984703B0F0BDBD
:10338000012384F83530F2E7236C002BF6D0204679
:103390009847F3E712F0200F3AD123686449654A51
:1033A000934218BF8B422FD0183293422CD0183240
:1033B000934229D01832934226D01832934223D018
:1033C0001832934220D0183293421DD002F5567223
:1033D000934219D01832934216D01832934213D028
:1033E0001832934210D0183293420DD018329342C3
:1033F0000AD01832934207D01832934204D01A6888
:1034000022F004021A6003E01A6822F008021A602F
:10341000236C002BB2D020469847AFE702208840AB
:1034200010EA0C0F60D012F0020F5DD0786012F439
:10343000004F0ED012F4803F05D1636C002B9DD05D
:10344000204698479AE7E36B002B97D02046984791
:1034500094E712F0200F40D123683549354A934252
:1034600018BF8B422FD0183293422CD0183293427F
:1034700029D01832934226D01832934223D01832E2
:10348000934220D0183293421DD002F556729342D7
:1034900019D01832934216D01832934213D01832F2
:1034A000934210D0183293420DD0183293420AD072
:1034B0001832934207D01832934204D01A6822F08F
:1034C0000A021A6003E01A6822F014021A6001234B
:1034D00084F83530002384F83430E36B002B3FF45C
:1034E0004DAF2046984749E7082000FA01F111EA5C
:1034F0000C0F3FF443AF12F0080F3FF43FAF1A68D0
:1035000022F00E021A60E36D03F01F03012202FA9B
:1035100003F37B60626584F83520002384F834303F
:10352000E36C002B3FF42AAF2046984726E700BF04
:103530001000024028000240002837D010B5044691
:1035400090F86130002B2CD0022384F86130216880
:103550000A68174B13406268E069024313430B602B
:1035600021684A6B134B1340A268A06902431343BE
:103570004B632268116C104B0B40E1680B431364E2
:1035800021684B6B23F4401320696269520542EABB
:10359000005213434B6300206066012384F86130BE
:1035A00010BD80F86030FDF747FACDE70120704785
:1035B000BFFFF8FFF8FEFFFF0000FFFF90F860304C
:1035C000012B74D030B4012380F86030022380F8DE
:1035D0006130C1EBC10200EB8202D46A136B44EA92
:1035E0000343956B43EA0553D26B43EA4253A4F17C
:1035F0000902012A21D9C1EBC10200EB8202526B00
:1036000043EA026361BB0468656A2A4A2A4013439D
:1036100063620268C1EBC10300EB83039C6A94619F
:10362000DB6A093B012B11D9012380F861300023AB
:1036300080F86030184630BC7047C1EBC10200EB27
:103640008202526B02F07F421343DBE7C1EBC10100
:1036500000EB81014B6B026823F07F439362E3E749
:103660000B2C1BD0144D0468E26922EA05021343B7
:10367000E3610268C1EBC10300EB83039C6A146140
:10368000DB6A093B012BCFD8C1EBC10100EB810103
:103690004B6B026823F07F431362C5E7C1EBC102A5
:1036A00000EB8202126C43EA8243044DDBE7022006
:1036B000704700BFF0FFCC000F0033FF0F003FFF4B
:1036C000F0B583B000236BE085685E000324B4404E
:1036D00025EA0405CC68B4402C438460446824EA9D
:1036E0000C0C4C68C4F300149C4044EA0C04446085
:1036F00068E0DD08083550F8256003F007044FEA5C
:10370000840C0F2404FA0CF426EA040E0C6904FA63
:103710000CF444EA0E0440F825406BE0092400E074
:10372000002404FA0EF42C430CF1020C694D45F808
:103730002C404FF0B0442568D44325EA02064F6878
:1037400017F4801F01D042EA05064FF0B0452E6005
:103750006D6804EA05064F6817F4001F01D042EABD
:1037600005064FF0B0456E60D5F8845004EA0506B2
:103770004F6817F4003F01D042EA05064FF0B0450C
:10378000C5F88460D5F880502C404E6816F4803F10
:1037900001D042EA05044FF0B042C2F88040013344
:1037A0000A6832FA03F400F092804FF0010C0CFA30
:1037B00003FC1CEA0202F2D04C6804F00304013C52
:1037C000012C81D94C6804F00304032C0CD0C4688C
:1037D0005D004FF0030C0CFA05FC24EA0C0C8C681D
:1037E000AC4044EA0C04C4604C6804F00304022CAE
:1037F0003FF47FAF04684FEA430E4FF0030C0CFA1E
:103800000EFC24EA0C0C4C6804F0030404FA0EF4D9
:1038100044EA0C0404604C6814F4403FBFD02E4CC2
:10382000D4F8F45045F00205C4F8F450D4F8F4404C
:1038300004F002040194019C4FEA930C0CF1020580
:10384000244C54F8255003F003044FEA840E0F244F
:1038500004FA0EF425EA0405204CA0423FF460AFC0
:1038600004F58064A04222D004F58064A04220D0F8
:1038700004F58064A0421ED004F58064A0421CD0F0
:1038800004F58064A0421AD004F58064A04218D0E8
:1038900004F58064A04216D004F58064A04214D0E0
:1038A00004F58064A0423FF439AF0A2439E70124CB
:1038B00037E7022435E7032433E7042431E70524FE
:1038C0002FE706242DE707242BE7082429E703B078
:1038D000F0BD00BF00040058004402580000025828
:1038E0000369194201D001207047002070470AB1D6
:1038F0008161704709048161704730B514461D46E7
:103900004FF0000E72460BE05FFA8EFC0CF1010CDA
:1039100001F802C00132013B002BF5D10EF1010E7E
:10392000BEF10F0F08D810F80E3002EB030CBCF5F7
:10393000807FF1D9012030BD00238B542A6091F89B
:1039400000C01A4611E044F8232001330132C85C5C
:103950006045F8D0BCF11F0F0BD8012000FA0CF025
:10396000904208D952000CF1010CC85C0028EED13D
:10397000E1E70120DFE70120DDE770B5ADF5A26DDD
:1039800005460C4601AB02AA0DF20C41FFF7B5FF4C
:1039900020BB03460EE0A02202A951F8236002F1E9
:1039A000280104EB81014E600DF20C41C95C013924
:1039B000A1540133019A9A4210D9EA18127C002AC4
:1039C000E9D0F02A0DD002F00F01120902EB8202B9
:1039D00001EB4202013AA12ADED901200DF5A26DC8
:1039E00070BDA122D8E730B5ADF2145D05460C4696
:1039F0000DF20C5301AA0DF58161FFF77EFFE0B9CE
:103A00000346DDF80C259A4217D9EA18127C0B2AD6
:103A100012D801A951F8231002F1020C04EB8C0C0E
:103A2000CCF804100DF5816111F803C00CF1FF3CD6
:103A300004F802C00133E4E701200DF2145D30BD4B
:103A400010B590B00B46046804F5F861914206D0B9
:103A500004F5FC61914205D0012010B010BD04F5C1
:103A6000FB6401E004F5FF64ABB301A91846FFF75E
:103A7000BAFF0028F1D16FF0F023236063600C21BE
:103A800026E001F13F036B4413F83C3C1B0203F4B6
:103A900070634A1C0DF1400C0CEB820212F8382CBA
:103AA0001A43023901F140036B4413F83C3C1B02FA
:103AB00003F4706301F1020C0DF1400E0EEB8C0C5F
:103AC0001CF838CC43EA0C0343EA024344F8043DB3
:103AD0000129D6D8C1E70020BFE7000010B5ADF539
:103AE0004C7D0B46046804F5A061914207D004F5B3
:103AF000CC61914206D001200DF54C7D10BD04F241
:103B0000446401E004F2A474002B3FD001A91846DC
:103B1000FFF733FF0028EFD12346002204E06FF0C7
:103B2000F02143F8041B0132022AF8D9184A1A601E
:103B300002F102125A6002F102129A6002F10212BC
:103B4000DA60A2211FE04B1E0DF1040C1CF80330BB
:103B50001B0203F4706301F127020CEB820212795D
:103B60001A4302391CF801301B0203F4706301F19F
:103B7000280E0CEB8E0C9CF804C043EA0C0343EABD
:103B8000024344F8043D0129DDD8B5E70020B3E73E
:103B9000D00FD10F10B5046804F55B74102213E048
:103BA000531E924911F803C0931ECB5C1B0443EAD9
:103BB0000C63A2F1030C11F80CC043EA0C23043A85
:103BC000895C0B4344F80439032AE9D8036803F5F8
:103BD0005E7C0C2215E0531E84490B4493F810E0E0
:103BE000941E0C44237C1B0443EA0E63D41E0C4435
:103BF000247C43EA0423043A1144097C0B434CF827
:103C00000439032AE7D8046804F56274102213E02B
:103C1000531E774911F803C0931ECB5C1B0443EA83
:103C20000C63A2F1030C11F80CC043EA0C23043A14
:103C3000895C0B4344F80439032AE9D80368D3F8B4
:103C40002C246C4911404FF6F9220A43C3F82C2466
:103C500003F5856EA02218E0531E65490B441C7CB9
:103C6000A2F1020C8C449CF810301B0443EA04635C
:103C7000A2F1030C8C449CF810C043EA0C23043AD4
:103C80001144097C0B434EF80439032AE4D8026836
:103C9000D2F82C349BB243F04073C2F82C34046841
:103CA000D4F83C24534B1340C4F83C3404F58764E7
:103CB0000C2215E0531C504911F803C08B5C1B0407
:103CC00043EA0C6302F1FF3C11F80CC043EA0C23F9
:103CD000A2F1020C11F80C100B4344F80439043A19
:103CE000032AE7D80268D2F83C349BB243F08073D1
:103CF000C2F83C340468D4F848343E4A1A4040F6CE
:103D00000A331343C4F8483404F24444082218E048
:103D1000531C39490B4493F810C08B181B7C1B04AF
:103D200043EA0C6302F1FF3C8C449CF810C043EA68
:103D30000C23A2F1020C6144097C0B4344F80439C2
:103D4000043A032AE4D80268D2F848349BB243F01C
:103D50000073C2F848340468D4F85834254A1A402D
:103D600047F202731343C4F8583404F254440C224B
:103D700015E0531C214911F803C08B5C1B0443EA76
:103D80000C6302F1FF3C11F80CC043EA0C23A2F1D2
:103D9000020C11F80C100B4344F80439043A032ABE
:103DA000E7D80268D2F858349BB243F08073C2F867
:103DB0005834036803F59F6CA02214E0531C0F498C
:103DC0000B44187C8B181B7C1B0443EA0063501EB9
:103DD0000844007C43EA0023901E0144097C0B4305
:103DE0004CF80439043A032AE8D810BD6C030108E2
:103DF0005C0201080000FFFF50030108A801010850
:103E000010B50446FFF7C6FE226802F5A06212490B
:103E10002046FFF763FE034608B1184610BD22682E
:103E200002F5CC620D492046FFF758FE03460028F4
:103E3000F3D1226802F5F86209492046FFF700FE37
:103E400003460028E9D1226802F5FC6205492046B4
:103E5000FFF7F6FD0346E0E75C020108A801010850
:103E60006C03010850030108002847D010B5044630
:103E700090F84D30002B39D0022384F84D30226861
:103E8000136B43F0010313632268136823F00103EB
:103E900013602268136B23F07E0313632268136B95
:103EA00043F4005313632268136B43F4804313639A
:103EB0002268936B43F060039363114BE363114BF0
:103EC000236400236364A3642046FFF799FF90B93D
:103ED0002268536843F48073536000232362636253
:103EE000012284F84D202365636510BD80F84C30B5
:103EF000FCF79AFFC0E701202065F6E70120704734
:103F00008803010810030108C368016902680B43B4
:103F1000D360436982691343C2691343026A13433E
:103F2000426A1343C26A1343026B1343826A013A23
:103F300043EA8243816802680B4313614368B3F12B
:103F4000804F1BD0036800225A61436B93421BDBF6
:103F500002689BB21362836B002B20DB01680A6A44
:103F600042EA03430B624368B3F1804F24D00268F6
:103F7000DBB29362036800225A62704702681369D9
:103F800043F040431361DDE70268536943F4802343
:103F90005361436B5B4202689BB21362DBE70268CA
:103FA000536943F400235361836B5A4201680B6ADF
:103FB00043EA02430B62D6E7036800229A62D9E71C
:103FC00038B50446FEF750FB44B30546002384F899
:103FD0003C30022384F83D302268D36823F001038B
:103FE000D3602368DB6813F0010F0BD0FEF73CFBB6
:103FF000431B052BF5D94023A366032384F83D30EA
:1040000001200AE02046FFF77FFF0020E0652066E0
:104010006066A066012384F83D3038BD0120FCE7CE
:1040200068B3034690F83C0001282AD0012083F8A9
:104030003C0093F83D00C0B2012804D001200022CA
:1040400083F83C20704730B41C68256915F0804F18
:1040500009D121631868426351B919680A6922F0CD
:1040600000420A610020002283F83C2030BC7047E7
:1040700019680A6942F000420A610020F3E7012052
:1040800070470220704790B190F83D30DBB2022BB0
:1040900003D08023836601207047042380F83D30DD
:1040A0000268D36823F00103D36000207047012029
:1040B0007047000030B583B000230193674B1D6843
:1040C000674BA3FB05350168664B0B44C3F38413B0
:1040D000012202FA03F34FF0A44212681A4200F0E0
:1040E000A5800446AD0A0B6813F0010F2FD0CB68F2
:1040F00013F0020F2BD0CB6823F00203CB600268D1
:10410000936813F0800F40F09380816E41F00101BD
:10411000816613F4007F03D0A16E41F00401A16613
:1041200013F4807F03D0A16E41F00801A16613F45F
:10413000806F03D0A16E41F01001A16613F4006FEF
:1041400003D0A36E43F02003A366012353602368CA
:104150001A6812F0100F09D0DA6812F0200F05D09B
:1041600010225A60A36C0BB12046984723681A6846
:1041700012F0080F09D0DA6812F0100F05D00822EB
:104180005A60E36C0BB12046984723681A6812F016
:10419000040F09D0DA6812F0080F05D004225A6023
:1041A000236D0BB12046984723681A6812F0020F5E
:1041B00019D0DA6812F0040F15D0DA6822F03E0246
:1041C000DA6094F83D30DBB2042B36D0236802224B
:1041D0005A60002384F83C30012384F83D30636C3E
:1041E0000BB120469847A36E03B3042384F83D30F7
:1041F0002268D36823F00103D360019B013301934C
:10420000AB4204D82368DB6813F0010FF5D100231B
:1042100084F83C302368DB6813F0010F19D00323C6
:1042200084F83D30636D0BB12046984703B030BD34
:10423000816E41F0020181666BE7002384F83C3017
:10424000012384F83D30A36D002BEFD02046984722
:10425000ECE7012384F83D30E4E700BF00000024D0
:10426000B5814E1BC0FFFFAD024A136843F4807353
:104270001360704700480258134BDB6813F0040FBB
:1042800007D1114BDB6803F0070383421AD00120EA
:10429000704710B50C4AD36823F007031843D06069
:1042A000FEF7E2F90446084B5B6813F4005F07D1A0
:1042B000FEF7DAF9001BB0F57A7FF4D9012000E0AF
:1042C000002010BD0020704700480258F0B44B6A2F
:1042D00033B1B2F1406F03D08B6A0468013B2361B4
:1042E0008C69002C6ED00E6A002E3BD003688C685F
:1042F000DC61CC69F4B1CB6A0D6B2B434D6B2B4366
:104300004D6A2B434D6943EA85430D692B430D6A82
:104310002B43CD682B4323438C6923430C682343F1
:10432000046813436361B2F1406F19D003684A68AF
:104330009A6115E0CB6A0D6B2B434D6B2B434D6A95
:104340002B434D6943EA85430D692B430D6A2B438B
:1043500023438C6923430C68234301681A434A6151
:10436000F0BC7047CD69D5B1CB6A0F6B3B434F6B47
:104370003B434F6A3B434F6943EA87433343CE682D
:1043800033432B4323430C68234304681343636183
:10439000B2F1406FE4D003684A689A61E0E7CB6A03
:1043A0000F6B3B434F6B3B434F6A3B434F6943EAC1
:1043B000874333432B4323430C68234301681A4349
:1043C0004A61CDE70D6A002D37D003688C68DC6147
:1043D000CD69E5B1CB6A0C6B23434C6B23434C6A2C
:1043E00023434C6943EA84430C6923430C6A234307
:1043F000CC6823432B438C692343046813436361D4
:10440000B2F1406FACD003684A689A61A8E7CC6A01
:104410000B6B1C434B6B1C434B6A1C434B6944EABC
:1044200083440B691C430B6A1C4345EA04038C69F3
:10443000234301681A434A6192E7CE69CEB10B6B00
:10444000CF6A3B434F6B3B434F6A3B434F6943EA61
:1044500087432B43CD682B433343234304681343E3
:104460006361B2F1406F3FF47BAF03684A689A61C1
:1044700076E7D1F824C0BCF1000F3FF471AFCB6AEE
:104480000F6B3B434F6B3B434CEA03074B6947EAD7
:1044900083431D4346EA0503234301681A434A61E7
:1044A0005EE72DE9F84305460F4616469946DDF8C6
:1044B00020802C68A4683C4214BF4FF0010C4FF0E0
:1044C000000CB44514D0B8F1FF3FF2D0FEF7CCF8A1
:1044D000A0EB0900404502D8B8F1000FE9D1042350
:1044E00085F841306B6C43F001036B64012000E000
:1044F0000020BDE8F8832DE9F04182B004460F4664
:104500001646FEF7B1F894F840C05FFA8CFCBCF197
:10451000010F3CD00546012384F8403094F841C097
:104520005FFA8CFC9C4508D04FF00208002384F809
:104530004030404602B0BDE8F081002262640223B0
:1045400084F841300096034620212046FFF7A9FF5A
:1045500080460028EAD1002239462046FFF7B6FE01
:104560007B6A1BB1012384F84130DFE700962B46BC
:10457000012202212046FFF794FF80460028D5D172
:1045800023680222DA60012384F84130CEE74FF03D
:104590000208CEE72DE9F04383B00446894617466A
:1045A000FEF762F8D4F80080D8F8182094F840306C
:1045B000DBB2012B5BD00646012384F8403094F82F
:1045C0004150EDB29D4207D00225002384F84030CF
:1045D000284603B0BDE8F08300236364B9F1000FFF
:1045E00040D0222384F84130D8F810300133A3633F
:1045F000D8F8103001336363C4F83090D8F8143021
:1046000023F0406343F08063C8F8143023689A6154
:104610000025A36B9BB1009733460122062120465B
:10462000FFF73FFF054650B9236B98F820201A701A
:10463000216B01312163A16B0139A163E9E71DB150
:10464000012384F84130C0E700973346012202215C
:104650002046FFF726FF05460028F1D123680222F5
:10466000DA60EDE7636C43F008036364ADE70225AD
:10467000AEE72DE9F04182B00446884615461F4654
:10468000FDF7F2FF94F840C05FFA8CFCBCF1010F1B
:1046900048D00646012384F8403094F841C05FFAC0
:1046A0008CFC9C4506D00220002384F8403002B0E8
:1046B000BDE8F08100226264422384F84130009713
:1046C000034620212046FFF7ECFE0028ECD12368AA
:1046D0002A689A6223686A685A622368AA68DA625A
:1046E0002268136823F4400329690B4343F48003D1
:1046F0001360EB68C8F828304FF00062414620464E
:10470000FFF7E4FD00973346012208212046FFF71A
:10471000C8FE0028C8D123680822DA60012384F883
:104720004130C1E70220C2E7704708B5006C0023A2
:104730008363C36290F84130DBB2082B0DD103686C
:104740000222DA600268136843F4003313600268DF
:10475000136843F00203136008BD012380F8413061
:10476000FFF7E2FFF8E77047704770477047704700
:104770007047000010B5044603689A68196812F083
:10478000040F3FD011F4802F3CD090F84120D2B2DA
:10479000122A12D090F84120D2B2222A1FD02046ED
:1047A000FFF7E4FF10BD626A127883F82020626A86
:1047B00001326262E26A013AE2622268916811F0B3
:1047C000040FECD0E16A0029EDD1136823F48023B3
:1047D0001360E4E7136823F480231360DFE72268A3
:1047E000916811F0040FDAD0A16B0029F2D0226B8E
:1047F00093F820101170226B01322263A26B013AF0
:10480000A263ECE712F0020F76D011F4003F73D0F0
:104810000222DA602268136823F4E023136094F81C
:104820004130DBB2122B1DD094F84130DBB2222B89
:104830002ED094F84130DBB2022B52D094F84130A4
:10484000DBB2082BAED12268536923F04063536179
:10485000012384F84130636C002B49D12046FFF7D7
:1048600082FF9FE723681A6812F0040F09D01A68C4
:1048700022F004021A60E36B1A68D36823F0010384
:10488000D360012384F841302046FFF76EFF89E7AB
:1048900021680B6813F0040F10D00B6823F0040399
:1048A0000B60E36B1A68D36823F00103D360012324
:1048B00084F841302046FCF719FE73E723689B68B3
:1048C00013F47C5FF3D0A36B002BF0D0236B91F833
:1048D00020201A70236B01332363A36B013BA36376
:1048E000ECE7012384F841302046FFF73DFF59E70C
:1048F0002046FFF719FF55E712F0080F14D011F406
:10490000002F11D00822DA6023681A6812F4800F91
:1049100006D01A6822F410221A60012384F841306C
:104920002046FFF724FF3DE712F0010F31D011F4CC
:10493000803F2ED00122DA602268136823F47023AE
:104940001360636C43F00203636423681A6812F017
:10495000040F17D01A6822F004021A60E36B144A9D
:104960009A65E06BFFF78FFB00283FF41BAF636C89
:1049700043F004036364012384F841302046FFF7C9
:10498000D3FE0FE7012384F841302046FFF7CCFE29
:1049900008E712F0100F3FF405AF11F4801F3FF449
:1049A00001AF1022DA602046FFF7E2FEFAE600BF10
:1049B0002B4700088164704770B582B00446FDF74C
:1049C00053FE002C45D0064694F84130002B37D0DA
:1049D00025682A6822F4F852A168013942EA0122C6
:1049E0002A60A36C00933346002220212046FFF763
:1049F00058FD18BB21680B68174A1A406568E368C0
:104A000043EA0563E5692B43256A2B4313430B6097
:104A100021684A68114B13402569626942EA0542E0
:104A2000A5692A4313434B602268136843F00103CE
:104A3000136000236364012384F8413002B070BD29
:104A40002046FCF7B9FB41F288312046FFF7B2FF60
:104A5000BEE70120F2E700BF2FFFFF00FEF8E0FFF6
:104A6000002800F0398338B50446036813F0010FBD
:104A700025D0944A136903F03803926A102B15D09D
:104A8000182B0FD06368B3F5803F3FD0002B53D174
:104A90008C4B1A6822F480321A601A6822F4802241
:104AA0001A6038E002F00302022AEBD1854B1B6842
:104AB00013F4003F03D06368002B00F00F832368DA
:104AC00013F0020F00F0A1807E4A1369926A13F07E
:104AD00038035AD0182B55D0E368002B00F0DE8045
:104AE00078490A6822F0190213430B60FDF7BCFDF8
:104AF0000546744B1B6813F0040F40F0AD80FDF7C2
:104B0000B3FD401B0228F4D90320EEE26D4A13687E
:104B100043F48033136063682BB3FDF7A5FD0546AE
:104B2000684B1B6813F4003FC9D1FDF79DFD401B86
:104B30006428F5D90320D8E2B3F5A02F09D0614B42
:104B40001A6822F480321A601A6822F480221A60ED
:104B5000E1E75C4B1A6842F480221A601A6842F45A
:104B600080321A60D7E7FDF77FFD0546554B1B687D
:104B700013F4003FA3D0FDF777FD401B6428F5D95F
:104B80000320B2E212F0030FA6D14E4B1B6813F0C4
:104B9000040F03D0E368002B00F0A282494A136897
:104BA00023F01903E1680B431360FDF75DFD054633
:104BB000444B1B6813F0040F06D1FDF755FD401B55
:104BC0000228F5D9032090E2FDF768FD41F20303C6
:104BD000984212D82269402A07D03A494B6823F4F8
:104BE0007C3343EA02334B600FE0364A536823F4C8
:104BF0007C3343F40033536007E0324A536823F0B8
:104C0000FE43216943EA01635360236813F0100FE8
:104C100000F088802B4A136903F03803926A082B4E
:104C200056D0182B50D0E369002B00F0B880254AED
:104C3000136843F080031360FDF716FD0546214B12
:104C40001B6813F4807F40F08880FDF70DFD401B4A
:104C50000228F4D9032048E2FDF720FD41F20303C6
:104C6000984212D82269402A07D016494B6823F48B
:104C70007C3343EA02334B60C7E7124A536823F49C
:104C80007C3343F400335360BFE70E4A536823F08C
:104C9000FE43216943EA01635360B6E7094A13689A
:104CA00023F001031360FDF7DFFC0546054B1B688D
:104CB00013F0040FA9D0FDF7D7FC401B0228F5D94B
:104CC000032012E20044025802F00302012AAAD192
:104CD000A14B1B6813F4807F03D0E369802B40F065
:104CE0000182FDF7DBFC41F20303984212D8226AED
:104CF000202A07D098494B6823F0F84343EA82639F
:104D00004B600FE0944A536823F0F84343F080432C
:104D1000536007E0904AD36823F07C53216A43EA4A
:104D20000163D360236813F0080F60D06369002B20
:104D300049D0894A536F43F001035367FDF794FC50
:104D40000546854B5B6F13F0020F50D1FDF78CFCCD
:104D5000401B0228F5D90320C7E1FDF79FFC41F273
:104D60000303984212D8226A202A07D07A494B6856
:104D700023F0F84343EA82634B60D3E7764A5368F3
:104D800023F0F84343F080435360CBE7724AD36883
:104D900023F07C53216A43EA0163D360C2E76E4A81
:104DA000136823F080031360FDF75EFC05466A4B31
:104DB0001B6813F4807FB5D0FDF756FC401B02281A
:104DC000F5D9032091E1644A536F23F0010353673F
:104DD000FDF74AFC0546604B5B6F13F0020F06D0EF
:104DE000FDF742FC401B0228F5D903207DE1236832
:104DF00013F0200F29D0A3699BB1574A136843F4DD
:104E000080531360FDF730FC0546534B1B6813F4C9
:104E1000005F1AD1FDF728FC401B0228F5D90320BA
:104E200063E14D4A136823F480531360FDF71CFCC3
:104E30000546494B1B6813F4005F06D0FDF714FCD0
:104E4000401B0228F5D903204FE1236813F0040F1B
:104E500021D1636A002B00F047813F4A126902F0BA
:104E60003802182A00F0EE80022B79D03A4A1368F3
:104E700023F080731360FDF7F7FB0446364B1B6885
:104E800013F0007F00F0DC80FDF7EEFB001B022832
:104E9000F4D9032029E1314A136843F48073136085
:104EA000FDF7E2FB05462D4B1B6813F4807F06D10E
:104EB000FDF7DAFB401B6428F5D9032015E1A36850
:104EC000012B0AD00BBB244B1A6F22F001021A6788
:104ED0001A6F22F004021A6704E01F4A136F43F0AE
:104EE00001031367A36833B3FDF7BEFB05461A4BF6
:104EF0001B6F13F0020FACD1FDF7B6FB401B41F264
:104F000088339842F3D90320EFE0052B09D0124BE8
:104F10001A6F22F001021A671A6F22F004021A6750
:104F2000E0E70D4B1A6F42F004021A671A6F42F065
:104F300001021A67D6E7FDF797FB0546064B1B6F84
:104F400013F0020F85D0FDF78FFB401B41F2883331
:104F50009842F3D90320C8E00044025800480258A0
:104F6000694A136823F080731360FDF77DFB0546E3
:104F7000654B1B6813F0007F06D0FDF775FB401BE7
:104F80000228F5D90320B0E05F4B996A5F4A0A40D6
:104F9000A16AE06A41EA00110A439A62226B013A6F
:104FA000C2F30802616B0139490289B20A43A16B5D
:104FB0000139090401F4FE010A43E16B01390906D4
:104FC00001F0FE410A431A63DA6A22F00102DA6252
:104FD000596B4F4A0A40A16C42EAC1025A63DA6A2D
:104FE00022F00C02216C0A43DA62DA6A22F0020231
:104FF000616C0A43DA62DA6A42F48032DA62DA6AAF
:1050000042F40032DA62DA6A42F48022DA62DA6A60
:1050100042F00102DA621A6842F080721A60FDF70B
:1050200023FB0446384B1B6813F0007F06D1FDF7C5
:105030001BFB001B0228F5D9032056E0002054E09A
:10504000002052E0304A916A106B012B4ED001F0E3
:105050000303A26A93424BD1C1F30511E36A99425B
:1050600048D1C0F30802236B013B9A4244D1C0F3FC
:105070004622636B013B9A4240D1C0F30642A36BC8
:10508000013B9A423CD1C0F30660E36B013B98427E
:1050900038D11D4B5B6BC3F3CC03A26C9A4201D198
:1050A000002022E0184AD36A23F00103D362FDF7FF
:1050B000DBFA0546FDF7D8FAA842FBD0124A516B3D
:1050C000134B0B40A16C43EAC1035363D36A43F013
:1050D0000103D362002008E001207047012004E0B2
:1050E000012002E0012000E0002038BD0120FCE7A3
:1050F0000120FAE70120F8E70120F6E70120F4E7B4
:105100000120F2E70120F0E7004402580CFCFFFF09
:105110000700FFFF744B1B6903F03803102B00F0EE
:10512000DE80182B10D00BB1704870476E4B1B6897
:1051300013F0200F00F0D5806B4B1868C0F3C1004E
:105140006B4B23FA00F0704710B4674A916A01F084
:105150000301946AC4F30510D36A03F0010C536B86
:10516000C3F3CC030CFB03F307EE903AF8EE677A37
:1051700014F47C7F00F09380012965D0022900F0AF
:105180009180E1B107EE100AF8EE476A9FED596A87
:1051900086EE267A544B1B6BC3F3080306EE903A57
:1051A000F8EE666A9FED546A67EE867A76EEA77A25
:1051B000F7EE006A77EEA67A27EE277A60E01368AA
:1051C00013F0200F23D011461268C2F3C102484BDE
:1051D000D34007EE103AF8EE476A07EE100AB8EE31
:1051E000476A86EE867A0B6BC3F3080306EE903AA5
:1051F000F8EE666A9FED406A67EE867A76EEA77AE9
:10520000F7EE006A77EEA67A27EE277A38E007EE07
:10521000100AF8EE476A9FED396A86EE267A324B1D
:105220001B6BC3F3080306EE903AF8EE666A9FED37
:10523000326A67EE867A76EEA77AF7EE006A77EE44
:10524000A67A27EE277A1BE007EE100AF8EE476AE7
:105250009FED286A86EE267A234B1B6BC3F3080367
:1052600006EE903AF8EE666A9FED236A67EE867A5C
:1052700076EEA77AF7EE006A77EEA67A27EE277A1F
:10528000194B1B6BC3F34623013307EE903AF8EE3C
:10529000677AC7EE276AFCEEE67A17EE900A5DF8A9
:1052A000044B704707EE100AF8EE476A9FED146A48
:1052B00086EE267A0C4B1B6BC3F3080306EE903A7E
:1052C000F8EE666A9FED0C6A67EE867A76EEA77A4C
:1052D000F7EE006A77EEA67A27EE277AD0E709483C
:1052E00070470348704700BF0044025800093D0062
:1052F0000090D0030024744A000000390024744C4C
:1053000020BCBE4B40787D01002800F0328170B592
:105310000D4604469B4B1B6803F00F038B420BD2D8
:10532000984A136823F00F030B431360136803F0CC
:105330000F038B4240F01F81236813F0040F0CD041
:105340002269914B9B6903F070039A4205D98E49FB
:105350008B6923F070031A438A61236813F0080FE6
:105360000CD06269884BDB6903F070039A4205D95F
:105370008549CB6923F070031A43CA61236813F08F
:10538000100F0CD0A269804BDB6903F4E0639A42F2
:1053900005D97D49CB6923F4E0631A43CA612368C8
:1053A00013F0200F0CD0E269774B1B6A03F07003F7
:1053B0009A4205D974490B6A23F070031A430A62B2
:1053C000236813F0020F0CD0E2686F4B9B6903F067
:1053D0000F039A4205D96C498B6923F00F031A43D6
:1053E0008A61236813F0010F41D0674A936923F45F
:1053F0007063A1680B4393616368022B0AD0032B8F
:1054000027D0012B2CD0604A126812F0040F06D16D
:105410000120ADE0126812F4003F00F0AE805A495E
:105420000A6922F0070213430B61FDF71DF90646D6
:10543000554B1B6903F038036268B3EBC20F16D0FB
:10544000FDF712F9801B41F288339842F0D903200E
:105450008EE04D4A126812F0007FE0D1012087E013
:10546000494A126812F4807FD9D1012080E0236874
:1054700013F0020F0CD0E268434B9B6903F00F035B
:105480009A4205D240498B6923F00F031A438A617F
:105490003C4B1B6803F00F03AB420AD9394A13682F
:1054A00023F00F032B431360136803F00F03AB4289
:1054B00065D1236813F0040F0CD02269324B9B692D
:1054C00003F070039A4205D22F498B6923F07003D1
:1054D0001A438A61236813F0080F0CD062692A4BC3
:1054E000DB6903F070039A4205D22749CB6923F0A8
:1054F00070031A43CA61236813F0100F0CD0A2691D
:10550000214BDB6903F4E0639A4205D21E49CB6963
:1055100023F4E0631A43CA61236813F0200F0CD010
:10552000E269194B1B6A03F070039A4205D21649CF
:105530000B6A23F070031A430A62FFF7EBFD12496E
:105540008B69C3F30323114AD35C03F01F03D840D4
:105550008B6903F00F03D35C03F01F0320FA03F3FE
:105560000B4A13600B4B18600B4B1868FCF7E0F804
:1055700070BD012070470120FAE70120F8E7012003
:10558000F6E700BF0020005200440258B0FD0008BA
:1055900004000024000000240C00002408B5FFF7DC
:1055A000B9FD0B4A9369C3F303230A49CB5C03F0AB
:1055B0001F0320FA03F3926902F00F02885C00F0E7
:1055C0001F0023FA00F0044A1060044A136008BD6B
:1055D00000440258B0FD000804000024000000242C
:1055E00008B5FFF7DBFF054BDB69C3F30213044A81
:1055F000D35C03F01F03D84008BD00BF004402582D
:10560000B0FD000808B5FFF7C9FF054BDB69C3F320
:105610000223044AD35C03F01F03D84008BD00BF37
:1056200000440258B0FD00083F230360114B1A6983
:1056300002F0070242609A6902F4706282609A691D
:1056400002F00F02C2609A6902F070020261DA6928
:1056500002F070024261DA6902F4E06282611B6A60
:1056600003F07003C361044B1B6803F00F030B606E
:10567000704700BF0044025800200052404B9B6A14
:1056800003F00303032B79D070B505460E463C4A60
:10569000136823F080631360FCF7E6FF0446384B81
:1056A0001B6813F0006F06D0FCF7DEFF031B022B14
:1056B000F5D9032070BD324B9A6A22F47C322968F6
:1056C00042EA01329A626A68013AC2F30802A968A2
:1056D0000139490289B20A43E9680139090401F430
:1056E000FE010A4329690139090601F0FE410A4316
:1056F0009A63DA6A22F0C00269690A43DA62DA6AF6
:1057000022F02002A9690A43DA62DA6A22F0100262
:10571000DA62D96B1B4A0A40E96942EAC102DA63DC
:10572000DA6A42F01002DA62C6B91A46DB6A43F45A
:105730000023D362124A136843F080631360FCF7BE
:1057400093FF04460E4B1B6813F0006F14D1FCF757
:105750008BFF001B0228F5D90320ABE7012E05D0F3
:10576000074AD36A43F40013D362E3E7044AD36AD7
:1057700043F48013D362DDE700209BE701207047EC
:10578000004402580700FFFF404B9B6A03F00303ED
:10579000032B79D070B505460E463C4A136823F0BA
:1057A00080531360FCF760FF0446384B1B6813F00E
:1057B000005F06D0FCF758FF031B022BF5D903202E
:1057C00070BD324B9A6A22F07C72296842EA01521B
:1057D0009A626A68013AC2F30802A968013949026B
:1057E00089B20A43E9680139090401F4FE010A4358
:1057F00029690139090601F0FE410A431A64DA6A8F
:1058000022F4406269690A43DA62DA6A22F40072B9
:10581000A9690A43DA62DA6A22F48072DA62596CA0
:105820001B4A0A40E96942EAC1025A64DA6A42F450
:105830008072DA62C6B91A46DB6A43F48003D36227
:10584000124A136843F080531360FCF70DFF0446BF
:105850000E4B1B6813F0005F14D1FCF705FF001B13
:105860000228F5D90320ABE7012E05D0074AD36AF9
:1058700043F08073D362E3E7044AD36A43F400033E
:10588000D362DDE700209BE7012070470044025807
:105890000700FFFFF8B50446036813F0006F30D02F
:1058A000836EB3F5001F26D00ED8EBB1B3F5801F81
:1058B00007D102210830FFF7E1FE054645B12E462B
:1058C00021E0012635461EE0B3F5401F09D1002531
:1058D000984A136D23F44013A16E0B431365002601
:1058E00011E0012635460EE0924AD36A43F40033B4
:1058F000D3620025ECE702212830FFF745FF05467B
:10590000DCE700263546236813F4807F14D0A36DAE
:10591000042B32D8DFE803F003232A080800854A65
:10592000D36A43F40033D36255BB824A136D23F02C
:105930000703A16D0B431365236813F4007F31D077
:10594000E36D802B4CD020D8002B43D0402B19D1B5
:10595000002104F10800FFF791FE05461AE000213E
:1059600004F10800FFF78AFE0546DDE7002104F197
:105970002800FFF709FF0546D6E701263546DBE795
:105980002E46D9E7012635460CE0C02B02D0B3F5F0
:10599000807F1CD15DBB674A136D23F4E073E16D1A
:1059A0000B431365236813F4806F46D0D4F8A830F6
:1059B000B3F5800F39D01FD88BB3B3F5001F18D1C2
:1059C000002104F10800FFF759FE05461AE0012600
:1059D0003546E7E7574AD36A43F40033D362D9E741
:1059E000002104F12800FFF7CFFE0546D2E72E463E
:1059F000D8E70126354620E0B3F5C00F02D0B3F555
:105A0000000F09D1C5B94B4A936D23F46003D4F854
:105A1000A8100B43936510E0012635460DE0454A7A
:105A2000D36A43F40033D362ECE7002104F1280089
:105A3000FFF7AAFE0546E5E72E46236813F4006F3C
:105A400024D0D4F8AC30B3F1007F42D00ED8002B74
:105A500039D0B3F1807F06D1002104F10800FFF7AF
:105A60000DFE054608E0012635460FE0B3F1407F04
:105A700002D0B3F1806F23D1002D31D12D4A936D27
:105A800023F0E063D4F8AC100B439365236813F064
:105A9000007F2ED0E36C202B40D026D833B1102BC2
:105AA00020D1244AD36A43F40033D362002D3CD181
:105AB000204AD36C23F03003E16C0B43D36418E02D
:105AC00001263546E2E71B4AD36A43F40033D3622A
:105AD000D2E7002104F12800FFF756FE0546CBE788
